{
  "contractName": "PredictionCore",
  "abi": [
    {
      "inputs": [
        {
          "internalType": "uint256",
          "name": "_i",
          "type": "uint256"
        },
        {
          "internalType": "uint80",
          "name": "_cycle",
          "type": "uint80"
        }
      ],
      "name": "getPriceStatus",
      "outputs": [
        {
          "internalType": "enum PredictionCore.Status",
          "name": "",
          "type": "uint8"
        }
      ],
      "stateMutability": "view",
      "type": "function"
    },
    {
      "inputs": [
        {
          "internalType": "uint256",
          "name": "_i",
          "type": "uint256"
        },
        {
          "internalType": "uint80",
          "name": "cycle",
          "type": "uint80"
        }
      ],
      "name": "getPriceBoundries",
      "outputs": [
        {
          "internalType": "uint256",
          "name": "UPPER",
          "type": "uint256"
        },
        {
          "internalType": "uint256",
          "name": "LOWER",
          "type": "uint256"
        }
      ],
      "stateMutability": "view",
      "type": "function"
    },
    {
      "inputs": [
        {
          "internalType": "uint256",
          "name": "_i",
          "type": "uint256"
        }
      ],
      "name": "isPriceLocked",
      "outputs": [
        {
          "internalType": "bool",
          "name": "",
          "type": "bool"
        }
      ],
      "stateMutability": "view",
      "type": "function"
    },
    {
      "inputs": [
        {
          "internalType": "uint256",
          "name": "_i",
          "type": "uint256"
        },
        {
          "internalType": "uint80",
          "name": "round",
          "type": "uint80"
        }
      ],
      "name": "getTimestamp",
      "outputs": [
        {
          "internalType": "uint256",
          "name": "",
          "type": "uint256"
        }
      ],
      "stateMutability": "view",
      "type": "function"
    },
    {
      "inputs": [
        {
          "internalType": "uint256",
          "name": "_i",
          "type": "uint256"
        }
      ],
      "name": "getLatestPrice",
      "outputs": [
        {
          "internalType": "uint256",
          "name": "",
          "type": "uint256"
        }
      ],
      "stateMutability": "view",
      "type": "function"
    },
    {
      "inputs": [
        {
          "internalType": "uint256",
          "name": "_i",
          "type": "uint256"
        },
        {
          "internalType": "uint80",
          "name": "round",
          "type": "uint80"
        }
      ],
      "name": "getRoundPrice",
      "outputs": [
        {
          "internalType": "uint256",
          "name": "",
          "type": "uint256"
        }
      ],
      "stateMutability": "view",
      "type": "function"
    },
    {
      "inputs": [
        {
          "internalType": "uint256",
          "name": "_i",
          "type": "uint256"
        }
      ],
      "name": "getLatestCycle",
      "outputs": [
        {
          "internalType": "uint80",
          "name": "",
          "type": "uint80"
        }
      ],
      "stateMutability": "view",
      "type": "function"
    },
    {
      "inputs": [
        {
          "internalType": "uint256",
          "name": "_i",
          "type": "uint256"
        }
      ],
      "name": "getLatestRoundInCycle",
      "outputs": [
        {
          "internalType": "uint80",
          "name": "",
          "type": "uint80"
        }
      ],
      "stateMutability": "view",
      "type": "function"
    },
    {
      "inputs": [
        {
          "internalType": "uint256",
          "name": "_i",
          "type": "uint256"
        }
      ],
      "name": "getCyclesParticipation",
      "outputs": [
        {
          "internalType": "uint256[]",
          "name": "",
          "type": "uint256[]"
        }
      ],
      "stateMutability": "view",
      "type": "function"
    },
    {
      "inputs": [
        {
          "internalType": "uint256",
          "name": "_i",
          "type": "uint256"
        }
      ],
      "name": "getPair",
      "outputs": [
        {
          "internalType": "string",
          "name": "",
          "type": "string"
        }
      ],
      "stateMutability": "view",
      "type": "function"
    },
    {
      "inputs": [
        {
          "internalType": "uint256",
          "name": "_i",
          "type": "uint256"
        },
        {
          "internalType": "uint80",
          "name": "_cycle",
          "type": "uint80"
        }
      ],
      "name": "getIsWithdrawn",
      "outputs": [
        {
          "internalType": "bool",
          "name": "",
          "type": "bool"
        }
      ],
      "stateMutability": "view",
      "type": "function"
    }
  ],
  "bytecode": "0x60806040526000805534801561001457600080fd5b5061201e806100246000396000f3fe608060405234801561001057600080fd5b50600436106100a95760003560e01c8063b72e826811610071578063b72e82681461019e578063b94fe917146101ce578063bdf391cc146101fe578063c55e43781461022e578063dd52be741461025e578063fd2286711461028e576100a9565b806323e3fac6146100ae5780632ea415ee146100de57806350295ffd1461010e578063581202591461013e578063996d7e7e1461016e575b600080fd5b6100c860048036038101906100c39190611457565b6102bf565b6040516100d59190611979565b60405180910390f35b6100f860048036038101906100f39190611457565b610417565b6040516101059190611841565b60405180910390f35b61012860048036038101906101239190611405565b6104a2565b60405161013591906119d8565b60405180910390f35b61015860048036038101906101539190611457565b610691565b604051610165919061185c565b60405180910390f35b61018860048036038101906101839190611405565b6109e0565b604051610195919061181f565b60405180910390f35b6101b860048036038101906101b39190611405565b610a8b565b6040516101c59190611841565b60405180910390f35b6101e860048036038101906101e39190611405565b610b43565b6040516101f59190611979565b60405180910390f35b61021860048036038101906102139190611405565b610c19565b6040516102259190611877565b60405180910390f35b61024860048036038101906102439190611457565b610d21565b6040516102559190611979565b60405180910390f35b61027860048036038101906102739190611405565b610e99565b60405161028591906119d8565b60405180910390f35b6102a860048036038101906102a39190611457565b610fc1565b6040516102b6929190611994565b60405180910390f35b6000828060005411610306576040517f08c379a00000000000000000000000000000000000000000000000000000000081526004016102fd906118d9565b60405180910390fd5b60006001600086815260200190815260200160002060030160009054906101000a900473ffffffffffffffffffffffffffffffffffffffff1673ffffffffffffffffffffffffffffffffffffffff1663b633620c856040518263ffffffff1660e01b815260040161037791906119bd565b60206040518083038186803b15801561038f57600080fd5b505afa1580156103a3573d6000803e3d6000fd5b505050506040513d601f19601f820116820180604052508101906103c7919061142e565b90506000811161040c576040517f08c379a000000000000000000000000000000000000000000000000000000000815260040161040390611899565b60405180910390fd5b809250505092915050565b60006001600084815260200190815260200160002060020160008369ffffffffffffffffffff16815260200190815260200160002060020160003373ffffffffffffffffffffffffffffffffffffffff1673ffffffffffffffffffffffffffffffffffffffff16815260200190815260200160002060009054906101000a900460ff16905092915050565b60008180600054116104e9576040517f08c379a00000000000000000000000000000000000000000000000000000000081526004016104e0906118d9565b60405180910390fd5b60006104f484610e99565b905060006001600086815260200190815260200160002060030160009054906101000a900473ffffffffffffffffffffffffffffffffffffffff1673ffffffffffffffffffffffffffffffffffffffff1663feaf968c6040518163ffffffff1660e01b815260040160a06040518083038186803b15801561057457600080fd5b505afa158015610588573d6000803e3d6000fd5b505050506040513d601f19601f820116820180604052508101906105ac9190611493565b50505050905060006105be86836102bf565b116105fe576040517f08c379a00000000000000000000000000000000000000000000000000000000081526004016105f590611959565b60405180910390fd5b6000610683600161066961064e61062b60328869ffffffffffffffffffff1661116790919063ffffffff16565b6106348b61117d565b69ffffffffffffffffffff166111b390919063ffffffff16565b8569ffffffffffffffffffff166111c990919063ffffffff16565b69ffffffffffffffffffff166111b390919063ffffffff16565b905080945050505050919050565b600082828069ffffffffffffffffffff166106ab83610e99565b69ffffffffffffffffffff1610156106f8576040517f08c379a00000000000000000000000000000000000000000000000000000000081526004016106ef906118b9565b60405180910390fd5b84806000541161073d576040517f08c379a0000000000000000000000000000000000000000000000000000000008152600401610734906118d9565b60405180910390fd5b8469ffffffffffffffffffff1661075387610e99565b69ffffffffffffffffffff1610156107a0576040517f08c379a0000000000000000000000000000000000000000000000000000000008152600401610797906118b9565b60405180910390fd5b60006107d56032876107b29190611d12565b6107bb8961117d565b69ffffffffffffffffffff166111b390919063ffffffff16565b905060006107e388836102bf565b11610823576040517f08c379a000000000000000000000000000000000000000000000000000000000815260040161081a906118f9565b60405180910390fd5b60008061084660328469ffffffffffffffffffff166111b390919063ffffffff16565b90506000806108558b8b610fc1565b9150915060008590505b8369ffffffffffffffffffff168169ffffffffffffffffffff1611610925578069ffffffffffffffffffff166108ca600160008f815260200190815260200160002060030160009054906101000a900473ffffffffffffffffffffffffffffffffffffffff166111df565b69ffffffffffffffffffff1610156108e157610925565b60006108ed8d83610d21565b9050838110610900576002955050610925565b828111610911576003955050610925565b50808061091d90611e5e565b91505061085f565b5060006003811115610960577f4e487b7100000000000000000000000000000000000000000000000000000000600052602160045260246000fd5b846003811115610999577f4e487b7100000000000000000000000000000000000000000000000000000000600052602160045260246000fd5b1480156109c557508969ffffffffffffffffffff166109b78c610e99565b69ffffffffffffffffffff16115b156109cf57600193505b839850505050505050505092915050565b60606001600083815260200190815260200160002060010160003373ffffffffffffffffffffffffffffffffffffffff1673ffffffffffffffffffffffffffffffffffffffff168152602001908152602001600020805480602002602001604051908101604052809291908181526020018280548015610a7f57602002820191906000526020600020905b815481526020019060010190808311610a6b575b50505050509050919050565b6000806000610aa284610a9d86610e99565b610fc1565b915091506000610ab185610b43565b9050610aec610add6064610acf60028761126f90919063ffffffff16565b61128590919063ffffffff16565b8461129b90919063ffffffff16565b9250610b27610b186064610b0a60028661126f90919063ffffffff16565b61128590919063ffffffff16565b836112b190919063ffffffff16565b9150828111158015610b395750818110155b9350505050919050565b6000806001600084815260200190815260200160002060030160009054906101000a900473ffffffffffffffffffffffffffffffffffffffff1673ffffffffffffffffffffffffffffffffffffffff1663feaf968c6040518163ffffffff1660e01b815260040160a06040518083038186803b158015610bc257600080fd5b505afa158015610bd6573d6000803e3d6000fd5b505050506040513d601f19601f82011682018060405250810190610bfa9190611493565b5050509150506402540be40081610c119190611cb8565b915050919050565b6060818060005411610c60576040517f08c379a0000000000000000000000000000000000000000000000000000000008152600401610c57906118d9565b60405180910390fd5b6001600084815260200190815260200160002060030160009054906101000a900473ffffffffffffffffffffffffffffffffffffffff1673ffffffffffffffffffffffffffffffffffffffff16637284e4166040518163ffffffff1660e01b815260040160006040518083038186803b158015610cdc57600080fd5b505afa158015610cf0573d6000803e3d6000fd5b505050506040513d6000823e3d601f19601f82011682018060405250810190610d1991906113c4565b915050919050565b6000828060005411610d68576040517f08c379a0000000000000000000000000000000000000000000000000000000008152600401610d5f906118d9565b60405180910390fd5b6000806001600087815260200190815260200160002060030160009054906101000a900473ffffffffffffffffffffffffffffffffffffffff1673ffffffffffffffffffffffffffffffffffffffff16639a6fc8f5866040518263ffffffff1660e01b8152600401610dda91906119d8565b60a06040518083038186803b158015610df257600080fd5b505afa158015610e06573d6000803e3d6000fd5b505050506040513d601f19601f82011682018060405250810190610e2a9190611493565b505050915091506000610e3d87846102bf565b11610e7d576040517f08c379a0000000000000000000000000000000000000000000000000000000008152600401610e7490611939565b60405180910390fd5b6402540be40081610e8e9190611ba1565b935050505092915050565b6000818060005411610ee0576040517f08c379a0000000000000000000000000000000000000000000000000000000008152600401610ed7906118d9565b60405180910390fd5b6000610f47610eee8561117d565b610f2d6001600088815260200190815260200160002060030160009054906101000a900473ffffffffffffffffffffffffffffffffffffffff166111df565b69ffffffffffffffffffff166111c990919063ffffffff16565b90506000610fa86032610f8e610f7360328669ffffffffffffffffffff166112c790919063ffffffff16565b8569ffffffffffffffffffff166111c990919063ffffffff16565b69ffffffffffffffffffff166112dd90919063ffffffff16565b69ffffffffffffffffffff169050809350505050919050565b600080838060005411611009576040517f08c379a0000000000000000000000000000000000000000000000000000000008152600401611000906118d9565b60405180910390fd5b8369ffffffffffffffffffff1661101f86610e99565b69ffffffffffffffffffff16101561106c576040517f08c379a0000000000000000000000000000000000000000000000000000000008152600401611063906118b9565b60405180910390fd5b60006110b461109160328769ffffffffffffffffffff1661116790919063ffffffff16565b61109a8861117d565b69ffffffffffffffffffff166111b390919063ffffffff16565b905060006110c28783610d21565b905060006110ed60646110df60068561126f90919063ffffffff16565b61128590919063ffffffff16565b905060008211611132576040517f08c379a000000000000000000000000000000000000000000000000000000000815260040161112990611919565b60405180910390fd5b61114581836112b190919063ffffffff16565b955061115a818361129b90919063ffffffff16565b9450505050509250929050565b600081836111759190611d12565b905092915050565b60006001600083815260200190815260200160002060000160009054906101000a900469ffffffffffffffffffff169050919050565b600081836111c19190611aff565b905092915050565b600081836111d79190611d8a565b905092915050565b6000808273ffffffffffffffffffffffffffffffffffffffff1663feaf968c6040518163ffffffff1660e01b815260040160a06040518083038186803b15801561122857600080fd5b505afa15801561123c573d6000803e3d6000fd5b505050506040513d601f19601f820116820180604052508101906112609190611493565b50505050905080915050919050565b6000818361127d9190611cb8565b905092915050565b600081836112939190611b3f565b905092915050565b600081836112a99190611d56565b905092915050565b600081836112bf9190611aa9565b905092915050565b600081836112d59190611e91565b905092915050565b600081836112eb9190611b70565b905092915050565b600061130661130184611a24565b6119f3565b90508281526020810184848401111561131e57600080fd5b611329848285611e2b565b509392505050565b60008151905061134081611fa3565b92915050565b600082601f83011261135757600080fd5b81516113678482602086016112f3565b91505092915050565b60008135905061137f81611fba565b92915050565b60008151905061139481611fba565b92915050565b6000813590506113a981611fd1565b92915050565b6000815190506113be81611fd1565b92915050565b6000602082840312156113d657600080fd5b600082015167ffffffffffffffff8111156113f057600080fd5b6113fc84828501611346565b91505092915050565b60006020828403121561141757600080fd5b600061142584828501611370565b91505092915050565b60006020828403121561144057600080fd5b600061144e84828501611385565b91505092915050565b6000806040838503121561146a57600080fd5b600061147885828601611370565b92505060206114898582860161139a565b9150509250929050565b600080600080600060a086880312156114ab57600080fd5b60006114b9888289016113af565b95505060206114ca88828901611331565b94505060406114db88828901611385565b93505060606114ec88828901611385565b92505060806114fd888289016113af565b9150509295509295909350565b600061151683836117e3565b60208301905092915050565b600061152d82611a64565b6115378185611a87565b935061154283611a54565b8060005b8381101561157357815161155a888261150a565b975061156583611a7a565b925050600181019050611546565b5085935050505092915050565b61158981611dbe565b82525050565b61159881611e07565b82525050565b60006115a982611a6f565b6115b38185611a98565b93506115c3818560208601611e2b565b6115cc81611f7e565b840191505092915050565b60006115e4601d83611a98565b91507f4a41434b504f5420535452494b453a20496e76616c696420526f756e640000006000830152602082019050919050565b6000611624601d83611a98565b91507f4a41434b504f5420535452494b453a20496e76616c6964204379636c650000006000830152602082019050919050565b6000611664601d83611a98565b91507f4a41434b504f5420535452494b453a20496e76616c69642046656564200000006000830152602082019050919050565b60006116a4601d83611a98565b91507f4a41434b504f5420535452494b453a20696e76616c696420526f756e640000006000830152602082019050919050565b60006116e4602083611a98565b91507f4a41434b504f5420535452494b453a205072696365204e6f74204665656465646000830152602082019050919050565b6000611724602383611a98565b91507f4a41434b504f5420535452494b453a205072696365204e6f7420417661696c6160008301527f626c6500000000000000000000000000000000000000000000000000000000006020830152604082019050919050565b600061178a602383611a98565b91507f4a41434b504f5420535452494b453a20526f756e64204e6f7420417661696c6160008301527f626c6500000000000000000000000000000000000000000000000000000000006020830152604082019050919050565b6117ec81611de7565b82525050565b6117fb81611de7565b82525050565b61180a81611e19565b82525050565b61181981611df1565b82525050565b600060208201905081810360008301526118398184611522565b905092915050565b60006020820190506118566000830184611580565b92915050565b6000602082019050611871600083018461158f565b92915050565b60006020820190508181036000830152611891818461159e565b905092915050565b600060208201905081810360008301526118b2816115d7565b9050919050565b600060208201905081810360008301526118d281611617565b9050919050565b600060208201905081810360008301526118f281611657565b9050919050565b6000602082019050818103600083015261191281611697565b9050919050565b60006020820190508181036000830152611932816116d7565b9050919050565b6000602082019050818103600083015261195281611717565b9050919050565b600060208201905081810360008301526119728161177d565b9050919050565b600060208201905061198e60008301846117f2565b92915050565b60006040820190506119a960008301856117f2565b6119b660208301846117f2565b9392505050565b60006020820190506119d26000830184611801565b92915050565b60006020820190506119ed6000830184611810565b92915050565b6000604051905081810181811067ffffffffffffffff82111715611a1a57611a19611f4f565b5b8060405250919050565b600067ffffffffffffffff821115611a3f57611a3e611f4f565b5b601f19601f8301169050602081019050919050565b6000819050602082019050919050565b600081519050919050565b600081519050919050565b6000602082019050919050565b600082825260208201905092915050565b600082825260208201905092915050565b6000611ab482611de7565b9150611abf83611de7565b9250827fffffffffffffffffffffffffffffffffffffffffffffffffffffffffffffffff03821115611af457611af3611ec2565b5b828201905092915050565b6000611b0a82611df1565b9150611b1583611df1565b92508269ffffffffffffffffffff03821115611b3457611b33611ec2565b5b828201905092915050565b6000611b4a82611de7565b9150611b5583611de7565b925082611b6557611b64611ef1565b5b828204905092915050565b6000611b7b82611df1565b9150611b8683611df1565b925082611b9657611b95611ef1565b5b828204905092915050565b6000611bac82611ddd565b9150611bb783611ddd565b9250827f7fffffffffffffffffffffffffffffffffffffffffffffffffffffffffffffff0482116000841360008413161615611bf657611bf5611ec2565b5b817f80000000000000000000000000000000000000000000000000000000000000000583126000841260008413161615611c3357611c32611ec2565b5b827f80000000000000000000000000000000000000000000000000000000000000000582126000841360008412161615611c7057611c6f611ec2565b5b827f7fffffffffffffffffffffffffffffffffffffffffffffffffffffffffffffff0582126000841260008412161615611cad57611cac611ec2565b5b828202905092915050565b6000611cc382611de7565b9150611cce83611de7565b9250817fffffffffffffffffffffffffffffffffffffffffffffffffffffffffffffffff0483118215151615611d0757611d06611ec2565b5b828202905092915050565b6000611d1d82611df1565b9150611d2883611df1565b92508169ffffffffffffffffffff0483118215151615611d4b57611d4a611ec2565b5b828202905092915050565b6000611d6182611de7565b9150611d6c83611de7565b925082821015611d7f57611d7e611ec2565b5b828203905092915050565b6000611d9582611df1565b9150611da083611df1565b925082821015611db357611db2611ec2565b5b828203905092915050565b60008115159050919050565b6000819050611dd882611f8f565b919050565b6000819050919050565b6000819050919050565b600069ffffffffffffffffffff82169050919050565b6000611e1282611dca565b9050919050565b6000611e2482611df1565b9050919050565b60005b83811015611e49578082015181840152602081019050611e2e565b83811115611e58576000848401525b50505050565b6000611e6982611df1565b915069ffffffffffffffffffff821415611e8657611e85611ec2565b5b600182019050919050565b6000611e9c82611df1565b9150611ea783611df1565b925082611eb757611eb6611ef1565b5b828206905092915050565b7f4e487b7100000000000000000000000000000000000000000000000000000000600052601160045260246000fd5b7f4e487b7100000000000000000000000000000000000000000000000000000000600052601260045260246000fd5b7f4e487b7100000000000000000000000000000000000000000000000000000000600052602160045260246000fd5b7f4e487b7100000000000000000000000000000000000000000000000000000000600052604160045260246000fd5b6000601f19601f8301169050919050565b60048110611fa057611f9f611f20565b5b50565b611fac81611ddd565b8114611fb757600080fd5b50565b611fc381611de7565b8114611fce57600080fd5b50565b611fda81611df1565b8114611fe557600080fd5b5056fea2646970667358221220d6f6e9aba7bacef8dbea5a121f88f3489dcabedecb49943eb7682ea98be93f2964736f6c63430008000033",
  "immutableReferences": {},
  "source": "// SPDX-License-Identifier: MIT\r\npragma solidity ^0.8.0;\r\nimport \"./_utils/SafeMath.sol\";\r\nimport \"./interfaces/AggregatorV2V3Interface.sol\";\r\n\r\ncontract PredictionCore{\r\n    using SafeMath for uint;\r\n    using SafeMath80 for uint80;\r\n    enum Status{PENDING, TIE, LONG, SHORT}\r\n    struct Market{\r\n        uint80 startingRound;\r\n        mapping(address => uint[]) activeCycle;\r\n        mapping(uint => pool) pools;\r\n        AggregatorV2V3Interface feed;\r\n    }\r\n    struct pool{\r\n    uint totalLongs;\r\n    uint totalShorts;\r\n    mapping (address => bool) isWithdrawn;\r\n    mapping (address => uint) Longs;\r\n    mapping (address => uint) Shorts;\r\n    }\r\n\r\n    uint constant MINIMUM_BID = 10 * 10 ** 18;\r\n    uint constant PERCENTAGE = 6;\r\n    uint constant LOCKED_PERCENTAGE = 2;\r\n    uint marketCount = 0;\r\n    uint80 constant CYCLE = 50;\r\n    mapping (uint => Market) markets;\r\n    modifier validFeed(uint _i){\r\n        require(marketCount > _i,\"JACKPOT STRIKE: Invalid Feed \");\r\n        _;\r\n    }\r\n    modifier validCycle(uint _i, uint80 cycle){\r\n        require(getLatestCycle(_i)>=cycle,\"JACKPOT STRIKE: Invalid Cycle\");\r\n        _;\r\n    }\r\n    function getPriceStatus(uint _i,uint80 _cycle)\r\n        public validCycle(_i,_cycle) validFeed(_i) view returns(Status){\r\n        require(getLatestCycle(_i)>=_cycle,\"JACKPOT STRIKE: Invalid Cycle\");\r\n        uint80 _r0 = getStartingRound(_i).add(_cycle*CYCLE);\r\n        require(getTimestamp(_i,_r0) > 0,\"JACKPOT STRIKE: invalid Round\");\r\n        Status state;\r\n        uint80 _r1 = _r0.add(CYCLE);\r\n        (uint UPPER, uint LOWER) = getPriceBoundries(_i,_cycle);\r\n        for(uint80 r = _r0; r<=_r1; r++ ){\r\n            if( getRoundId(markets[_i].feed) < r) break;\r\n            uint price = getRoundPrice(_i,r);\r\n            if(price >= UPPER){\r\n                state = Status.LONG;\r\n                break;\r\n            }else if(price <= LOWER){\r\n                state = Status.SHORT;\r\n                break;\r\n            }\r\n        }\r\n        if(state == Status.PENDING && getLatestCycle(_i) > _cycle) state = Status.TIE;\r\n        return state;\r\n    }\r\n    function getPriceBoundries(uint _i, uint80 cycle)\r\n        public validFeed(_i) view returns(uint UPPER, uint LOWER){\r\n        require(getLatestCycle(_i)>=cycle,\"JACKPOT STRIKE: Invalid Cycle\");\r\n        uint80 start = getStartingRound(_i).add(cycle.mul(CYCLE));\r\n        uint price = getRoundPrice(_i,start);\r\n        uint adjustedPrice = price.mul(PERCENTAGE).div(100);\r\n        require(price > 0,\"JACKPOT STRIKE: Price Not Feeded\");\r\n        UPPER = price.add(adjustedPrice);\r\n        LOWER = price.sub(adjustedPrice);\r\n    }\r\n    function isPriceLocked(uint _i)\r\n        public view returns(bool){\r\n        (uint H, uint L) = getPriceBoundries(_i,getLatestCycle(_i));\r\n        uint latestPrice = getLatestPrice(_i);\r\n        H = H.sub((H.mul(LOCKED_PERCENTAGE)).div(100));\r\n        L = L.add((L.mul(LOCKED_PERCENTAGE)).div(100));\r\n        return (latestPrice<=H && latestPrice>=L);\r\n    }\r\n    function getTimestamp(uint _i, uint80 round)\r\n        public validFeed(_i) view returns(uint){\r\n        uint time = markets[_i].feed.getTimestamp(round);\r\n        require(time > 0,\"JACKPOT STRIKE: Invalid Round\");\r\n        return time;\r\n    }\r\n    function getRoundId(AggregatorV2V3Interface feed)\r\n        internal view returns(uint80){\r\n        ( uint80 roundID, , , ,) = feed.latestRoundData();\r\n        return roundID;\r\n    }\r\n    function getLatestPrice(uint _i)\r\n        public view returns(uint){\r\n        ( ,int price, , , ) = markets[_i].feed.latestRoundData();\r\n        return (uint(price)*10**10);\r\n    }\r\n    function getRoundPrice(uint _i, uint80 round)\r\n        public view validFeed(_i) returns (uint){\r\n        (uint80 roundID, int price, , ,) = markets[_i].feed.getRoundData(round);\r\n        require(getTimestamp(_i,roundID) > 0, \"JACKPOT STRIKE: Price Not Available\");\r\n        return (uint(price * 10**10));\r\n    }\r\n    function getLatestCycle(uint _i)\r\n        public validFeed(_i) view returns(uint80){\r\n        uint80 rounds = getRoundId(markets[_i].feed).sub(getStartingRound(_i));\r\n        uint cycles = rounds.sub(rounds.mod(CYCLE)).div(CYCLE);\r\n        return uint80(cycles);\r\n    }\r\n    function getLatestRoundInCycle(uint _i)\r\n        public validFeed(_i) view returns(uint80){\r\n        uint80 cycle = getLatestCycle(_i);\r\n        (uint80 roundID, , , ,) = markets[_i].feed.latestRoundData();\r\n        require(getTimestamp(_i,roundID) > 0, \"JACKPOT STRIKE: Round Not Available\");\r\n        uint80 roundsPassed = roundID.sub(getStartingRound(_i).add(cycle.mul(CYCLE))).add(1);\r\n        return roundsPassed;\r\n    }\r\n    function getCyclesParticipation(uint _i) public view returns(uint[] memory){\r\n        return markets[_i].activeCycle[msg.sender];\r\n    }\r\n    function getStartingRound(uint _i) internal view returns(uint80){\r\n        return markets[_i].startingRound;\r\n    }\r\n    function getPair(uint _i) public view validFeed(_i) returns(string memory) {\r\n        return markets[_i].feed.description();\r\n    }\r\n    function getTotalLongs(uint _i,uint80 _cycle) internal view  returns(uint){\r\n        return markets[_i].pools[_cycle].totalLongs;\r\n    }\r\n    function getIsWithdrawn(uint _i,uint80 _cycle) public view  returns(bool){\r\n        return markets[_i].pools[_cycle].isWithdrawn[msg.sender];\r\n    }\r\n    function getTotalShorts(uint _i,uint80 _cycle) internal view returns(uint){\r\n        return markets[_i].pools[_cycle].totalShorts;\r\n    }\r\n    function getShort(uint _i,uint80 _cycle) internal view returns(uint){\r\n        return markets[_i].pools[_cycle].Shorts[msg.sender];\r\n    }\r\n    function getLong(uint _i,uint80 _cycle) internal view returns(uint){\r\n        return markets[_i].pools[_cycle].Longs[msg.sender];\r\n    }\r\n}",
  "sourcePath": "C:/Users/amine/OneDrive/Desktop/Truffle/React - Prediction/contracts/PredictionCore.sol",
  "compiler": {
    "name": "solc",
    "version": "0.8.0+commit.c7dfd78e.Emscripten.clang"
  },
  "schemaVersion": "3.4.1",
  "updatedAt": "2021-07-06T18:22:16.279Z",
  "devdoc": {
    "kind": "dev",
    "methods": {},
    "version": 1
  },
  "userdoc": {
    "kind": "user",
    "methods": {},
    "version": 1
  }
}