{
  "contractName": "Prediction",
  "abi": [
    {
      "inputs": [],
      "stateMutability": "nonpayable",
      "type": "constructor"
    },
    {
      "anonymous": false,
      "inputs": [
        {
          "indexed": true,
          "internalType": "address",
          "name": "previousOwner",
          "type": "address"
        },
        {
          "indexed": true,
          "internalType": "address",
          "name": "newOwner",
          "type": "address"
        }
      ],
      "name": "OwnershipTransferred",
      "type": "event"
    },
    {
      "anonymous": false,
      "inputs": [
        {
          "indexed": true,
          "internalType": "bool",
          "name": "bidType",
          "type": "bool"
        },
        {
          "indexed": true,
          "internalType": "address",
          "name": "bidder",
          "type": "address"
        },
        {
          "indexed": false,
          "internalType": "uint256",
          "name": "amount",
          "type": "uint256"
        }
      ],
      "name": "_bid",
      "type": "event"
    },
    {
      "inputs": [
        {
          "internalType": "uint256",
          "name": "_i",
          "type": "uint256"
        }
      ],
      "name": "getCyclesParticipation",
      "outputs": [
        {
          "internalType": "uint256[]",
          "name": "",
          "type": "uint256[]"
        }
      ],
      "stateMutability": "view",
      "type": "function",
      "constant": true
    },
    {
      "inputs": [
        {
          "internalType": "uint256",
          "name": "_i",
          "type": "uint256"
        },
        {
          "internalType": "uint80",
          "name": "_cycle",
          "type": "uint80"
        }
      ],
      "name": "getIsWithdrawn",
      "outputs": [
        {
          "internalType": "bool",
          "name": "",
          "type": "bool"
        }
      ],
      "stateMutability": "view",
      "type": "function",
      "constant": true
    },
    {
      "inputs": [
        {
          "internalType": "uint256",
          "name": "_i",
          "type": "uint256"
        }
      ],
      "name": "getLatestCycle",
      "outputs": [
        {
          "internalType": "uint80",
          "name": "",
          "type": "uint80"
        }
      ],
      "stateMutability": "view",
      "type": "function",
      "constant": true
    },
    {
      "inputs": [
        {
          "internalType": "uint256",
          "name": "_i",
          "type": "uint256"
        }
      ],
      "name": "getLatestPrice",
      "outputs": [
        {
          "internalType": "uint256",
          "name": "",
          "type": "uint256"
        }
      ],
      "stateMutability": "view",
      "type": "function",
      "constant": true
    },
    {
      "inputs": [
        {
          "internalType": "uint256",
          "name": "_i",
          "type": "uint256"
        }
      ],
      "name": "getLatestRoundInCycle",
      "outputs": [
        {
          "internalType": "uint80",
          "name": "",
          "type": "uint80"
        }
      ],
      "stateMutability": "view",
      "type": "function",
      "constant": true
    },
    {
      "inputs": [
        {
          "internalType": "uint256",
          "name": "_i",
          "type": "uint256"
        }
      ],
      "name": "getPair",
      "outputs": [
        {
          "internalType": "string",
          "name": "",
          "type": "string"
        }
      ],
      "stateMutability": "view",
      "type": "function",
      "constant": true
    },
    {
      "inputs": [
        {
          "internalType": "uint256",
          "name": "_i",
          "type": "uint256"
        },
        {
          "internalType": "uint80",
          "name": "cycle",
          "type": "uint80"
        }
      ],
      "name": "getPriceBoundries",
      "outputs": [
        {
          "internalType": "uint256",
          "name": "UPPER",
          "type": "uint256"
        },
        {
          "internalType": "uint256",
          "name": "LOWER",
          "type": "uint256"
        }
      ],
      "stateMutability": "view",
      "type": "function",
      "constant": true
    },
    {
      "inputs": [
        {
          "internalType": "uint256",
          "name": "_i",
          "type": "uint256"
        },
        {
          "internalType": "uint80",
          "name": "_cycle",
          "type": "uint80"
        }
      ],
      "name": "getPriceStatus",
      "outputs": [
        {
          "internalType": "enum PredictionCore.Status",
          "name": "",
          "type": "uint8"
        }
      ],
      "stateMutability": "view",
      "type": "function",
      "constant": true
    },
    {
      "inputs": [
        {
          "internalType": "uint256",
          "name": "_i",
          "type": "uint256"
        },
        {
          "internalType": "uint80",
          "name": "round",
          "type": "uint80"
        }
      ],
      "name": "getRoundPrice",
      "outputs": [
        {
          "internalType": "uint256",
          "name": "",
          "type": "uint256"
        }
      ],
      "stateMutability": "view",
      "type": "function",
      "constant": true
    },
    {
      "inputs": [
        {
          "internalType": "uint256",
          "name": "_i",
          "type": "uint256"
        },
        {
          "internalType": "uint80",
          "name": "round",
          "type": "uint80"
        }
      ],
      "name": "getTimestamp",
      "outputs": [
        {
          "internalType": "uint256",
          "name": "",
          "type": "uint256"
        }
      ],
      "stateMutability": "view",
      "type": "function",
      "constant": true
    },
    {
      "inputs": [
        {
          "internalType": "uint256",
          "name": "_i",
          "type": "uint256"
        }
      ],
      "name": "isPriceLocked",
      "outputs": [
        {
          "internalType": "bool",
          "name": "",
          "type": "bool"
        }
      ],
      "stateMutability": "view",
      "type": "function",
      "constant": true
    },
    {
      "inputs": [],
      "name": "owner",
      "outputs": [
        {
          "internalType": "address",
          "name": "",
          "type": "address"
        }
      ],
      "stateMutability": "view",
      "type": "function",
      "constant": true
    },
    {
      "inputs": [
        {
          "internalType": "address",
          "name": "newOwner",
          "type": "address"
        }
      ],
      "name": "transferOwnership",
      "outputs": [],
      "stateMutability": "nonpayable",
      "type": "function"
    },
    {
      "inputs": [
        {
          "internalType": "address",
          "name": "token",
          "type": "address"
        },
        {
          "internalType": "uint80",
          "name": "_startingRound",
          "type": "uint80"
        }
      ],
      "name": "addToken",
      "outputs": [],
      "stateMutability": "nonpayable",
      "type": "function"
    },
    {
      "inputs": [
        {
          "internalType": "address[]",
          "name": "token",
          "type": "address[]"
        },
        {
          "internalType": "uint80[]",
          "name": "_startingRound",
          "type": "uint80[]"
        }
      ],
      "name": "addArrayToken",
      "outputs": [],
      "stateMutability": "nonpayable",
      "type": "function"
    },
    {
      "inputs": [
        {
          "internalType": "uint256",
          "name": "_i",
          "type": "uint256"
        },
        {
          "internalType": "uint256",
          "name": "amount",
          "type": "uint256"
        },
        {
          "internalType": "bool",
          "name": "position",
          "type": "bool"
        }
      ],
      "name": "bid",
      "outputs": [],
      "stateMutability": "nonpayable",
      "type": "function"
    },
    {
      "inputs": [
        {
          "internalType": "uint256",
          "name": "_i",
          "type": "uint256"
        },
        {
          "internalType": "uint80",
          "name": "_cycle",
          "type": "uint80"
        }
      ],
      "name": "withdraw",
      "outputs": [],
      "stateMutability": "nonpayable",
      "type": "function"
    }
  ],
  "bytecode": "0x6080604052600060015573a0228a6c2e57a3fcaae1d12f33bf478e42ef9a49600360006101000a81548173ffffffffffffffffffffffffffffffffffffffff021916908373ffffffffffffffffffffffffffffffffffffffff1602179055503480156200006b57600080fd5b5060006200007e620002c960201b60201c565b9050806000806101000a81548173ffffffffffffffffffffffffffffffffffffffff021916908373ffffffffffffffffffffffffffffffffffffffff1602179055508073ffffffffffffffffffffffffffffffffffffffff16600073ffffffffffffffffffffffffffffffffffffffff167f8be0079c531659141344cd1fd0a4f28419497f9722a3daafe3b4186f6b6457e060405160405180910390a3506200014b738a753747a1fa494ec906ce90e9f37563a8af630e68020000000000000044620002d160201b60201c565b6200017a73ece365b379e1dd183b20fc5f022230c044d5140468020000000000000044620002d160201b60201c565b620001a973cf0f51ca2cdaecb464eee4227f5295f2384f84ed68020000000000000044620002d160201b60201c565b620001d873d8bd0a1cb028a31aa859a21a3758685a95de462368020000000000000044620002d160201b60201c565b6200020773031db56e01f82f20803059331dc6bee9b17f7fc968020000000000000044620002d160201b60201c565b6200023673b29f616a0d54ff292e997922fff46012a63e2fae68020000000000000044620002d160201b60201c565b6200026573f7bbe4d7d13d600127b6aa132f1dcea301e9c8fc68020000000000000044620002d160201b60201c565b6200029473f57fca8b932c43dfe560d3274262b2597bcd2e5a68020000000000000044620002d160201b60201c565b620002c373c3e76f41caba4ab38f00c7255d4df663da02a02468020000000000000044620002d160201b60201c565b6200053d565b600033905090565b620002e1620002c960201b60201c565b73ffffffffffffffffffffffffffffffffffffffff16620003076200041860201b60201c565b73ffffffffffffffffffffffffffffffffffffffff161462000360576040517f08c379a0000000000000000000000000000000000000000000000000000000008152600401620003579062000483565b60405180910390fd5b8160026000600154815260200190815260200160002060030160006101000a81548173ffffffffffffffffffffffffffffffffffffffff021916908373ffffffffffffffffffffffffffffffffffffffff1602179055508060026000600154815260200190815260200160002060000160006101000a81548169ffffffffffffffffffff021916908369ffffffffffffffffffff160217905550600160008154809291906200040f90620004c0565b91905055505050565b60008060009054906101000a900473ffffffffffffffffffffffffffffffffffffffff16905090565b600062000450602083620004a5565b91507f4f776e61626c653a2063616c6c6572206973206e6f7420746865206f776e65726000830152602082019050919050565b600060208201905081810360008301526200049e8162000441565b9050919050565b600082825260208201905092915050565b6000819050919050565b6000620004cd82620004b6565b91507fffffffffffffffffffffffffffffffffffffffffffffffffffffffffffffffff8214156200050357620005026200050e565b5b600182019050919050565b7f4e487b7100000000000000000000000000000000000000000000000000000000600052601160045260246000fd5b6146ca806200054d6000396000f3fe608060405234801561001057600080fd5b506004361061010b5760003560e01c8063996d7e7e116100a2578063bdf391cc11610071578063bdf391cc146102ee578063c55e43781461031e578063dd52be741461034e578063f2fde38b1461037e578063fd2286711461039a5761010b565b8063996d7e7e14610242578063b708d89b14610272578063b72e82681461028e578063b94fe917146102be5761010b565b80635753d127116100de5780635753d127146101bc57806358120259146101d85780638da5cb5b146102085780639064ae7c146102265761010b565b806323c28e1e1461011057806323e3fac61461012c5780632ea415ee1461015c57806350295ffd1461018c575b600080fd5b61012a60048036038101906101259190613020565b6103cb565b005b610146600480360381019061014191906131dc565b6104fd565b6040516101539190613f7c565b60405180910390f35b610176600480360381019061017191906131dc565b610655565b6040516101839190613c44565b60405180910390f35b6101a660048036038101906101a1919061313b565b6106e0565b6040516101b39190613fdb565b60405180910390f35b6101d660048036038101906101d191906131dc565b6108cf565b005b6101f260048036038101906101ed91906131dc565b610f24565b6040516101ff9190613c5f565b60405180910390f35b610210611273565b60405161021d9190613b7e565b60405180910390f35b610240600480360381019061023b919061318d565b61129c565b005b61025c6004803603810190610257919061313b565b611ae9565b6040516102699190613c22565b60405180910390f35b61028c6004803603810190610287919061305c565b611b94565b005b6102a860048036038101906102a3919061313b565b611db2565b6040516102b59190613c44565b60405180910390f35b6102d860048036038101906102d3919061313b565b611e6a565b6040516102e59190613f7c565b60405180910390f35b6103086004803603810190610303919061313b565b611f40565b6040516103159190613c7a565b60405180910390f35b610338600480360381019061033391906131dc565b612048565b6040516103459190613f7c565b60405180910390f35b6103686004803603810190610363919061313b565b6121c0565b6040516103759190613fdb565b60405180910390f35b61039860048036038101906103939190612ff7565b6122e8565b005b6103b460048036038101906103af91906131dc565b612491565b6040516103c2929190613f97565b60405180910390f35b6103d3612637565b73ffffffffffffffffffffffffffffffffffffffff166103f1611273565b73ffffffffffffffffffffffffffffffffffffffff1614610447576040517f08c379a000000000000000000000000000000000000000000000000000000000815260040161043e90613dbc565b60405180910390fd5b8160026000600154815260200190815260200160002060030160006101000a81548173ffffffffffffffffffffffffffffffffffffffff021916908373ffffffffffffffffffffffffffffffffffffffff1602179055508060026000600154815260200190815260200160002060000160006101000a81548169ffffffffffffffffffff021916908369ffffffffffffffffffff160217905550600160008154809291906104f490614493565b91905055505050565b6000828060015411610544576040517f08c379a000000000000000000000000000000000000000000000000000000000815260040161053b90613d3c565b60405180910390fd5b60006002600086815260200190815260200160002060030160009054906101000a900473ffffffffffffffffffffffffffffffffffffffff1673ffffffffffffffffffffffffffffffffffffffff1663b633620c856040518263ffffffff1660e01b81526004016105b59190613fc0565b60206040518083038186803b1580156105cd57600080fd5b505afa1580156105e1573d6000803e3d6000fd5b505050506040513d601f19601f820116820180604052508101906106059190613164565b90506000811161064a576040517f08c379a000000000000000000000000000000000000000000000000000000000815260040161064190613cdc565b60405180910390fd5b809250505092915050565b60006002600084815260200190815260200160002060020160008369ffffffffffffffffffff16815260200190815260200160002060020160003373ffffffffffffffffffffffffffffffffffffffff1673ffffffffffffffffffffffffffffffffffffffff16815260200190815260200160002060009054906101000a900460ff16905092915050565b6000818060015411610727576040517f08c379a000000000000000000000000000000000000000000000000000000000815260040161071e90613d3c565b60405180910390fd5b6000610732846121c0565b905060006002600086815260200190815260200160002060030160009054906101000a900473ffffffffffffffffffffffffffffffffffffffff1673ffffffffffffffffffffffffffffffffffffffff1663feaf968c6040518163ffffffff1660e01b815260040160a06040518083038186803b1580156107b257600080fd5b505afa1580156107c6573d6000803e3d6000fd5b505050506040513d601f19601f820116820180604052508101906107ea9190613241565b50505050905060006107fc86836104fd565b1161083c576040517f08c379a000000000000000000000000000000000000000000000000000000000815260040161083390613f3c565b60405180910390fd5b60006108c160016108a761088c61086960328869ffffffffffffffffffff1661263f90919063ffffffff16565b6108728b612655565b69ffffffffffffffffffff1661268b90919063ffffffff16565b8569ffffffffffffffffffff166126a190919063ffffffff16565b69ffffffffffffffffffff1661268b90919063ffffffff16565b905080945050505050919050565b818060015411610914576040517f08c379a000000000000000000000000000000000000000000000000000000000815260040161090b90613d3c565b60405180910390fd5b82828069ffffffffffffffffffff1661092c836121c0565b69ffffffffffffffffffff161015610979576040517f08c379a000000000000000000000000000000000000000000000000000000000815260040161097090613d1c565b60405180910390fd5b600061098586866126b7565b905060006109938787612735565b905060006109a18888610f24565b9050600060038111156109dd577f4e487b7100000000000000000000000000000000000000000000000000000000600052602160045260246000fd5b816003811115610a16577f4e487b7100000000000000000000000000000000000000000000000000000000600052602160045260246000fd5b1415610a57576040517f08c379a0000000000000000000000000000000000000000000000000000000008152600401610a4e90613d5c565b60405180910390fd5b600083141580610a68575060008214155b610aa7576040517f08c379a0000000000000000000000000000000000000000000000000000000008152600401610a9e90613f1c565b60405180910390fd5b610ab0886121c0565b69ffffffffffffffffffff168769ffffffffffffffffffff1610610b09576040517f08c379a0000000000000000000000000000000000000000000000000000000008152600401610b0090613c9c565b60405180910390fd5b60001515600260008a815260200190815260200160002060020160008969ffffffffffffffffffff16815260200190815260200160002060020160003373ffffffffffffffffffffffffffffffffffffffff1673ffffffffffffffffffffffffffffffffffffffff16815260200190815260200160002060009054906101000a900460ff16151514610bd0576040517f08c379a0000000000000000000000000000000000000000000000000000000008152600401610bc790613d9c565b60405180910390fd5b600080600080861115610be557859250610bf3565b6000851115610bf2578492505b5b60016003811115610c2d577f4e487b7100000000000000000000000000000000000000000000000000000000600052602160045260246000fd5b846003811115610c66577f4e487b7100000000000000000000000000000000000000000000000000000000600052602160045260246000fd5b14610d3f576000861115610c7d5760029050610c8c565b6000851115610c8b57600390505b5b806003811115610cc5577f4e487b7100000000000000000000000000000000000000000000000000000000600052602160045260246000fd5b846003811115610cfe577f4e487b7100000000000000000000000000000000000000000000000000000000600052602160045260246000fd5b14610d3e576040517f08c379a0000000000000000000000000000000000000000000000000000000008152600401610d3590613efc565b60405180910390fd5b5b60016003811115610d79577f4e487b7100000000000000000000000000000000000000000000000000000000600052602160045260246000fd5b846003811115610db2577f4e487b7100000000000000000000000000000000000000000000000000000000600052602160045260246000fd5b1415610dc857610dc38b8b856127b3565b610f17565b60026003811115610e02577f4e487b7100000000000000000000000000000000000000000000000000000000600052602160045260246000fd5b846003811115610e3b577f4e487b7100000000000000000000000000000000000000000000000000000000600052602160045260246000fd5b1415610e7157610e5f610e508c8c60016128f4565b84612a1790919063ffffffff16565b9150610e6c8b8b846127b3565b610f16565b600380811115610eaa577f4e487b7100000000000000000000000000000000000000000000000000000000600052602160045260246000fd5b846003811115610ee3577f4e487b7100000000000000000000000000000000000000000000000000000000600052602160045260246000fd5b1415610f1557610f07610ef88c8c60006128f4565b84612a1790919063ffffffff16565b9150610f148b8b846127b3565b5b5b5b5050505050505050505050565b600082828069ffffffffffffffffffff16610f3e836121c0565b69ffffffffffffffffffff161015610f8b576040517f08c379a0000000000000000000000000000000000000000000000000000000008152600401610f8290613d1c565b60405180910390fd5b848060015411610fd0576040517f08c379a0000000000000000000000000000000000000000000000000000000008152600401610fc790613d3c565b60405180910390fd5b8469ffffffffffffffffffff16610fe6876121c0565b69ffffffffffffffffffff161015611033576040517f08c379a000000000000000000000000000000000000000000000000000000000815260040161102a90613d1c565b60405180910390fd5b60006110686032876110459190614315565b61104e89612655565b69ffffffffffffffffffff1661268b90919063ffffffff16565b9050600061107688836104fd565b116110b6576040517f08c379a00000000000000000000000000000000000000000000000000000000081526004016110ad90613e3c565b60405180910390fd5b6000806110d960328469ffffffffffffffffffff1661268b90919063ffffffff16565b90506000806110e88b8b612491565b9150915060008590505b8369ffffffffffffffffffff168169ffffffffffffffffffff16116111b8578069ffffffffffffffffffff1661115d600260008f815260200190815260200160002060030160009054906101000a900473ffffffffffffffffffffffffffffffffffffffff16612a2d565b69ffffffffffffffffffff161015611174576111b8565b60006111808d83612048565b90508381106111935760029550506111b8565b8281116111a45760039550506111b8565b5080806111b0906144dc565b9150506110f2565b50600060038111156111f3577f4e487b7100000000000000000000000000000000000000000000000000000000600052602160045260246000fd5b84600381111561122c577f4e487b7100000000000000000000000000000000000000000000000000000000600052602160045260246000fd5b14801561125857508969ffffffffffffffffffff1661124a8c6121c0565b69ffffffffffffffffffff16115b1561126257600193505b839850505050505050505092915050565b60008060009054906101000a900473ffffffffffffffffffffffffffffffffffffffff16905090565b8280600154116112e1576040517f08c379a00000000000000000000000000000000000000000000000000000000081526004016112d890613d3c565b60405180910390fd5b60006112ec856121c0565b905060006002600087815260200190815260200160002060010160003373ffffffffffffffffffffffffffffffffffffffff1673ffffffffffffffffffffffffffffffffffffffff16815260200190815260200160002080548060200260200160405190810160405280929190818152602001828054801561138d57602002820191906000526020600020905b815481526020019060010190808311611379575b50505050509050678ac7230489e800008510156113df576040517f08c379a00000000000000000000000000000000000000000000000000000000081526004016113d690613d7c565b60405180910390fd5b60006003811115611419577f4e487b7100000000000000000000000000000000000000000000000000000000600052602160045260246000fd5b6114238784610f24565b600381111561145b577f4e487b7100000000000000000000000000000000000000000000000000000000600052602160045260246000fd5b1461149b576040517f08c379a000000000000000000000000000000000000000000000000000000000815260040161149290613e7c565b60405180910390fd5b6114a486611db2565b6114e3576040517f08c379a00000000000000000000000000000000000000000000000000000000081526004016114da90613e1c565b60405180910390fd5b83156117e75760006114f58784612735565b14611535576040517f08c379a000000000000000000000000000000000000000000000000000000000815260040161152c90613dfc565b60405180910390fd5b61153e85612abd565b846002600088815260200190815260200160002060020160008469ffffffffffffffffffff16815260200190815260200160002060030160003373ffffffffffffffffffffffffffffffffffffffff1673ffffffffffffffffffffffffffffffffffffffff16815260200190815260200160002060008282546115c191906140ac565b92505081905550846002600088815260200190815260200160002060020160008469ffffffffffffffffffff168152602001908152602001600020600001600082825461160e91906140ac565b92505081905550600081511461170a578169ffffffffffffffffffff16816001835161163a9190614359565b81518110611671577f4e487b7100000000000000000000000000000000000000000000000000000000600052603260045260246000fd5b602002602001015114611705576002600087815260200190815260200160002060010160003373ffffffffffffffffffffffffffffffffffffffff1673ffffffffffffffffffffffffffffffffffffffff16815260200190815260200160002082908060018154018082558091505060019003906000526020600020016000909169ffffffffffffffffffff169091909150555b611791565b6002600087815260200190815260200160002060010160003373ffffffffffffffffffffffffffffffffffffffff1673ffffffffffffffffffffffffffffffffffffffff16815260200190815260200160002082908060018154018082558091505060019003906000526020600020016000909169ffffffffffffffffffff169091909150555b3373ffffffffffffffffffffffffffffffffffffffff168415157fa89390d693ebba42ccf5b92171b71bf8fbc504cd4c431c6ebfff6f3887f68047876040516117da9190613f7c565b60405180910390a3611ae1565b60006117f387846126b7565b14611833576040517f08c379a000000000000000000000000000000000000000000000000000000000815260040161182a90613ebc565b60405180910390fd5b61183c85612abd565b846002600088815260200190815260200160002060020160008469ffffffffffffffffffff16815260200190815260200160002060040160003373ffffffffffffffffffffffffffffffffffffffff1673ffffffffffffffffffffffffffffffffffffffff16815260200190815260200160002060008282546118bf91906140ac565b92505081905550846002600088815260200190815260200160002060020160008469ffffffffffffffffffff168152602001908152602001600020600101600082825461190c91906140ac565b925050819055506000815114611a08578169ffffffffffffffffffff1681600183516119389190614359565b8151811061196f577f4e487b7100000000000000000000000000000000000000000000000000000000600052603260045260246000fd5b602002602001015114611a03576002600087815260200190815260200160002060010160003373ffffffffffffffffffffffffffffffffffffffff1673ffffffffffffffffffffffffffffffffffffffff16815260200190815260200160002082908060018154018082558091505060019003906000526020600020016000909169ffffffffffffffffffff169091909150555b611a8f565b6002600087815260200190815260200160002060010160003373ffffffffffffffffffffffffffffffffffffffff1673ffffffffffffffffffffffffffffffffffffffff16815260200190815260200160002082908060018154018082558091505060019003906000526020600020016000909169ffffffffffffffffffff169091909150555b3373ffffffffffffffffffffffffffffffffffffffff168415157fa89390d693ebba42ccf5b92171b71bf8fbc504cd4c431c6ebfff6f3887f6804787604051611ad89190613f7c565b60405180910390a35b505050505050565b60606002600083815260200190815260200160002060010160003373ffffffffffffffffffffffffffffffffffffffff1673ffffffffffffffffffffffffffffffffffffffff168152602001908152602001600020805480602002602001604051908101604052809291908181526020018280548015611b8857602002820191906000526020600020905b815481526020019060010190808311611b74575b50505050509050919050565b611b9c612637565b73ffffffffffffffffffffffffffffffffffffffff16611bba611273565b73ffffffffffffffffffffffffffffffffffffffff1614611c10576040517f08c379a0000000000000000000000000000000000000000000000000000000008152600401611c0790613dbc565b60405180910390fd5b6000848490501415611c57576040517f08c379a0000000000000000000000000000000000000000000000000000000008152600401611c4e90613e9c565b60405180910390fd5b6000828290501415611c9e576040517f08c379a0000000000000000000000000000000000000000000000000000000008152600401611c9590613e9c565b60405180910390fd5b818190508484905014611ce6576040517f08c379a0000000000000000000000000000000000000000000000000000000008152600401611cdd90613cbc565b60405180910390fd5b60005b84849050811015611dab57611d98858583818110611d30577f4e487b7100000000000000000000000000000000000000000000000000000000600052603260045260246000fd5b9050602002016020810190611d459190612ff7565b848484818110611d7e577f4e487b7100000000000000000000000000000000000000000000000000000000600052603260045260246000fd5b9050602002016020810190611d939190613218565b6103cb565b8080611da390614493565b915050611ce9565b5050505050565b6000806000611dc984611dc4866121c0565b612491565b915091506000611dd885611e6a565b9050611e13611e046064611df6600287612d6390919063ffffffff16565b612d7990919063ffffffff16565b84612d8f90919063ffffffff16565b9250611e4e611e3f6064611e31600286612d6390919063ffffffff16565b612d7990919063ffffffff16565b83612a1790919063ffffffff16565b9150828111158015611e605750818110155b9350505050919050565b6000806002600084815260200190815260200160002060030160009054906101000a900473ffffffffffffffffffffffffffffffffffffffff1673ffffffffffffffffffffffffffffffffffffffff1663feaf968c6040518163ffffffff1660e01b815260040160a06040518083038186803b158015611ee957600080fd5b505afa158015611efd573d6000803e3d6000fd5b505050506040513d601f19601f82011682018060405250810190611f219190613241565b5050509150506402540be40081611f3891906142bb565b915050919050565b6060818060015411611f87576040517f08c379a0000000000000000000000000000000000000000000000000000000008152600401611f7e90613d3c565b60405180910390fd5b6002600084815260200190815260200160002060030160009054906101000a900473ffffffffffffffffffffffffffffffffffffffff1673ffffffffffffffffffffffffffffffffffffffff16637284e4166040518163ffffffff1660e01b815260040160006040518083038186803b15801561200357600080fd5b505afa158015612017573d6000803e3d6000fd5b505050506040513d6000823e3d601f19601f8201168201806040525081019061204091906130fa565b915050919050565b600082806001541161208f576040517f08c379a000000000000000000000000000000000000000000000000000000000815260040161208690613d3c565b60405180910390fd5b6000806002600087815260200190815260200160002060030160009054906101000a900473ffffffffffffffffffffffffffffffffffffffff1673ffffffffffffffffffffffffffffffffffffffff16639a6fc8f5866040518263ffffffff1660e01b81526004016121019190613fdb565b60a06040518083038186803b15801561211957600080fd5b505afa15801561212d573d6000803e3d6000fd5b505050506040513d601f19601f820116820180604052508101906121519190613241565b50505091509150600061216487846104fd565b116121a4576040517f08c379a000000000000000000000000000000000000000000000000000000000815260040161219b90613edc565b60405180910390fd5b6402540be400816121b591906141a4565b935050505092915050565b6000818060015411612207576040517f08c379a00000000000000000000000000000000000000000000000000000000081526004016121fe90613d3c565b60405180910390fd5b600061226e61221585612655565b6122546002600088815260200190815260200160002060030160009054906101000a900473ffffffffffffffffffffffffffffffffffffffff16612a2d565b69ffffffffffffffffffff166126a190919063ffffffff16565b905060006122cf60326122b561229a60328669ffffffffffffffffffff16612da590919063ffffffff16565b8569ffffffffffffffffffff166126a190919063ffffffff16565b69ffffffffffffffffffff16612dbb90919063ffffffff16565b69ffffffffffffffffffff169050809350505050919050565b6122f0612637565b73ffffffffffffffffffffffffffffffffffffffff1661230e611273565b73ffffffffffffffffffffffffffffffffffffffff1614612364576040517f08c379a000000000000000000000000000000000000000000000000000000000815260040161235b90613dbc565b60405180910390fd5b600073ffffffffffffffffffffffffffffffffffffffff168173ffffffffffffffffffffffffffffffffffffffff1614156123d4576040517f08c379a00000000000000000000000000000000000000000000000000000000081526004016123cb90613cfc565b60405180910390fd5b8073ffffffffffffffffffffffffffffffffffffffff1660008054906101000a900473ffffffffffffffffffffffffffffffffffffffff1673ffffffffffffffffffffffffffffffffffffffff167f8be0079c531659141344cd1fd0a4f28419497f9722a3daafe3b4186f6b6457e060405160405180910390a3806000806101000a81548173ffffffffffffffffffffffffffffffffffffffff021916908373ffffffffffffffffffffffffffffffffffffffff16021790555050565b6000808380600154116124d9576040517f08c379a00000000000000000000000000000000000000000000000000000000081526004016124d090613d3c565b60405180910390fd5b8369ffffffffffffffffffff166124ef866121c0565b69ffffffffffffffffffff16101561253c576040517f08c379a000000000000000000000000000000000000000000000000000000000815260040161253390613d1c565b60405180910390fd5b600061258461256160328769ffffffffffffffffffff1661263f90919063ffffffff16565b61256a88612655565b69ffffffffffffffffffff1661268b90919063ffffffff16565b905060006125928783612048565b905060006125bd60646125af600685612d6390919063ffffffff16565b612d7990919063ffffffff16565b905060008211612602576040517f08c379a00000000000000000000000000000000000000000000000000000000081526004016125f990613e5c565b60405180910390fd5b6126158183612a1790919063ffffffff16565b955061262a8183612d8f90919063ffffffff16565b9450505050509250929050565b600033905090565b6000818361264d9190614315565b905092915050565b60006002600083815260200190815260200160002060000160009054906101000a900469ffffffffffffffffffff169050919050565b600081836126999190614102565b905092915050565b600081836126af919061438d565b905092915050565b60006002600084815260200190815260200160002060020160008369ffffffffffffffffffff16815260200190815260200160002060030160003373ffffffffffffffffffffffffffffffffffffffff1673ffffffffffffffffffffffffffffffffffffffff16815260200190815260200160002054905092915050565b60006002600084815260200190815260200160002060020160008369ffffffffffffffffffff16815260200190815260200160002060040160003373ffffffffffffffffffffffffffffffffffffffff1673ffffffffffffffffffffffffffffffffffffffff16815260200190815260200160002054905092915050565b60016002600085815260200190815260200160002060020160008469ffffffffffffffffffff16815260200190815260200160002060020160003373ffffffffffffffffffffffffffffffffffffffff1673ffffffffffffffffffffffffffffffffffffffff16815260200190815260200160002060006101000a81548160ff021916908315150217905550600360009054906101000a900473ffffffffffffffffffffffffffffffffffffffff1673ffffffffffffffffffffffffffffffffffffffff1663a9059cbb33836040518363ffffffff1660e01b815260040161289c929190613bf9565b602060405180830381600087803b1580156128b657600080fd5b505af11580156128ca573d6000803e3d6000fd5b505050506040513d601f19601f820116820180604052508101906128ee91906130d1565b50505050565b600080600080600085156129895761290c8888612dd1565b935061291888886126b7565b905061294784612939670de0b6b3a764000084612d6390919063ffffffff16565b612d7990919063ffffffff16565b91506129538888612e12565b9250612982670de0b6b3a76400006129748486612d6390919063ffffffff16565b612d7990919063ffffffff16565b9450612a0c565b6129938888612e12565b935061299f8888612735565b90506129ce846129c0670de0b6b3a764000084612d6390919063ffffffff16565b612d7990919063ffffffff16565b91506129da8888612dd1565b9250612a09670de0b6b3a76400006129fb8486612d6390919063ffffffff16565b612d7990919063ffffffff16565b94505b505050509392505050565b60008183612a2591906140ac565b905092915050565b6000808273ffffffffffffffffffffffffffffffffffffffff1663feaf968c6040518163ffffffff1660e01b815260040160a06040518083038186803b158015612a7657600080fd5b505afa158015612a8a573d6000803e3d6000fd5b505050506040513d601f19601f82011682018060405250810190612aae9190613241565b50505050905080915050919050565b80600360009054906101000a900473ffffffffffffffffffffffffffffffffffffffff1673ffffffffffffffffffffffffffffffffffffffff166370a08231612b04612637565b6040518263ffffffff1660e01b8152600401612b209190613b7e565b60206040518083038186803b158015612b3857600080fd5b505afa158015612b4c573d6000803e3d6000fd5b505050506040513d601f19601f82011682018060405250810190612b709190613164565b1015612bb1576040517f08c379a0000000000000000000000000000000000000000000000000000000008152600401612ba890613ddc565b60405180910390fd5b80600360009054906101000a900473ffffffffffffffffffffffffffffffffffffffff1673ffffffffffffffffffffffffffffffffffffffff1663dd62ed3e612bf8612637565b306040518363ffffffff1660e01b8152600401612c16929190613b99565b60206040518083038186803b158015612c2e57600080fd5b505afa158015612c42573d6000803e3d6000fd5b505050506040513d601f19601f82011682018060405250810190612c669190613164565b1015612ca7576040517f08c379a0000000000000000000000000000000000000000000000000000000008152600401612c9e90613f5c565b60405180910390fd5b600360009054906101000a900473ffffffffffffffffffffffffffffffffffffffff1673ffffffffffffffffffffffffffffffffffffffff166323b872dd612ced612637565b30846040518463ffffffff1660e01b8152600401612d0d93929190613bc2565b602060405180830381600087803b158015612d2757600080fd5b505af1158015612d3b573d6000803e3d6000fd5b505050506040513d601f19601f82011682018060405250810190612d5f91906130d1565b5050565b60008183612d7191906142bb565b905092915050565b60008183612d879190614142565b905092915050565b60008183612d9d9190614359565b905092915050565b60008183612db3919061450f565b905092915050565b60008183612dc99190614173565b905092915050565b60006002600084815260200190815260200160002060020160008369ffffffffffffffffffff16815260200190815260200160002060000154905092915050565b60006002600084815260200190815260200160002060020160008369ffffffffffffffffffff16815260200190815260200160002060010154905092915050565b6000612e66612e6184614027565b613ff6565b905082815260208101848484011115612e7e57600080fd5b612e89848285614460565b509392505050565b600081359050612ea081614621565b92915050565b60008083601f840112612eb857600080fd5b8235905067ffffffffffffffff811115612ed157600080fd5b602083019150836020820283011115612ee957600080fd5b9250929050565b60008083601f840112612f0257600080fd5b8235905067ffffffffffffffff811115612f1b57600080fd5b602083019150836020820283011115612f3357600080fd5b9250929050565b600081359050612f4981614638565b92915050565b600081519050612f5e81614638565b92915050565b600081519050612f738161464f565b92915050565b600082601f830112612f8a57600080fd5b8151612f9a848260208601612e53565b91505092915050565b600081359050612fb281614666565b92915050565b600081519050612fc781614666565b92915050565b600081359050612fdc8161467d565b92915050565b600081519050612ff18161467d565b92915050565b60006020828403121561300957600080fd5b600061301784828501612e91565b91505092915050565b6000806040838503121561303357600080fd5b600061304185828601612e91565b925050602061305285828601612fcd565b9150509250929050565b6000806000806040858703121561307257600080fd5b600085013567ffffffffffffffff81111561308c57600080fd5b61309887828801612ea6565b9450945050602085013567ffffffffffffffff8111156130b757600080fd5b6130c387828801612ef0565b925092505092959194509250565b6000602082840312156130e357600080fd5b60006130f184828501612f4f565b91505092915050565b60006020828403121561310c57600080fd5b600082015167ffffffffffffffff81111561312657600080fd5b61313284828501612f79565b91505092915050565b60006020828403121561314d57600080fd5b600061315b84828501612fa3565b91505092915050565b60006020828403121561317657600080fd5b600061318484828501612fb8565b91505092915050565b6000806000606084860312156131a257600080fd5b60006131b086828701612fa3565b93505060206131c186828701612fa3565b92505060406131d286828701612f3a565b9150509250925092565b600080604083850312156131ef57600080fd5b60006131fd85828601612fa3565b925050602061320e85828601612fcd565b9150509250929050565b60006020828403121561322a57600080fd5b600061323884828501612fcd565b91505092915050565b600080600080600060a0868803121561325957600080fd5b600061326788828901612fe2565b955050602061327888828901612f64565b945050604061328988828901612fb8565b935050606061329a88828901612fb8565b92505060806132ab88828901612fe2565b9150509295509295909350565b60006132c48383613b42565b60208301905092915050565b6132d9816143c1565b82525050565b60006132ea82614067565b6132f4818561408a565b93506132ff83614057565b8060005b8381101561333057815161331788826132b8565b97506133228361407d565b925050600181019050613303565b5085935050505092915050565b613346816143d3565b82525050565b6133558161443c565b82525050565b600061336682614072565b613370818561409b565b9350613380818560208601614460565b613389816145fc565b840191505092915050565b60006133a160378361409b565b91507f4a41434b504f5420535452494b453a205769746864726177204973204163746960008301527f7665204166746572204379636c65204973204f766572210000000000000000006020830152604082019050919050565b600061340760128361409b565b91507f756e657175616c2061727261792073697a6500000000000000000000000000006000830152602082019050919050565b6000613447601d8361409b565b91507f4a41434b504f5420535452494b453a20496e76616c696420526f756e640000006000830152602082019050919050565b600061348760268361409b565b91507f4f776e61626c653a206e6577206f776e657220697320746865207a65726f206160008301527f64647265737300000000000000000000000000000000000000000000000000006020830152604082019050919050565b60006134ed601d8361409b565b91507f4a41434b504f5420535452494b453a20496e76616c6964204379636c650000006000830152602082019050919050565b600061352d601d8361409b565b91507f4a41434b504f5420535452494b453a20496e76616c69642046656564200000006000830152602082019050919050565b600061356d60258361409b565b91507f4a41434b504f5420535452494b453a204379636c6520497320496e2050726f6760008301527f72657373210000000000000000000000000000000000000000000000000000006020830152604082019050919050565b60006135d3602d8361409b565b91507f4a41434b504f5420535452494b453a2042696464696e6720416d6f756e74204d60008301527f757374204265203e3d20313024000000000000000000000000000000000000006020830152604082019050919050565b6000613639602a8361409b565b91507f4a41434b504f5420535452494b453a2046756e64732048617665204265656e2060008301527f57697468647261776e21000000000000000000000000000000000000000000006020830152604082019050919050565b600061369f60208361409b565b91507f4f776e61626c653a2063616c6c6572206973206e6f7420746865206f776e65726000830152602082019050919050565b60006136df60148361409b565b91507f696e73756666696369656e742062616c616e63650000000000000000000000006000830152602082019050919050565b600061371f602b8361409b565b91507f4a41434b504f5420535452494b453a2053686f727420506f736974696f6e204960008301527f7320496e20506c616365210000000000000000000000000000000000000000006020830152604082019050919050565b600061378560248361409b565b91507f4a41434b504f5420535452494b453a205072696365204c6f636b65642052726160008301527f6e676521000000000000000000000000000000000000000000000000000000006020830152604082019050919050565b60006137eb601d8361409b565b91507f4a41434b504f5420535452494b453a20696e76616c696420526f756e640000006000830152602082019050919050565b600061382b60208361409b565b91507f4a41434b504f5420535452494b453a205072696365204e6f74204665656465646000830152602082019050919050565b600061386b602a8361409b565b91507f4a41434b504f5420535452494b453a204379636c6520486173204265656e204460008301527f657465726d696e656421000000000000000000000000000000000000000000006020830152604082019050919050565b60006138d1600e8361409b565b91507f617272617920697320656d7074790000000000000000000000000000000000006000830152602082019050919050565b6000613911602a8361409b565b91507f4a41434b504f5420535452494b453a204c6f6e6720506f736974696f6e20497360008301527f20496e20506c61636521000000000000000000000000000000000000000000006020830152604082019050919050565b600061397760238361409b565b91507f4a41434b504f5420535452494b453a205072696365204e6f7420417661696c6160008301527f626c6500000000000000000000000000000000000000000000000000000000006020830152604082019050919050565b60006139dd60298361409b565b91507f4a41434b504f5420535452494b453a20596f752048617665204265656e204c6960008301527f71756964617465642100000000000000000000000000000000000000000000006020830152604082019050919050565b6000613a4360248361409b565b91507f4a41434b504f5420535452494b453a20496e76616c696420706172746963697060008301527f616e7421000000000000000000000000000000000000000000000000000000006020830152604082019050919050565b6000613aa960238361409b565b91507f4a41434b504f5420535452494b453a20526f756e64204e6f7420417661696c6160008301527f626c6500000000000000000000000000000000000000000000000000000000006020830152604082019050919050565b6000613b0f60168361409b565b91507f756e617070726f766564207472616e73616374696f6e000000000000000000006000830152602082019050919050565b613b4b8161441c565b82525050565b613b5a8161441c565b82525050565b613b698161444e565b82525050565b613b7881614426565b82525050565b6000602082019050613b9360008301846132d0565b92915050565b6000604082019050613bae60008301856132d0565b613bbb60208301846132d0565b9392505050565b6000606082019050613bd760008301866132d0565b613be460208301856132d0565b613bf16040830184613b51565b949350505050565b6000604082019050613c0e60008301856132d0565b613c1b6020830184613b51565b9392505050565b60006020820190508181036000830152613c3c81846132df565b905092915050565b6000602082019050613c59600083018461333d565b92915050565b6000602082019050613c74600083018461334c565b92915050565b60006020820190508181036000830152613c94818461335b565b905092915050565b60006020820190508181036000830152613cb581613394565b9050919050565b60006020820190508181036000830152613cd5816133fa565b9050919050565b60006020820190508181036000830152613cf58161343a565b9050919050565b60006020820190508181036000830152613d158161347a565b9050919050565b60006020820190508181036000830152613d35816134e0565b9050919050565b60006020820190508181036000830152613d5581613520565b9050919050565b60006020820190508181036000830152613d7581613560565b9050919050565b60006020820190508181036000830152613d95816135c6565b9050919050565b60006020820190508181036000830152613db58161362c565b9050919050565b60006020820190508181036000830152613dd581613692565b9050919050565b60006020820190508181036000830152613df5816136d2565b9050919050565b60006020820190508181036000830152613e1581613712565b9050919050565b60006020820190508181036000830152613e3581613778565b9050919050565b60006020820190508181036000830152613e55816137de565b9050919050565b60006020820190508181036000830152613e758161381e565b9050919050565b60006020820190508181036000830152613e958161385e565b9050919050565b60006020820190508181036000830152613eb5816138c4565b9050919050565b60006020820190508181036000830152613ed581613904565b9050919050565b60006020820190508181036000830152613ef58161396a565b9050919050565b60006020820190508181036000830152613f15816139d0565b9050919050565b60006020820190508181036000830152613f3581613a36565b9050919050565b60006020820190508181036000830152613f5581613a9c565b9050919050565b60006020820190508181036000830152613f7581613b02565b9050919050565b6000602082019050613f916000830184613b51565b92915050565b6000604082019050613fac6000830185613b51565b613fb96020830184613b51565b9392505050565b6000602082019050613fd56000830184613b60565b92915050565b6000602082019050613ff06000830184613b6f565b92915050565b6000604051905081810181811067ffffffffffffffff8211171561401d5761401c6145cd565b5b8060405250919050565b600067ffffffffffffffff821115614042576140416145cd565b5b601f19601f8301169050602081019050919050565b6000819050602082019050919050565b600081519050919050565b600081519050919050565b6000602082019050919050565b600082825260208201905092915050565b600082825260208201905092915050565b60006140b78261441c565b91506140c28361441c565b9250827fffffffffffffffffffffffffffffffffffffffffffffffffffffffffffffffff038211156140f7576140f6614540565b5b828201905092915050565b600061410d82614426565b915061411883614426565b92508269ffffffffffffffffffff0382111561413757614136614540565b5b828201905092915050565b600061414d8261441c565b91506141588361441c565b9250826141685761416761456f565b5b828204905092915050565b600061417e82614426565b915061418983614426565b9250826141995761419861456f565b5b828204905092915050565b60006141af826143f2565b91506141ba836143f2565b9250827f7fffffffffffffffffffffffffffffffffffffffffffffffffffffffffffffff04821160008413600084131616156141f9576141f8614540565b5b817f8000000000000000000000000000000000000000000000000000000000000000058312600084126000841316161561423657614235614540565b5b827f8000000000000000000000000000000000000000000000000000000000000000058212600084136000841216161561427357614272614540565b5b827f7fffffffffffffffffffffffffffffffffffffffffffffffffffffffffffffff05821260008412600084121616156142b0576142af614540565b5b828202905092915050565b60006142c68261441c565b91506142d18361441c565b9250817fffffffffffffffffffffffffffffffffffffffffffffffffffffffffffffffff048311821515161561430a57614309614540565b5b828202905092915050565b600061432082614426565b915061432b83614426565b92508169ffffffffffffffffffff048311821515161561434e5761434d614540565b5b828202905092915050565b60006143648261441c565b915061436f8361441c565b92508282101561438257614381614540565b5b828203905092915050565b600061439882614426565b91506143a383614426565b9250828210156143b6576143b5614540565b5b828203905092915050565b60006143cc826143fc565b9050919050565b60008115159050919050565b60008190506143ed8261460d565b919050565b6000819050919050565b600073ffffffffffffffffffffffffffffffffffffffff82169050919050565b6000819050919050565b600069ffffffffffffffffffff82169050919050565b6000614447826143df565b9050919050565b600061445982614426565b9050919050565b60005b8381101561447e578082015181840152602081019050614463565b8381111561448d576000848401525b50505050565b600061449e8261441c565b91507fffffffffffffffffffffffffffffffffffffffffffffffffffffffffffffffff8214156144d1576144d0614540565b5b600182019050919050565b60006144e782614426565b915069ffffffffffffffffffff82141561450457614503614540565b5b600182019050919050565b600061451a82614426565b915061452583614426565b9250826145355761453461456f565b5b828206905092915050565b7f4e487b7100000000000000000000000000000000000000000000000000000000600052601160045260246000fd5b7f4e487b7100000000000000000000000000000000000000000000000000000000600052601260045260246000fd5b7f4e487b7100000000000000000000000000000000000000000000000000000000600052602160045260246000fd5b7f4e487b7100000000000000000000000000000000000000000000000000000000600052604160045260246000fd5b6000601f19601f8301169050919050565b6004811061461e5761461d61459e565b5b50565b61462a816143c1565b811461463557600080fd5b50565b614641816143d3565b811461464c57600080fd5b50565b614658816143f2565b811461466357600080fd5b50565b61466f8161441c565b811461467a57600080fd5b50565b61468681614426565b811461469157600080fd5b5056fea2646970667358221220a32e6a4de9dd9cdc58bd9bba9f83004e385f38a52662dae30ee4d6b8e0fd3fa864736f6c63430008000033",
  "immutableReferences": {},
  "source": "// SPDX-License-Identifier: MIT\r\npragma solidity ^0.8.0;\r\nimport \"./ERC20.sol\";\r\nimport \"./_utils/SafeMath.sol\";\r\nimport \"./PredictionCore.sol\";\r\nimport \"./interfaces/AggregatorV2V3Interface.sol\";\r\nimport \"./Ownable.sol\";\r\n\r\ncontract Prediction is Ownable,PredictionCore{\r\n    using SafeMath for uint;\r\n    using SafeMath80 for uint80;\r\n    IERC20 private Token = IERC20(0xa0228a6c2e57A3FcAAE1d12F33bF478E42ef9A49);\r\n    event _bid(\r\n        bool indexed bidType,\r\n        address indexed bidder,\r\n        uint amount\r\n        );\r\n    function addToken(\r\n        address token,\r\n        uint80 _startingRound)\r\n        public onlyOwner\r\n        {\r\n        markets[marketCount].feed = AggregatorV2V3Interface(token);\r\n        markets[marketCount].startingRound = _startingRound;\r\n        marketCount++;\r\n    }\r\n    function addArrayToken(\r\n        address[] calldata token,\r\n        uint80[] calldata _startingRound)\r\n        public onlyOwner\r\n        {\r\n        require(token.length != 0, \"array is empty\");\r\n        require(_startingRound.length != 0, \"array is empty\");\r\n        require(token.length == _startingRound.length, \"unequal array size\");\r\n        for(uint i = 0; i<token.length;i++ ) addToken(token[i],_startingRound[i]);\r\n    }\r\n    constructor(){\r\n        addToken(0x8A753747A1Fa494EC906cE90E9f37563A8AF630e,36893488147419103300);//Eth\r\n        addToken(0xECe365B379E1dD183B20fc5f022230C044d51404,36893488147419103300);//Btc\r\n        addToken(0xcf0f51ca2cDAecb464eeE4227f5295F2384F84ED,36893488147419103300);//Bnb\r\n        addToken(0xd8bD0a1cB028a31AA859A21A3758685a95dE4623,36893488147419103300);//Link\r\n        addToken(0x031dB56e01f82f20803059331DC6bEe9b17F7fC9,36893488147419103300);//Bat\r\n        addToken(0xb29f616a0d54FF292e997922fFf46012a63E2FAe,36893488147419103300);//TRX\r\n        addToken(0xF7Bbe4D7d13d600127B6Aa132f1dCea301e9c8Fc,36893488147419103300);//ZRX\r\n        addToken(0xf57FCa8B932c43dFe560d3274262b2597BCD2e5A,36893488147419103300);//XTZ\r\n        addToken(0xc3E76f41CAbA4aB38F00c7255d4df663DA02A024,36893488147419103300);//XRP\r\n    }\r\n    function _deposit(uint amount) internal{\r\n        //convert to 18 decimals format\r\n        require(Token.balanceOf(_msgSender())>=amount,\"insufficient balance\");\r\n        require(Token.allowance(_msgSender(),address(this)) >= amount,\"unapproved transaction\");\r\n        Token.transferFrom(_msgSender(),address(this),amount);\r\n    }\r\n    function _withdraw(\r\n        uint _i,\r\n        uint80 _cycle,\r\n        uint amount) internal\r\n        {\r\n        markets[_i].pools[_cycle].isWithdrawn[msg.sender] = true;\r\n        Token.transfer(msg.sender,amount);\r\n    }\r\n    // we used 10**18 as a % to retrieve an accurate participant portion from total position\r\n    // when returned the value need to be divided by 10**18\r\n    function _reward(\r\n        uint _i,\r\n        uint80 _cycle,\r\n        bool _type)\r\n        internal view returns(uint reward)\r\n        {\r\n        uint totalStake;\r\n        uint totalOpStake;\r\n        uint ratio;\r\n        uint stake;\r\n        if(_type){\r\n            totalStake = getTotalLongs(_i,_cycle);\r\n            stake = getLong(_i,_cycle);\r\n            ratio = (stake.mul(10**18)).div(totalStake);\r\n            totalOpStake = getTotalShorts(_i,_cycle);\r\n            reward = (totalOpStake.mul(ratio)).div(10**18);\r\n        }else{\r\n            totalStake = getTotalShorts(_i,_cycle);\r\n            stake = getShort(_i,_cycle);\r\n            ratio = (stake.mul(10**18)).div(totalStake);\r\n            totalOpStake = getTotalLongs(_i,_cycle);\r\n            reward = (totalOpStake.mul(ratio)).div(10**18);\r\n        }\r\n    }\r\n    // bid - true: Long, false: short\r\n    function bid(\r\n        uint _i,\r\n        uint amount,\r\n        bool position)\r\n        public validFeed(_i)\r\n        {\r\n        uint80 cycle = getLatestCycle(_i);\r\n        uint[] memory activeCycles = markets[_i].activeCycle[msg.sender];\r\n        require(amount >= MINIMUM_BID, \"JACKPOT STRIKE: Bidding Amount Must Be >= 10$\");\r\n        require(getPriceStatus(_i,cycle) == Status.PENDING,\"JACKPOT STRIKE: Cycle Has Been Determined!\");\r\n        require(isPriceLocked(_i),\"JACKPOT STRIKE: Price Locked Rrange!\");\r\n        if(position){\r\n            require(getShort(_i,cycle) == 0, \"JACKPOT STRIKE: Short Position Is In Place!\");\r\n            _deposit(amount);\r\n            markets[_i].pools[cycle].Longs[msg.sender] += amount;\r\n            markets[_i].pools[cycle].totalLongs += amount;\r\n            if(activeCycles.length != 0){\r\n            if(activeCycles[activeCycles.length-1] != cycle) markets[_i].activeCycle[msg.sender].push(cycle);\r\n            }else{\r\n            markets[_i].activeCycle[msg.sender].push(cycle);\r\n            }\r\n            emit _bid(position, msg.sender, amount);\r\n        }else{\r\n            require(getLong(_i,cycle) == 0, \"JACKPOT STRIKE: Long Position Is In Place!\");\r\n            _deposit(amount);\r\n            markets[_i].pools[cycle].Shorts[msg.sender] += amount;\r\n            markets[_i].pools[cycle].totalShorts += amount;\r\n            if(activeCycles.length != 0){\r\n            if(activeCycles[activeCycles.length-1] != cycle) markets[_i].activeCycle[msg.sender].push(cycle);\r\n            }else{\r\n            markets[_i].activeCycle[msg.sender].push(cycle);\r\n            }\r\n            emit _bid(position, msg.sender, amount);\r\n        }\r\n    }\r\n    function withdraw(uint _i, uint80 _cycle) public validFeed(_i) validCycle(_i,_cycle) {\r\n        uint long = getLong(_i,_cycle);\r\n        uint short = getShort(_i,_cycle);\r\n        Status status = getPriceStatus(_i,_cycle);\r\n        require(status != Status.PENDING, \"JACKPOT STRIKE: Cycle Is In Progress!\");\r\n        require(long != 0 || short != 0, \"JACKPOT STRIKE: Invalid participant!\");\r\n        require(_cycle < getLatestCycle(_i),\"JACKPOT STRIKE: Withdraw Is Active After Cycle Is Over!\"); // might be deleted\r\n        require(markets[_i].pools[_cycle].isWithdrawn[msg.sender] == false, \"JACKPOT STRIKE: Funds Have Been Withdrawn!\");\r\n        uint position;\r\n        uint finalReward;\r\n        Status state;\r\n        if(long>0){position = long;}\r\n        else if(short>0){position = short;}\r\n        if(status != Status.TIE){\r\n            if(long>0){state = Status.LONG;}\r\n            else if(short>0){state = Status.SHORT;}\r\n            require(status == state,\"JACKPOT STRIKE: You Have Been Liquidated!\");\r\n        }\r\n        if(status == Status.TIE){\r\n            _withdraw(_i,_cycle,position);\r\n        }else if(status == Status.LONG){\r\n            finalReward = position.add(_reward(_i,_cycle,true));\r\n            _withdraw(_i,_cycle,finalReward);\r\n        }else if(status == Status.SHORT){\r\n            finalReward = position.add(_reward(_i,_cycle,false));\r\n            _withdraw(_i,_cycle,finalReward);\r\n        }\r\n    }\r\n}\r\n\r\n\r\n\r\n",
  "sourcePath": "C:/Users/amine/OneDrive/Desktop/Truffle/React - Prediction/contracts/Prediction.sol",
  "compiler": {
    "name": "solc",
    "version": "0.8.0+commit.c7dfd78e.Emscripten.clang"
  },
  "schemaVersion": "3.4.1",
  "updatedAt": "2021-07-06T19:01:29.475Z",
  "networkType": "ethereum",
  "devdoc": {
    "kind": "dev",
    "methods": {
      "owner()": {
        "details": "Returns the address of the current owner."
      },
      "transferOwnership(address)": {
        "details": "Transfers ownership of the contract to a new account (`newOwner`). Can only be called by the current owner."
      }
    },
    "version": 1
  },
  "userdoc": {
    "kind": "user",
    "methods": {},
    "version": 1
  }
}