{
  "_format": "hh-sol-artifact-1",
  "contractName": "GettersAndSetters",
  "sourceName": "contracts/diamond/facets/GettersAndSetters.sol",
  "abi": [
    {
      "inputs": [],
      "name": "getTokenCount",
      "outputs": [
        {
          "internalType": "uint256",
          "name": "",
          "type": "uint256"
        }
      ],
      "stateMutability": "view",
      "type": "function"
    },
    {
      "inputs": [],
      "name": "getTreasuryToken",
      "outputs": [
        {
          "internalType": "address",
          "name": "",
          "type": "address"
        }
      ],
      "stateMutability": "view",
      "type": "function"
    },
    {
      "inputs": [
        {
          "internalType": "address",
          "name": "_token",
          "type": "address"
        }
      ],
      "name": "setTreasuryToken",
      "outputs": [],
      "stateMutability": "nonpayable",
      "type": "function"
    }
  ],
  "bytecode": "0x608060405234801561001057600080fd5b5061031f806100206000396000f3fe608060405234801561001057600080fd5b50600436106100415760003560e01c8063412723171461004657806378a8956714610064578063e19cb55b14610082575b600080fd5b61004e61009e565b60405161005b9190610260565b60405180910390f35b61006c6100d6565b604051610079919061027b565b60405180910390f35b61009c60048036038101906100979190610219565b6100ee565b005b6000806100a96101d7565b90508060030160009054906101000a900473ffffffffffffffffffffffffffffffffffffffff1691505090565b6000806100e16101d7565b9050806000015491505090565b60006100f86101d7565b905080600b0160009054906101000a900473ffffffffffffffffffffffffffffffffffffffff1673ffffffffffffffffffffffffffffffffffffffff163373ffffffffffffffffffffffffffffffffffffffff161461015657600080fd5b600073ffffffffffffffffffffffffffffffffffffffff168273ffffffffffffffffffffffffffffffffffffffff16141561019057600080fd5b818160030160006101000a81548173ffffffffffffffffffffffffffffffffffffffff021916908373ffffffffffffffffffffffffffffffffffffffff1602179055505050565b6000807fc8fcad8db84d3cc18b4c41d551ea0ee66dd599cde068d998e57d5e09332c131c90508091505090565b600081359050610213816102d2565b92915050565b60006020828403121561022b57600080fd5b600061023984828501610204565b91505092915050565b61024b81610296565b82525050565b61025a816102c8565b82525050565b60006020820190506102756000830184610242565b92915050565b60006020820190506102906000830184610251565b92915050565b60006102a1826102a8565b9050919050565b600073ffffffffffffffffffffffffffffffffffffffff82169050919050565b6000819050919050565b6102db81610296565b81146102e657600080fd5b5056fea26469706673582212203e2e10557381591d96c467f478de06e1fe5c2bc59be6b9c6b953882b8b4a170f64736f6c63430008040033",
  "linkReferences": {},
  "deployedLinkReferences": {}
}