{
  "_format": "hh-sol-artifact-1",
  "contractName": "GOD",
  "sourceName": "contracts/governance_standard/GOD.sol",
  "abi": [
    {
      "inputs": [],
      "stateMutability": "nonpayable",
      "type": "constructor"
    },
    {
      "anonymous": false,
      "inputs": [
        {
          "indexed": true,
          "internalType": "address",
          "name": "owner",
          "type": "address"
        },
        {
          "indexed": true,
          "internalType": "address",
          "name": "spender",
          "type": "address"
        },
        {
          "indexed": false,
          "internalType": "uint256",
          "name": "value",
          "type": "uint256"
        }
      ],
      "name": "Approval",
      "type": "event"
    },
    {
      "anonymous": false,
      "inputs": [
        {
          "indexed": true,
          "internalType": "address",
          "name": "delegator",
          "type": "address"
        },
        {
          "indexed": true,
          "internalType": "address",
          "name": "fromDelegate",
          "type": "address"
        },
        {
          "indexed": true,
          "internalType": "address",
          "name": "toDelegate",
          "type": "address"
        }
      ],
      "name": "DelegateChanged",
      "type": "event"
    },
    {
      "anonymous": false,
      "inputs": [
        {
          "indexed": true,
          "internalType": "address",
          "name": "delegate",
          "type": "address"
        },
        {
          "indexed": false,
          "internalType": "uint256",
          "name": "previousBalance",
          "type": "uint256"
        },
        {
          "indexed": false,
          "internalType": "uint256",
          "name": "newBalance",
          "type": "uint256"
        }
      ],
      "name": "DelegateVotesChanged",
      "type": "event"
    },
    {
      "anonymous": false,
      "inputs": [
        {
          "indexed": true,
          "internalType": "address",
          "name": "from",
          "type": "address"
        },
        {
          "indexed": true,
          "internalType": "address",
          "name": "to",
          "type": "address"
        },
        {
          "indexed": false,
          "internalType": "uint256",
          "name": "value",
          "type": "uint256"
        }
      ],
      "name": "Transfer",
      "type": "event"
    },
    {
      "inputs": [],
      "name": "DOMAIN_SEPARATOR",
      "outputs": [
        {
          "internalType": "bytes32",
          "name": "",
          "type": "bytes32"
        }
      ],
      "stateMutability": "view",
      "type": "function"
    },
    {
      "inputs": [
        {
          "internalType": "address",
          "name": "owner",
          "type": "address"
        },
        {
          "internalType": "address",
          "name": "spender",
          "type": "address"
        }
      ],
      "name": "allowance",
      "outputs": [
        {
          "internalType": "uint256",
          "name": "",
          "type": "uint256"
        }
      ],
      "stateMutability": "view",
      "type": "function"
    },
    {
      "inputs": [
        {
          "internalType": "address",
          "name": "spender",
          "type": "address"
        },
        {
          "internalType": "uint256",
          "name": "amount",
          "type": "uint256"
        }
      ],
      "name": "approve",
      "outputs": [
        {
          "internalType": "bool",
          "name": "",
          "type": "bool"
        }
      ],
      "stateMutability": "nonpayable",
      "type": "function"
    },
    {
      "inputs": [
        {
          "internalType": "address",
          "name": "account",
          "type": "address"
        }
      ],
      "name": "balanceOf",
      "outputs": [
        {
          "internalType": "uint256",
          "name": "",
          "type": "uint256"
        }
      ],
      "stateMutability": "view",
      "type": "function"
    },
    {
      "inputs": [
        {
          "internalType": "address",
          "name": "account",
          "type": "address"
        },
        {
          "internalType": "uint32",
          "name": "pos",
          "type": "uint32"
        }
      ],
      "name": "checkpoints",
      "outputs": [
        {
          "components": [
            {
              "internalType": "uint32",
              "name": "fromBlock",
              "type": "uint32"
            },
            {
              "internalType": "uint224",
              "name": "votes",
              "type": "uint224"
            }
          ],
          "internalType": "struct ERC20Votes.Checkpoint",
          "name": "",
          "type": "tuple"
        }
      ],
      "stateMutability": "view",
      "type": "function"
    },
    {
      "inputs": [],
      "name": "decimals",
      "outputs": [
        {
          "internalType": "uint8",
          "name": "",
          "type": "uint8"
        }
      ],
      "stateMutability": "view",
      "type": "function"
    },
    {
      "inputs": [
        {
          "internalType": "address",
          "name": "spender",
          "type": "address"
        },
        {
          "internalType": "uint256",
          "name": "subtractedValue",
          "type": "uint256"
        }
      ],
      "name": "decreaseAllowance",
      "outputs": [
        {
          "internalType": "bool",
          "name": "",
          "type": "bool"
        }
      ],
      "stateMutability": "nonpayable",
      "type": "function"
    },
    {
      "inputs": [
        {
          "internalType": "address",
          "name": "delegatee",
          "type": "address"
        }
      ],
      "name": "delegate",
      "outputs": [],
      "stateMutability": "nonpayable",
      "type": "function"
    },
    {
      "inputs": [
        {
          "internalType": "address",
          "name": "delegatee",
          "type": "address"
        },
        {
          "internalType": "uint256",
          "name": "nonce",
          "type": "uint256"
        },
        {
          "internalType": "uint256",
          "name": "expiry",
          "type": "uint256"
        },
        {
          "internalType": "uint8",
          "name": "v",
          "type": "uint8"
        },
        {
          "internalType": "bytes32",
          "name": "r",
          "type": "bytes32"
        },
        {
          "internalType": "bytes32",
          "name": "s",
          "type": "bytes32"
        }
      ],
      "name": "delegateBySig",
      "outputs": [],
      "stateMutability": "nonpayable",
      "type": "function"
    },
    {
      "inputs": [
        {
          "internalType": "address",
          "name": "account",
          "type": "address"
        }
      ],
      "name": "delegates",
      "outputs": [
        {
          "internalType": "address",
          "name": "",
          "type": "address"
        }
      ],
      "stateMutability": "view",
      "type": "function"
    },
    {
      "inputs": [
        {
          "internalType": "uint256",
          "name": "blockNumber",
          "type": "uint256"
        }
      ],
      "name": "getPastTotalSupply",
      "outputs": [
        {
          "internalType": "uint256",
          "name": "",
          "type": "uint256"
        }
      ],
      "stateMutability": "view",
      "type": "function"
    },
    {
      "inputs": [
        {
          "internalType": "address",
          "name": "account",
          "type": "address"
        },
        {
          "internalType": "uint256",
          "name": "blockNumber",
          "type": "uint256"
        }
      ],
      "name": "getPastVotes",
      "outputs": [
        {
          "internalType": "uint256",
          "name": "",
          "type": "uint256"
        }
      ],
      "stateMutability": "view",
      "type": "function"
    },
    {
      "inputs": [
        {
          "internalType": "address",
          "name": "account",
          "type": "address"
        }
      ],
      "name": "getVotes",
      "outputs": [
        {
          "internalType": "uint256",
          "name": "",
          "type": "uint256"
        }
      ],
      "stateMutability": "view",
      "type": "function"
    },
    {
      "inputs": [
        {
          "internalType": "address",
          "name": "spender",
          "type": "address"
        },
        {
          "internalType": "uint256",
          "name": "addedValue",
          "type": "uint256"
        }
      ],
      "name": "increaseAllowance",
      "outputs": [
        {
          "internalType": "bool",
          "name": "",
          "type": "bool"
        }
      ],
      "stateMutability": "nonpayable",
      "type": "function"
    },
    {
      "inputs": [],
      "name": "maxSupply",
      "outputs": [
        {
          "internalType": "uint256",
          "name": "",
          "type": "uint256"
        }
      ],
      "stateMutability": "view",
      "type": "function"
    },
    {
      "inputs": [],
      "name": "name",
      "outputs": [
        {
          "internalType": "string",
          "name": "",
          "type": "string"
        }
      ],
      "stateMutability": "view",
      "type": "function"
    },
    {
      "inputs": [
        {
          "internalType": "address",
          "name": "owner",
          "type": "address"
        }
      ],
      "name": "nonces",
      "outputs": [
        {
          "internalType": "uint256",
          "name": "",
          "type": "uint256"
        }
      ],
      "stateMutability": "view",
      "type": "function"
    },
    {
      "inputs": [
        {
          "internalType": "address",
          "name": "account",
          "type": "address"
        }
      ],
      "name": "numCheckpoints",
      "outputs": [
        {
          "internalType": "uint32",
          "name": "",
          "type": "uint32"
        }
      ],
      "stateMutability": "view",
      "type": "function"
    },
    {
      "inputs": [
        {
          "internalType": "address",
          "name": "owner",
          "type": "address"
        },
        {
          "internalType": "address",
          "name": "spender",
          "type": "address"
        },
        {
          "internalType": "uint256",
          "name": "value",
          "type": "uint256"
        },
        {
          "internalType": "uint256",
          "name": "deadline",
          "type": "uint256"
        },
        {
          "internalType": "uint8",
          "name": "v",
          "type": "uint8"
        },
        {
          "internalType": "bytes32",
          "name": "r",
          "type": "bytes32"
        },
        {
          "internalType": "bytes32",
          "name": "s",
          "type": "bytes32"
        }
      ],
      "name": "permit",
      "outputs": [],
      "stateMutability": "nonpayable",
      "type": "function"
    },
    {
      "inputs": [],
      "name": "symbol",
      "outputs": [
        {
          "internalType": "string",
          "name": "",
          "type": "string"
        }
      ],
      "stateMutability": "view",
      "type": "function"
    },
    {
      "inputs": [],
      "name": "totalSupply",
      "outputs": [
        {
          "internalType": "uint256",
          "name": "",
          "type": "uint256"
        }
      ],
      "stateMutability": "view",
      "type": "function"
    },
    {
      "inputs": [
        {
          "internalType": "address",
          "name": "to",
          "type": "address"
        },
        {
          "internalType": "uint256",
          "name": "amount",
          "type": "uint256"
        }
      ],
      "name": "transfer",
      "outputs": [
        {
          "internalType": "bool",
          "name": "",
          "type": "bool"
        }
      ],
      "stateMutability": "nonpayable",
      "type": "function"
    },
    {
      "inputs": [
        {
          "internalType": "address",
          "name": "from",
          "type": "address"
        },
        {
          "internalType": "address",
          "name": "to",
          "type": "address"
        },
        {
          "internalType": "uint256",
          "name": "amount",
          "type": "uint256"
        }
      ],
      "name": "transferFrom",
      "outputs": [
        {
          "internalType": "bool",
          "name": "",
          "type": "bool"
        }
      ],
      "stateMutability": "nonpayable",
      "type": "function"
    }
  ],
  "bytecode": "0x6101606040527f6e71edae12b1b97f4d1f60370fef10105fa2faae0126114a169c64845d6126c961014090815250662386f26fc100006009553480156200004557600080fd5b506040518060400160405280600381526020017f474f440000000000000000000000000000000000000000000000000000000000815250806040518060400160405280600181526020017f31000000000000000000000000000000000000000000000000000000000000008152506040518060400160405280600381526020017f474f4400000000000000000000000000000000000000000000000000000000008152506040518060400160405280600381526020017f474f44000000000000000000000000000000000000000000000000000000000081525081600390805190602001906200013792919062000bf3565b5080600490805190602001906200015092919062000bf3565b50505060008280519060200120905060008280519060200120905060007f8b73c3c69bb8fe3d512ecc4cf759cc79239f7b179b0ffacaa9a75d522b39400f90508260e081815250508161010081815250504660a08181525050620001bc8184846200022360201b60201c565b608081815250503073ffffffffffffffffffffffffffffffffffffffff1660c08173ffffffffffffffffffffffffffffffffffffffff1660601b815250508061012081815250505050505050506200021d336009546200025f60201b60201c565b6200113c565b600083838346306040516020016200024095949392919062000d72565b6040516020818303038152906040528051906020012090509392505050565b6200027682826200027a60201b62000fdc1760201c565b5050565b6200029182826200033860201b620010691760201c565b620002a1620004b160201b60201c565b7bffffffffffffffffffffffffffffffffffffffffffffffffffffffff16620002cf620004d560201b60201c565b111562000313576040517f08c379a00000000000000000000000000000000000000000000000000000000081526004016200030a9062000dcf565b60405180910390fd5b620003326008620004df60201b620011c91783620004f760201b60201c565b50505050565b600073ffffffffffffffffffffffffffffffffffffffff168273ffffffffffffffffffffffffffffffffffffffff161415620003ab576040517f08c379a0000000000000000000000000000000000000000000000000000000008152600401620003a29062000e35565b60405180910390fd5b620003bf600083836200081460201b60201c565b8060026000828254620003d3919062000eb2565b92505081905550806000808473ffffffffffffffffffffffffffffffffffffffff1673ffffffffffffffffffffffffffffffffffffffff16815260200190815260200160002060008282546200042a919062000eb2565b925050819055508173ffffffffffffffffffffffffffffffffffffffff16600073ffffffffffffffffffffffffffffffffffffffff167fddf252ad1be2c89b69c2b068fc378daa952ba7f163c4a11628f55a4df523b3ef8360405162000491919062000e57565b60405180910390a3620004ad600083836200081960201b60201c565b5050565b60007bffffffffffffffffffffffffffffffffffffffffffffffffffffffff905090565b6000600254905090565b60008183620004ef919062000eb2565b905092915050565b600080600085805490509050600081146200059057856001826200051c919062000f0f565b8154811062000554577f4e487b7100000000000000000000000000000000000000000000000000000000600052603260045260246000fd5b9060005260206000200160000160049054906101000a90047bffffffffffffffffffffffffffffffffffffffffffffffffffffffff1662000593565b60005b7bffffffffffffffffffffffffffffffffffffffffffffffffffffffff169250620005bf83858760201c565b91506000811180156200063c57504386600183620005de919062000f0f565b8154811062000616577f4e487b7100000000000000000000000000000000000000000000000000000000600052603260045260246000fd5b9060005260206000200160000160009054906101000a900463ffffffff1663ffffffff16145b15620007015762000658826200083660201b620011df1760201c565b8660018362000668919062000f0f565b81548110620006a0577f4e487b7100000000000000000000000000000000000000000000000000000000600052603260045260246000fd5b9060005260206000200160000160046101000a8154817bffffffffffffffffffffffffffffffffffffffffffffffffffffffff02191690837bffffffffffffffffffffffffffffffffffffffffffffffffffffffff1602179055506200080b565b8560405180604001604052806200072343620008a460201b6200124a1760201c565b63ffffffff16815260200162000744856200083660201b620011df1760201c565b7bffffffffffffffffffffffffffffffffffffffffffffffffffffffff168152509080600181540180825580915050600190039060005260206000200160009091909190915060008201518160000160006101000a81548163ffffffff021916908363ffffffff16021790555060208201518160000160046101000a8154817bffffffffffffffffffffffffffffffffffffffffffffffffffffffff02191690837bffffffffffffffffffffffffffffffffffffffffffffffffffffffff16021790555050505b50935093915050565b505050565b62000831838383620008fa60201b6200129d1760201c565b505050565b60007bffffffffffffffffffffffffffffffffffffffffffffffffffffffff80168211156200089c576040517f08c379a0000000000000000000000000000000000000000000000000000000008152600401620008939062000df1565b60405180910390fd5b819050919050565b600063ffffffff8016821115620008f2576040517f08c379a0000000000000000000000000000000000000000000000000000000008152600401620008e99062000e13565b60405180910390fd5b819050919050565b620009128383836200094a60201b620012c81760201c565b6200094562000927846200094f60201b60201c565b62000938846200094f60201b60201c565b83620009b860201b60201c565b505050565b505050565b6000600660008373ffffffffffffffffffffffffffffffffffffffff1673ffffffffffffffffffffffffffffffffffffffff16815260200190815260200160002060009054906101000a900473ffffffffffffffffffffffffffffffffffffffff169050919050565b8173ffffffffffffffffffffffffffffffffffffffff168373ffffffffffffffffffffffffffffffffffffffff1614158015620009f55750600081115b1562000bd657600073ffffffffffffffffffffffffffffffffffffffff168373ffffffffffffffffffffffffffffffffffffffff161462000ae85760008062000a8f600760008773ffffffffffffffffffffffffffffffffffffffff1673ffffffffffffffffffffffffffffffffffffffff16815260200190815260200160002062000bdb60201b620012cd1785620004f760201b60201c565b915091508473ffffffffffffffffffffffffffffffffffffffff167fdec2bacdd2f05b59de34da9b523dff8be42e5e38e818c82fdb0bae774387a724838360405162000add92919062000e74565b60405180910390a250505b600073ffffffffffffffffffffffffffffffffffffffff168273ffffffffffffffffffffffffffffffffffffffff161462000bd55760008062000b7c600760008673ffffffffffffffffffffffffffffffffffffffff1673ffffffffffffffffffffffffffffffffffffffff168152602001908152602001600020620004df60201b620011c91785620004f760201b60201c565b915091508373ffffffffffffffffffffffffffffffffffffffff167fdec2bacdd2f05b59de34da9b523dff8be42e5e38e818c82fdb0bae774387a724838360405162000bca92919062000e74565b60405180910390a250505b5b505050565b6000818362000beb919062000f0f565b905092915050565b82805462000c019062000f92565b90600052602060002090601f01602090048101928262000c25576000855562000c71565b82601f1062000c4057805160ff191683800117855562000c71565b8280016001018555821562000c71579182015b8281111562000c7057825182559160200191906001019062000c53565b5b50905062000c80919062000c84565b5090565b5b8082111562000c9f57600081600090555060010162000c85565b5090565b62000cae8162000f4a565b82525050565b62000cbf8162000f5e565b82525050565b600062000cd460308362000ea1565b915062000ce18262001026565b604082019050919050565b600062000cfb60278362000ea1565b915062000d088262001075565b604082019050919050565b600062000d2260268362000ea1565b915062000d2f82620010c4565b604082019050919050565b600062000d49601f8362000ea1565b915062000d568262001113565b602082019050919050565b62000d6c8162000f88565b82525050565b600060a08201905062000d89600083018862000cb4565b62000d98602083018762000cb4565b62000da7604083018662000cb4565b62000db6606083018562000d61565b62000dc5608083018462000ca3565b9695505050505050565b6000602082019050818103600083015262000dea8162000cc5565b9050919050565b6000602082019050818103600083015262000e0c8162000cec565b9050919050565b6000602082019050818103600083015262000e2e8162000d13565b9050919050565b6000602082019050818103600083015262000e508162000d3a565b9050919050565b600060208201905062000e6e600083018462000d61565b92915050565b600060408201905062000e8b600083018562000d61565b62000e9a602083018462000d61565b9392505050565b600082825260208201905092915050565b600062000ebf8262000f88565b915062000ecc8362000f88565b9250827fffffffffffffffffffffffffffffffffffffffffffffffffffffffffffffffff0382111562000f045762000f0362000fc8565b5b828201905092915050565b600062000f1c8262000f88565b915062000f298362000f88565b92508282101562000f3f5762000f3e62000fc8565b5b828203905092915050565b600062000f578262000f68565b9050919050565b6000819050919050565b600073ffffffffffffffffffffffffffffffffffffffff82169050919050565b6000819050919050565b6000600282049050600182168062000fab57607f821691505b6020821081141562000fc25762000fc162000ff7565b5b50919050565b7f4e487b7100000000000000000000000000000000000000000000000000000000600052601160045260246000fd5b7f4e487b7100000000000000000000000000000000000000000000000000000000600052602260045260246000fd5b7f4552433230566f7465733a20746f74616c20737570706c79207269736b73206f60008201527f766572666c6f77696e6720766f74657300000000000000000000000000000000602082015250565b7f53616665436173743a2076616c756520646f65736e27742066697420696e203260008201527f3234206269747300000000000000000000000000000000000000000000000000602082015250565b7f53616665436173743a2076616c756520646f65736e27742066697420696e203360008201527f3220626974730000000000000000000000000000000000000000000000000000602082015250565b7f45524332303a206d696e7420746f20746865207a65726f206164647265737300600082015250565b60805160a05160c05160601c60e051610100516101205161014051613a476200119a6000396000610d1e01526000611871015260006118b301526000611892015260006117c70152600061181d015260006118460152613a476000f3fe608060405234801561001057600080fd5b506004361061014d5760003560e01c806370a08231116100c3578063a9059cbb1161007c578063a9059cbb14610414578063c3cda52014610444578063d505accf14610460578063d5abeb011461047c578063dd62ed3e1461049a578063f1127ed8146104ca5761014d565b806370a08231146103065780637ecebe00146103365780638e539e8c1461036657806395d89b41146103965780639ab24eb0146103b4578063a457c2d7146103e45761014d565b80633644e515116101155780633644e5151461020c578063395093511461022a5780633a46b1a81461025a578063587cde1e1461028a5780635c19a95c146102ba5780636fcfff45146102d65761014d565b806306fdde0314610152578063095ea7b31461017057806318160ddd146101a057806323b872dd146101be578063313ce567146101ee575b600080fd5b61015a6104fa565b6040516101679190612ee2565b60405180910390f35b61018a6004803603810190610185919061281c565b61058c565b6040516101979190612d6e565b60405180910390f35b6101a86105af565b6040516101b5919061319f565b60405180910390f35b6101d860048036038101906101d3919061272f565b6105b9565b6040516101e59190612d6e565b60405180910390f35b6101f66105e8565b60405161020391906131fe565b60405180910390f35b6102146105f1565b6040516102219190612d89565b60405180910390f35b610244600480360381019061023f919061281c565b610600565b6040516102519190612d6e565b60405180910390f35b610274600480360381019061026f919061281c565b6106aa565b604051610281919061319f565b60405180910390f35b6102a4600480360381019061029f91906126ca565b61073e565b6040516102b19190612d53565b60405180910390f35b6102d460048036038101906102cf91906126ca565b6107a7565b005b6102f060048036038101906102eb91906126ca565b6107bb565b6040516102fd91906131e3565b60405180910390f35b610320600480360381019061031b91906126ca565b61080f565b60405161032d919061319f565b60405180910390f35b610350600480360381019061034b91906126ca565b610857565b60405161035d919061319f565b60405180910390f35b610380600480360381019061037b919061291d565b6108a7565b60405161038d919061319f565b60405180910390f35b61039e6108fd565b6040516103ab9190612ee2565b60405180910390f35b6103ce60048036038101906103c991906126ca565b61098f565b6040516103db919061319f565b60405180910390f35b6103fe60048036038101906103f9919061281c565b610ac6565b60405161040b9190612d6e565b60405180910390f35b61042e6004803603810190610429919061281c565b610bb0565b60405161043b9190612d6e565b60405180910390f35b61045e60048036038101906104599190612858565b610bd3565b005b61047a6004803603810190610475919061277e565b610cd7565b005b610484610e19565b604051610491919061319f565b60405180910390f35b6104b460048036038101906104af91906126f3565b610e1f565b6040516104c1919061319f565b60405180910390f35b6104e460048036038101906104df91906128e1565b610ea6565b6040516104f19190613184565b60405180910390f35b606060038054610509906133c5565b80601f0160208091040260200160405190810160405280929190818152602001828054610535906133c5565b80156105825780601f1061055757610100808354040283529160200191610582565b820191906000526020600020905b81548152906001019060200180831161056557829003601f168201915b5050505050905090565b6000806105976112e3565b90506105a48185856112eb565b600191505092915050565b6000600254905090565b6000806105c46112e3565b90506105d18582856114b6565b6105dc858585611542565b60019150509392505050565b60006012905090565b60006105fb6117c3565b905090565b60008061060b6112e3565b905061069f818585600160008673ffffffffffffffffffffffffffffffffffffffff1673ffffffffffffffffffffffffffffffffffffffff16815260200190815260200160002060008973ffffffffffffffffffffffffffffffffffffffff1673ffffffffffffffffffffffffffffffffffffffff1681526020019081526020016000205461069a9190613240565b6112eb565b600191505092915050565b60004382106106ee576040517f08c379a00000000000000000000000000000000000000000000000000000000081526004016106e590612f44565b60405180910390fd5b610736600760008573ffffffffffffffffffffffffffffffffffffffff1673ffffffffffffffffffffffffffffffffffffffff168152602001908152602001600020836118dd565b905092915050565b6000600660008373ffffffffffffffffffffffffffffffffffffffff1673ffffffffffffffffffffffffffffffffffffffff16815260200190815260200160002060009054906101000a900473ffffffffffffffffffffffffffffffffffffffff169050919050565b6107b86107b26112e3565b82611a35565b50565b6000610808600760008473ffffffffffffffffffffffffffffffffffffffff1673ffffffffffffffffffffffffffffffffffffffff1681526020019081526020016000208054905061124a565b9050919050565b60008060008373ffffffffffffffffffffffffffffffffffffffff1673ffffffffffffffffffffffffffffffffffffffff168152602001908152602001600020549050919050565b60006108a0600560008473ffffffffffffffffffffffffffffffffffffffff1673ffffffffffffffffffffffffffffffffffffffff168152602001908152602001600020611b4f565b9050919050565b60004382106108eb576040517f08c379a00000000000000000000000000000000000000000000000000000000081526004016108e290612f44565b60405180910390fd5b6108f66008836118dd565b9050919050565b60606004805461090c906133c5565b80601f0160208091040260200160405190810160405280929190818152602001828054610938906133c5565b80156109855780601f1061095a57610100808354040283529160200191610985565b820191906000526020600020905b81548152906001019060200180831161096857829003601f168201915b5050505050905090565b600080600760008473ffffffffffffffffffffffffffffffffffffffff1673ffffffffffffffffffffffffffffffffffffffff16815260200190815260200160002080549050905060008114610a9d57600760008473ffffffffffffffffffffffffffffffffffffffff1673ffffffffffffffffffffffffffffffffffffffff168152602001908152602001600020600182610a2b91906132c7565b81548110610a62577f4e487b7100000000000000000000000000000000000000000000000000000000600052603260045260246000fd5b9060005260206000200160000160049054906101000a90047bffffffffffffffffffffffffffffffffffffffffffffffffffffffff16610aa0565b60005b7bffffffffffffffffffffffffffffffffffffffffffffffffffffffff16915050919050565b600080610ad16112e3565b90506000600160008373ffffffffffffffffffffffffffffffffffffffff1673ffffffffffffffffffffffffffffffffffffffff16815260200190815260200160002060008673ffffffffffffffffffffffffffffffffffffffff1673ffffffffffffffffffffffffffffffffffffffff16815260200190815260200160002054905083811015610b97576040517f08c379a0000000000000000000000000000000000000000000000000000000008152600401610b8e90613144565b60405180910390fd5b610ba482868684036112eb565b60019250505092915050565b600080610bbb6112e3565b9050610bc8818585611542565b600191505092915050565b83421115610c16576040517f08c379a0000000000000000000000000000000000000000000000000000000008152600401610c0d90612f64565b60405180910390fd5b6000610c78610c707fe48329057bfd03d55e49b547132e39cffd9c1820ad7b9d4c5307691425d15adf898989604051602001610c559493929190612e05565b60405160208183030381529060405280519060200120611b5d565b858585611b77565b9050610c8381611ba2565b8614610cc4576040517f08c379a0000000000000000000000000000000000000000000000000000000008152600401610cbb90612fa4565b60405180910390fd5b610cce8188611a35565b50505050505050565b83421115610d1a576040517f08c379a0000000000000000000000000000000000000000000000000000000008152600401610d1190613004565b60405180910390fd5b60007f0000000000000000000000000000000000000000000000000000000000000000888888610d498c611ba2565b89604051602001610d5f96959493929190612da4565b6040516020818303038152906040528051906020012090506000610d8282611b5d565b90506000610d9282878787611b77565b90508973ffffffffffffffffffffffffffffffffffffffff168173ffffffffffffffffffffffffffffffffffffffff1614610e02576040517f08c379a0000000000000000000000000000000000000000000000000000000008152600401610df990613084565b60405180910390fd5b610e0d8a8a8a6112eb565b50505050505050505050565b60095481565b6000600160008473ffffffffffffffffffffffffffffffffffffffff1673ffffffffffffffffffffffffffffffffffffffff16815260200190815260200160002060008373ffffffffffffffffffffffffffffffffffffffff1673ffffffffffffffffffffffffffffffffffffffff16815260200190815260200160002054905092915050565b610eae612623565b600760008473ffffffffffffffffffffffffffffffffffffffff1673ffffffffffffffffffffffffffffffffffffffff1681526020019081526020016000208263ffffffff1681548110610f2b577f4e487b7100000000000000000000000000000000000000000000000000000000600052603260045260246000fd5b906000526020600020016040518060400160405290816000820160009054906101000a900463ffffffff1663ffffffff1663ffffffff1681526020016000820160049054906101000a90047bffffffffffffffffffffffffffffffffffffffffffffffffffffffff167bffffffffffffffffffffffffffffffffffffffffffffffffffffffff167bffffffffffffffffffffffffffffffffffffffffffffffffffffffff1681525050905092915050565b610fe68282611069565b610fee611c00565b7bffffffffffffffffffffffffffffffffffffffffffffffffffffffff166110146105af565b1115611055576040517f08c379a000000000000000000000000000000000000000000000000000000000815260040161104c906130a4565b60405180910390fd5b61106360086111c983611c24565b50505050565b600073ffffffffffffffffffffffffffffffffffffffff168273ffffffffffffffffffffffffffffffffffffffff1614156110d9576040517f08c379a00000000000000000000000000000000000000000000000000000000081526004016110d090613164565b60405180910390fd5b6110e560008383611f0e565b80600260008282546110f79190613240565b92505081905550806000808473ffffffffffffffffffffffffffffffffffffffff1673ffffffffffffffffffffffffffffffffffffffff168152602001908152602001600020600082825461114c9190613240565b925050819055508173ffffffffffffffffffffffffffffffffffffffff16600073ffffffffffffffffffffffffffffffffffffffff167fddf252ad1be2c89b69c2b068fc378daa952ba7f163c4a11628f55a4df523b3ef836040516111b1919061319f565b60405180910390a36111c560008383611f13565b5050565b600081836111d79190613240565b905092915050565b60007bffffffffffffffffffffffffffffffffffffffffffffffffffffffff8016821115611242576040517f08c379a0000000000000000000000000000000000000000000000000000000008152600401611239906130c4565b60405180910390fd5b819050919050565b600063ffffffff8016821115611295576040517f08c379a000000000000000000000000000000000000000000000000000000000815260040161128c90613104565b60405180910390fd5b819050919050565b6112a88383836112c8565b6112c36112b48461073e565b6112bd8461073e565b83611f23565b505050565b505050565b600081836112db91906132c7565b905092915050565b600033905090565b600073ffffffffffffffffffffffffffffffffffffffff168373ffffffffffffffffffffffffffffffffffffffff16141561135b576040517f08c379a000000000000000000000000000000000000000000000000000000000815260040161135290613124565b60405180910390fd5b600073ffffffffffffffffffffffffffffffffffffffff168273ffffffffffffffffffffffffffffffffffffffff1614156113cb576040517f08c379a00000000000000000000000000000000000000000000000000000000081526004016113c290612fc4565b60405180910390fd5b80600160008573ffffffffffffffffffffffffffffffffffffffff1673ffffffffffffffffffffffffffffffffffffffff16815260200190815260200160002060008473ffffffffffffffffffffffffffffffffffffffff1673ffffffffffffffffffffffffffffffffffffffff168152602001908152602001600020819055508173ffffffffffffffffffffffffffffffffffffffff168373ffffffffffffffffffffffffffffffffffffffff167f8c5be1e5ebec7d5bd14f71427d1e84f3dd0314c0f7b2291e5b200ac8c7c3b925836040516114a9919061319f565b60405180910390a3505050565b60006114c28484610e1f565b90507fffffffffffffffffffffffffffffffffffffffffffffffffffffffffffffffff811461153c578181101561152e576040517f08c379a000000000000000000000000000000000000000000000000000000000815260040161152590612fe4565b60405180910390fd5b61153b84848484036112eb565b5b50505050565b600073ffffffffffffffffffffffffffffffffffffffff168373ffffffffffffffffffffffffffffffffffffffff1614156115b2576040517f08c379a00000000000000000000000000000000000000000000000000000000081526004016115a9906130e4565b60405180910390fd5b600073ffffffffffffffffffffffffffffffffffffffff168273ffffffffffffffffffffffffffffffffffffffff161415611622576040517f08c379a000000000000000000000000000000000000000000000000000000000815260040161161990612f24565b60405180910390fd5b61162d838383611f0e565b60008060008573ffffffffffffffffffffffffffffffffffffffff1673ffffffffffffffffffffffffffffffffffffffff168152602001908152602001600020549050818110156116b3576040517f08c379a00000000000000000000000000000000000000000000000000000000081526004016116aa90613024565b60405180910390fd5b8181036000808673ffffffffffffffffffffffffffffffffffffffff1673ffffffffffffffffffffffffffffffffffffffff16815260200190815260200160002081905550816000808573ffffffffffffffffffffffffffffffffffffffff1673ffffffffffffffffffffffffffffffffffffffff16815260200190815260200160002060008282546117469190613240565b925050819055508273ffffffffffffffffffffffffffffffffffffffff168473ffffffffffffffffffffffffffffffffffffffff167fddf252ad1be2c89b69c2b068fc378daa952ba7f163c4a11628f55a4df523b3ef846040516117aa919061319f565b60405180910390a36117bd848484611f13565b50505050565b60007f000000000000000000000000000000000000000000000000000000000000000073ffffffffffffffffffffffffffffffffffffffff163073ffffffffffffffffffffffffffffffffffffffff1614801561183f57507f000000000000000000000000000000000000000000000000000000000000000046145b1561186c577f000000000000000000000000000000000000000000000000000000000000000090506118da565b6118d77f00000000000000000000000000000000000000000000000000000000000000007f00000000000000000000000000000000000000000000000000000000000000007f000000000000000000000000000000000000000000000000000000000000000061211c565b90505b90565b6000808380549050905060005b818110156119825760006118fe8284612156565b90508486828154811061193a577f4e487b7100000000000000000000000000000000000000000000000000000000600052603260045260246000fd5b9060005260206000200160000160009054906101000a900463ffffffff1663ffffffff16111561196c5780925061197c565b6001816119799190613240565b91505b506118ea565b60008214611a0a578460018361199891906132c7565b815481106119cf577f4e487b7100000000000000000000000000000000000000000000000000000000600052603260045260246000fd5b9060005260206000200160000160049054906101000a90047bffffffffffffffffffffffffffffffffffffffffffffffffffffffff16611a0d565b60005b7bffffffffffffffffffffffffffffffffffffffffffffffffffffffff169250505092915050565b6000611a408361073e565b90506000611a4d8461080f565b905082600660008673ffffffffffffffffffffffffffffffffffffffff1673ffffffffffffffffffffffffffffffffffffffff16815260200190815260200160002060006101000a81548173ffffffffffffffffffffffffffffffffffffffff021916908373ffffffffffffffffffffffffffffffffffffffff1602179055508273ffffffffffffffffffffffffffffffffffffffff168273ffffffffffffffffffffffffffffffffffffffff168573ffffffffffffffffffffffffffffffffffffffff167f3134e8a2e6d97e929a7e54011ea5485d7d196dd5f0ba4d4ef95803e8e3fc257f60405160405180910390a4611b49828483611f23565b50505050565b600081600001549050919050565b6000611b70611b6a6117c3565b8361217c565b9050919050565b6000806000611b88878787876121af565b91509150611b95816122bc565b8192505050949350505050565b600080600560008473ffffffffffffffffffffffffffffffffffffffff1673ffffffffffffffffffffffffffffffffffffffff1681526020019081526020016000209050611bef81611b4f565b9150611bfa8161260d565b50919050565b60007bffffffffffffffffffffffffffffffffffffffffffffffffffffffff905090565b60008060008580549050905060008114611cb85785600182611c4691906132c7565b81548110611c7d577f4e487b7100000000000000000000000000000000000000000000000000000000600052603260045260246000fd5b9060005260206000200160000160049054906101000a90047bffffffffffffffffffffffffffffffffffffffffffffffffffffffff16611cbb565b60005b7bffffffffffffffffffffffffffffffffffffffffffffffffffffffff169250611ce983858763ffffffff16565b9150600081118015611d6257504386600183611d0591906132c7565b81548110611d3c577f4e487b7100000000000000000000000000000000000000000000000000000000600052603260045260246000fd5b9060005260206000200160000160009054906101000a900463ffffffff1663ffffffff16145b15611e1557611d70826111df565b86600183611d7e91906132c7565b81548110611db5577f4e487b7100000000000000000000000000000000000000000000000000000000600052603260045260246000fd5b9060005260206000200160000160046101000a8154817bffffffffffffffffffffffffffffffffffffffffffffffffffffffff02191690837bffffffffffffffffffffffffffffffffffffffffffffffffffffffff160217905550611f05565b856040518060400160405280611e2a4361124a565b63ffffffff168152602001611e3e856111df565b7bffffffffffffffffffffffffffffffffffffffffffffffffffffffff168152509080600181540180825580915050600190039060005260206000200160009091909190915060008201518160000160006101000a81548163ffffffff021916908363ffffffff16021790555060208201518160000160046101000a8154817bffffffffffffffffffffffffffffffffffffffffffffffffffffffff02191690837bffffffffffffffffffffffffffffffffffffffffffffffffffffffff16021790555050505b50935093915050565b505050565b611f1e83838361129d565b505050565b8173ffffffffffffffffffffffffffffffffffffffff168373ffffffffffffffffffffffffffffffffffffffff1614158015611f5f5750600081115b1561211757600073ffffffffffffffffffffffffffffffffffffffff168373ffffffffffffffffffffffffffffffffffffffff161461203d57600080611fe6600760008773ffffffffffffffffffffffffffffffffffffffff1673ffffffffffffffffffffffffffffffffffffffff1681526020019081526020016000206112cd85611c24565b915091508473ffffffffffffffffffffffffffffffffffffffff167fdec2bacdd2f05b59de34da9b523dff8be42e5e38e818c82fdb0bae774387a72483836040516120329291906131ba565b60405180910390a250505b600073ffffffffffffffffffffffffffffffffffffffff168273ffffffffffffffffffffffffffffffffffffffff1614612116576000806120bf600760008673ffffffffffffffffffffffffffffffffffffffff1673ffffffffffffffffffffffffffffffffffffffff1681526020019081526020016000206111c985611c24565b915091508373ffffffffffffffffffffffffffffffffffffffff167fdec2bacdd2f05b59de34da9b523dff8be42e5e38e818c82fdb0bae774387a724838360405161210b9291906131ba565b60405180910390a250505b5b505050565b60008383834630604051602001612137959493929190612e4a565b6040516020818303038152906040528051906020012090509392505050565b600060028284186121679190613296565b8284166121749190613240565b905092915050565b60008282604051602001612191929190612d1c565b60405160208183030381529060405280519060200120905092915050565b6000807f7fffffffffffffffffffffffffffffff5d576e7357a4501ddfe92f46681b20a08360001c11156121ea5760006003915091506122b3565b601b8560ff16141580156122025750601c8560ff1614155b156122145760006004915091506122b3565b6000600187878787604051600081526020016040526040516122399493929190612e9d565b6020604051602081039080840390855afa15801561225b573d6000803e3d6000fd5b505050602060405103519050600073ffffffffffffffffffffffffffffffffffffffff168173ffffffffffffffffffffffffffffffffffffffff1614156122aa576000600192509250506122b3565b80600092509250505b94509492505050565b600060048111156122f6577f4e487b7100000000000000000000000000000000000000000000000000000000600052602160045260246000fd5b81600481111561232f577f4e487b7100000000000000000000000000000000000000000000000000000000600052602160045260246000fd5b141561233a5761260a565b60016004811115612374577f4e487b7100000000000000000000000000000000000000000000000000000000600052602160045260246000fd5b8160048111156123ad577f4e487b7100000000000000000000000000000000000000000000000000000000600052602160045260246000fd5b14156123ee576040517f08c379a00000000000000000000000000000000000000000000000000000000081526004016123e590612f04565b60405180910390fd5b60026004811115612428577f4e487b7100000000000000000000000000000000000000000000000000000000600052602160045260246000fd5b816004811115612461577f4e487b7100000000000000000000000000000000000000000000000000000000600052602160045260246000fd5b14156124a2576040517f08c379a000000000000000000000000000000000000000000000000000000000815260040161249990612f84565b60405180910390fd5b600360048111156124dc577f4e487b7100000000000000000000000000000000000000000000000000000000600052602160045260246000fd5b816004811115612515577f4e487b7100000000000000000000000000000000000000000000000000000000600052602160045260246000fd5b1415612556576040517f08c379a000000000000000000000000000000000000000000000000000000000815260040161254d90613044565b60405180910390fd5b60048081111561258f577f4e487b7100000000000000000000000000000000000000000000000000000000600052602160045260246000fd5b8160048111156125c8577f4e487b7100000000000000000000000000000000000000000000000000000000600052602160045260246000fd5b1415612609576040517f08c379a000000000000000000000000000000000000000000000000000000000815260040161260090613064565b60405180910390fd5b5b50565b6001816000016000828254019250508190555050565b6040518060400160405280600063ffffffff16815260200160007bffffffffffffffffffffffffffffffffffffffffffffffffffffffff1681525090565b6000813590506126708161399e565b92915050565b600081359050612685816139b5565b92915050565b60008135905061269a816139cc565b92915050565b6000813590506126af816139e3565b92915050565b6000813590506126c4816139fa565b92915050565b6000602082840312156126dc57600080fd5b60006126ea84828501612661565b91505092915050565b6000806040838503121561270657600080fd5b600061271485828601612661565b925050602061272585828601612661565b9150509250929050565b60008060006060848603121561274457600080fd5b600061275286828701612661565b935050602061276386828701612661565b92505060406127748682870161268b565b9150509250925092565b600080600080600080600060e0888a03121561279957600080fd5b60006127a78a828b01612661565b97505060206127b88a828b01612661565b96505060406127c98a828b0161268b565b95505060606127da8a828b0161268b565b94505060806127eb8a828b016126b5565b93505060a06127fc8a828b01612676565b92505060c061280d8a828b01612676565b91505092959891949750929550565b6000806040838503121561282f57600080fd5b600061283d85828601612661565b925050602061284e8582860161268b565b9150509250929050565b60008060008060008060c0878903121561287157600080fd5b600061287f89828a01612661565b965050602061289089828a0161268b565b95505060406128a189828a0161268b565b94505060606128b289828a016126b5565b93505060806128c389828a01612676565b92505060a06128d489828a01612676565b9150509295509295509295565b600080604083850312156128f457600080fd5b600061290285828601612661565b9250506020612913858286016126a0565b9150509250929050565b60006020828403121561292f57600080fd5b600061293d8482850161268b565b91505092915050565b61294f816132fb565b82525050565b61295e8161330d565b82525050565b61296d81613319565b82525050565b61298461297f82613319565b6133f7565b82525050565b600061299582613219565b61299f8185613224565b93506129af818560208601613392565b6129b88161348e565b840191505092915050565b60006129d0601883613224565b91506129db8261349f565b602082019050919050565b60006129f3602383613224565b91506129fe826134c8565b604082019050919050565b6000612a16601f83613224565b9150612a2182613517565b602082019050919050565b6000612a39601d83613224565b9150612a4482613540565b602082019050919050565b6000612a5c601f83613224565b9150612a6782613569565b602082019050919050565b6000612a7f601983613224565b9150612a8a82613592565b602082019050919050565b6000612aa2602283613224565b9150612aad826135bb565b604082019050919050565b6000612ac5600283613235565b9150612ad08261360a565b600282019050919050565b6000612ae8601d83613224565b9150612af382613633565b602082019050919050565b6000612b0b601d83613224565b9150612b168261365c565b602082019050919050565b6000612b2e602683613224565b9150612b3982613685565b604082019050919050565b6000612b51602283613224565b9150612b5c826136d4565b604082019050919050565b6000612b74602283613224565b9150612b7f82613723565b604082019050919050565b6000612b97601e83613224565b9150612ba282613772565b602082019050919050565b6000612bba603083613224565b9150612bc58261379b565b604082019050919050565b6000612bdd602783613224565b9150612be8826137ea565b604082019050919050565b6000612c00602583613224565b9150612c0b82613839565b604082019050919050565b6000612c23602683613224565b9150612c2e82613888565b604082019050919050565b6000612c46602483613224565b9150612c51826138d7565b604082019050919050565b6000612c69602583613224565b9150612c7482613926565b604082019050919050565b6000612c8c601f83613224565b9150612c9782613975565b602082019050919050565b604082016000820151612cb86000850182612cef565b506020820151612ccb6020850182612cd1565b50505050565b612cda81613343565b82525050565b612ce98161336b565b82525050565b612cf881613375565b82525050565b612d0781613375565b82525050565b612d1681613385565b82525050565b6000612d2782612ab8565b9150612d338285612973565b602082019150612d438284612973565b6020820191508190509392505050565b6000602082019050612d686000830184612946565b92915050565b6000602082019050612d836000830184612955565b92915050565b6000602082019050612d9e6000830184612964565b92915050565b600060c082019050612db96000830189612964565b612dc66020830188612946565b612dd36040830187612946565b612de06060830186612ce0565b612ded6080830185612ce0565b612dfa60a0830184612ce0565b979650505050505050565b6000608082019050612e1a6000830187612964565b612e276020830186612946565b612e346040830185612ce0565b612e416060830184612ce0565b95945050505050565b600060a082019050612e5f6000830188612964565b612e6c6020830187612964565b612e796040830186612964565b612e866060830185612ce0565b612e936080830184612946565b9695505050505050565b6000608082019050612eb26000830187612964565b612ebf6020830186612d0d565b612ecc6040830185612964565b612ed96060830184612964565b95945050505050565b60006020820190508181036000830152612efc818461298a565b905092915050565b60006020820190508181036000830152612f1d816129c3565b9050919050565b60006020820190508181036000830152612f3d816129e6565b9050919050565b60006020820190508181036000830152612f5d81612a09565b9050919050565b60006020820190508181036000830152612f7d81612a2c565b9050919050565b60006020820190508181036000830152612f9d81612a4f565b9050919050565b60006020820190508181036000830152612fbd81612a72565b9050919050565b60006020820190508181036000830152612fdd81612a95565b9050919050565b60006020820190508181036000830152612ffd81612adb565b9050919050565b6000602082019050818103600083015261301d81612afe565b9050919050565b6000602082019050818103600083015261303d81612b21565b9050919050565b6000602082019050818103600083015261305d81612b44565b9050919050565b6000602082019050818103600083015261307d81612b67565b9050919050565b6000602082019050818103600083015261309d81612b8a565b9050919050565b600060208201905081810360008301526130bd81612bad565b9050919050565b600060208201905081810360008301526130dd81612bd0565b9050919050565b600060208201905081810360008301526130fd81612bf3565b9050919050565b6000602082019050818103600083015261311d81612c16565b9050919050565b6000602082019050818103600083015261313d81612c39565b9050919050565b6000602082019050818103600083015261315d81612c5c565b9050919050565b6000602082019050818103600083015261317d81612c7f565b9050919050565b60006040820190506131996000830184612ca2565b92915050565b60006020820190506131b46000830184612ce0565b92915050565b60006040820190506131cf6000830185612ce0565b6131dc6020830184612ce0565b9392505050565b60006020820190506131f86000830184612cfe565b92915050565b60006020820190506132136000830184612d0d565b92915050565b600081519050919050565b600082825260208201905092915050565b600081905092915050565b600061324b8261336b565b91506132568361336b565b9250827fffffffffffffffffffffffffffffffffffffffffffffffffffffffffffffffff0382111561328b5761328a613401565b5b828201905092915050565b60006132a18261336b565b91506132ac8361336b565b9250826132bc576132bb613430565b5b828204905092915050565b60006132d28261336b565b91506132dd8361336b565b9250828210156132f0576132ef613401565b5b828203905092915050565b600061330682613323565b9050919050565b60008115159050919050565b6000819050919050565b600073ffffffffffffffffffffffffffffffffffffffff82169050919050565b60007bffffffffffffffffffffffffffffffffffffffffffffffffffffffff82169050919050565b6000819050919050565b600063ffffffff82169050919050565b600060ff82169050919050565b60005b838110156133b0578082015181840152602081019050613395565b838111156133bf576000848401525b50505050565b600060028204905060018216806133dd57607f821691505b602082108114156133f1576133f061345f565b5b50919050565b6000819050919050565b7f4e487b7100000000000000000000000000000000000000000000000000000000600052601160045260246000fd5b7f4e487b7100000000000000000000000000000000000000000000000000000000600052601260045260246000fd5b7f4e487b7100000000000000000000000000000000000000000000000000000000600052602260045260246000fd5b6000601f19601f8301169050919050565b7f45434453413a20696e76616c6964207369676e61747572650000000000000000600082015250565b7f45524332303a207472616e7366657220746f20746865207a65726f206164647260008201527f6573730000000000000000000000000000000000000000000000000000000000602082015250565b7f4552433230566f7465733a20626c6f636b206e6f7420796574206d696e656400600082015250565b7f4552433230566f7465733a207369676e61747572652065787069726564000000600082015250565b7f45434453413a20696e76616c6964207369676e6174757265206c656e67746800600082015250565b7f4552433230566f7465733a20696e76616c6964206e6f6e636500000000000000600082015250565b7f45524332303a20617070726f766520746f20746865207a65726f20616464726560008201527f7373000000000000000000000000000000000000000000000000000000000000602082015250565b7f1901000000000000000000000000000000000000000000000000000000000000600082015250565b7f45524332303a20696e73756666696369656e7420616c6c6f77616e6365000000600082015250565b7f45524332305065726d69743a206578706972656420646561646c696e65000000600082015250565b7f45524332303a207472616e7366657220616d6f756e742065786365656473206260008201527f616c616e63650000000000000000000000000000000000000000000000000000602082015250565b7f45434453413a20696e76616c6964207369676e6174757265202773272076616c60008201527f7565000000000000000000000000000000000000000000000000000000000000602082015250565b7f45434453413a20696e76616c6964207369676e6174757265202776272076616c60008201527f7565000000000000000000000000000000000000000000000000000000000000602082015250565b7f45524332305065726d69743a20696e76616c6964207369676e61747572650000600082015250565b7f4552433230566f7465733a20746f74616c20737570706c79207269736b73206f60008201527f766572666c6f77696e6720766f74657300000000000000000000000000000000602082015250565b7f53616665436173743a2076616c756520646f65736e27742066697420696e203260008201527f3234206269747300000000000000000000000000000000000000000000000000602082015250565b7f45524332303a207472616e736665722066726f6d20746865207a65726f20616460008201527f6472657373000000000000000000000000000000000000000000000000000000602082015250565b7f53616665436173743a2076616c756520646f65736e27742066697420696e203360008201527f3220626974730000000000000000000000000000000000000000000000000000602082015250565b7f45524332303a20617070726f76652066726f6d20746865207a65726f2061646460008201527f7265737300000000000000000000000000000000000000000000000000000000602082015250565b7f45524332303a2064656372656173656420616c6c6f77616e63652062656c6f7760008201527f207a65726f000000000000000000000000000000000000000000000000000000602082015250565b7f45524332303a206d696e7420746f20746865207a65726f206164647265737300600082015250565b6139a7816132fb565b81146139b257600080fd5b50565b6139be81613319565b81146139c957600080fd5b50565b6139d58161336b565b81146139e057600080fd5b50565b6139ec81613375565b81146139f757600080fd5b50565b613a0381613385565b8114613a0e57600080fd5b5056fea26469706673582212208b12e401acfdd8b23cf39e558c038374e5e0bbc2ba496db3b14f0a470d00463a64736f6c63430008040033",
  "linkReferences": {},
  "deployedLinkReferences": {}
}