{
  "_format": "hh-sol-artifact-1",
  "contractName": "GovernorContract",
  "sourceName": "contracts/governance_standard/GovernorContract.sol",
  "abi": [
    {
      "inputs": [
        {
          "internalType": "contract IVotes",
          "name": "_token",
          "type": "address"
        },
        {
          "internalType": "contract TimelockController",
          "name": "_timelock",
          "type": "address"
        }
      ],
      "stateMutability": "nonpayable",
      "type": "constructor"
    },
    {
      "anonymous": false,
      "inputs": [
        {
          "indexed": false,
          "internalType": "uint256",
          "name": "proposalId",
          "type": "uint256"
        }
      ],
      "name": "ProposalCanceled",
      "type": "event"
    },
    {
      "anonymous": false,
      "inputs": [
        {
          "indexed": false,
          "internalType": "uint256",
          "name": "proposalId",
          "type": "uint256"
        },
        {
          "indexed": false,
          "internalType": "address",
          "name": "proposer",
          "type": "address"
        },
        {
          "indexed": false,
          "internalType": "address[]",
          "name": "targets",
          "type": "address[]"
        },
        {
          "indexed": false,
          "internalType": "uint256[]",
          "name": "values",
          "type": "uint256[]"
        },
        {
          "indexed": false,
          "internalType": "string[]",
          "name": "signatures",
          "type": "string[]"
        },
        {
          "indexed": false,
          "internalType": "bytes[]",
          "name": "calldatas",
          "type": "bytes[]"
        },
        {
          "indexed": false,
          "internalType": "uint256",
          "name": "startBlock",
          "type": "uint256"
        },
        {
          "indexed": false,
          "internalType": "uint256",
          "name": "endBlock",
          "type": "uint256"
        },
        {
          "indexed": false,
          "internalType": "string",
          "name": "description",
          "type": "string"
        }
      ],
      "name": "ProposalCreated",
      "type": "event"
    },
    {
      "anonymous": false,
      "inputs": [
        {
          "indexed": false,
          "internalType": "uint256",
          "name": "proposalId",
          "type": "uint256"
        }
      ],
      "name": "ProposalExecuted",
      "type": "event"
    },
    {
      "anonymous": false,
      "inputs": [
        {
          "indexed": false,
          "internalType": "uint256",
          "name": "proposalId",
          "type": "uint256"
        },
        {
          "indexed": false,
          "internalType": "uint256",
          "name": "eta",
          "type": "uint256"
        }
      ],
      "name": "ProposalQueued",
      "type": "event"
    },
    {
      "anonymous": false,
      "inputs": [
        {
          "indexed": false,
          "internalType": "uint256",
          "name": "oldProposalThreshold",
          "type": "uint256"
        },
        {
          "indexed": false,
          "internalType": "uint256",
          "name": "newProposalThreshold",
          "type": "uint256"
        }
      ],
      "name": "ProposalThresholdSet",
      "type": "event"
    },
    {
      "anonymous": false,
      "inputs": [
        {
          "indexed": false,
          "internalType": "uint256",
          "name": "oldQuorumNumerator",
          "type": "uint256"
        },
        {
          "indexed": false,
          "internalType": "uint256",
          "name": "newQuorumNumerator",
          "type": "uint256"
        }
      ],
      "name": "QuorumNumeratorUpdated",
      "type": "event"
    },
    {
      "anonymous": false,
      "inputs": [
        {
          "indexed": false,
          "internalType": "address",
          "name": "oldTimelock",
          "type": "address"
        },
        {
          "indexed": false,
          "internalType": "address",
          "name": "newTimelock",
          "type": "address"
        }
      ],
      "name": "TimelockChange",
      "type": "event"
    },
    {
      "anonymous": false,
      "inputs": [
        {
          "indexed": true,
          "internalType": "address",
          "name": "voter",
          "type": "address"
        },
        {
          "indexed": false,
          "internalType": "uint256",
          "name": "proposalId",
          "type": "uint256"
        },
        {
          "indexed": false,
          "internalType": "uint8",
          "name": "support",
          "type": "uint8"
        },
        {
          "indexed": false,
          "internalType": "uint256",
          "name": "weight",
          "type": "uint256"
        },
        {
          "indexed": false,
          "internalType": "string",
          "name": "reason",
          "type": "string"
        }
      ],
      "name": "VoteCast",
      "type": "event"
    },
    {
      "anonymous": false,
      "inputs": [
        {
          "indexed": false,
          "internalType": "uint256",
          "name": "oldVotingDelay",
          "type": "uint256"
        },
        {
          "indexed": false,
          "internalType": "uint256",
          "name": "newVotingDelay",
          "type": "uint256"
        }
      ],
      "name": "VotingDelaySet",
      "type": "event"
    },
    {
      "anonymous": false,
      "inputs": [
        {
          "indexed": false,
          "internalType": "uint256",
          "name": "oldVotingPeriod",
          "type": "uint256"
        },
        {
          "indexed": false,
          "internalType": "uint256",
          "name": "newVotingPeriod",
          "type": "uint256"
        }
      ],
      "name": "VotingPeriodSet",
      "type": "event"
    },
    {
      "inputs": [],
      "name": "BALLOT_TYPEHASH",
      "outputs": [
        {
          "internalType": "bytes32",
          "name": "",
          "type": "bytes32"
        }
      ],
      "stateMutability": "view",
      "type": "function"
    },
    {
      "inputs": [],
      "name": "COUNTING_MODE",
      "outputs": [
        {
          "internalType": "string",
          "name": "",
          "type": "string"
        }
      ],
      "stateMutability": "pure",
      "type": "function"
    },
    {
      "inputs": [
        {
          "internalType": "uint256",
          "name": "proposalId",
          "type": "uint256"
        },
        {
          "internalType": "uint8",
          "name": "support",
          "type": "uint8"
        }
      ],
      "name": "castVote",
      "outputs": [
        {
          "internalType": "uint256",
          "name": "",
          "type": "uint256"
        }
      ],
      "stateMutability": "nonpayable",
      "type": "function"
    },
    {
      "inputs": [
        {
          "internalType": "uint256",
          "name": "proposalId",
          "type": "uint256"
        },
        {
          "internalType": "uint8",
          "name": "support",
          "type": "uint8"
        },
        {
          "internalType": "uint8",
          "name": "v",
          "type": "uint8"
        },
        {
          "internalType": "bytes32",
          "name": "r",
          "type": "bytes32"
        },
        {
          "internalType": "bytes32",
          "name": "s",
          "type": "bytes32"
        }
      ],
      "name": "castVoteBySig",
      "outputs": [
        {
          "internalType": "uint256",
          "name": "",
          "type": "uint256"
        }
      ],
      "stateMutability": "nonpayable",
      "type": "function"
    },
    {
      "inputs": [
        {
          "internalType": "uint256",
          "name": "proposalId",
          "type": "uint256"
        },
        {
          "internalType": "uint8",
          "name": "support",
          "type": "uint8"
        },
        {
          "internalType": "string",
          "name": "reason",
          "type": "string"
        }
      ],
      "name": "castVoteWithReason",
      "outputs": [
        {
          "internalType": "uint256",
          "name": "",
          "type": "uint256"
        }
      ],
      "stateMutability": "nonpayable",
      "type": "function"
    },
    {
      "inputs": [
        {
          "internalType": "address[]",
          "name": "targets",
          "type": "address[]"
        },
        {
          "internalType": "uint256[]",
          "name": "values",
          "type": "uint256[]"
        },
        {
          "internalType": "bytes[]",
          "name": "calldatas",
          "type": "bytes[]"
        },
        {
          "internalType": "bytes32",
          "name": "descriptionHash",
          "type": "bytes32"
        }
      ],
      "name": "execute",
      "outputs": [
        {
          "internalType": "uint256",
          "name": "",
          "type": "uint256"
        }
      ],
      "stateMutability": "payable",
      "type": "function"
    },
    {
      "inputs": [
        {
          "internalType": "address",
          "name": "account",
          "type": "address"
        },
        {
          "internalType": "uint256",
          "name": "blockNumber",
          "type": "uint256"
        }
      ],
      "name": "getVotes",
      "outputs": [
        {
          "internalType": "uint256",
          "name": "",
          "type": "uint256"
        }
      ],
      "stateMutability": "view",
      "type": "function"
    },
    {
      "inputs": [
        {
          "internalType": "uint256",
          "name": "proposalId",
          "type": "uint256"
        },
        {
          "internalType": "address",
          "name": "account",
          "type": "address"
        }
      ],
      "name": "hasVoted",
      "outputs": [
        {
          "internalType": "bool",
          "name": "",
          "type": "bool"
        }
      ],
      "stateMutability": "view",
      "type": "function"
    },
    {
      "inputs": [
        {
          "internalType": "address[]",
          "name": "targets",
          "type": "address[]"
        },
        {
          "internalType": "uint256[]",
          "name": "values",
          "type": "uint256[]"
        },
        {
          "internalType": "bytes[]",
          "name": "calldatas",
          "type": "bytes[]"
        },
        {
          "internalType": "bytes32",
          "name": "descriptionHash",
          "type": "bytes32"
        }
      ],
      "name": "hashProposal",
      "outputs": [
        {
          "internalType": "uint256",
          "name": "",
          "type": "uint256"
        }
      ],
      "stateMutability": "pure",
      "type": "function"
    },
    {
      "inputs": [],
      "name": "name",
      "outputs": [
        {
          "internalType": "string",
          "name": "",
          "type": "string"
        }
      ],
      "stateMutability": "view",
      "type": "function"
    },
    {
      "inputs": [
        {
          "internalType": "uint256",
          "name": "proposalId",
          "type": "uint256"
        }
      ],
      "name": "proposalDeadline",
      "outputs": [
        {
          "internalType": "uint256",
          "name": "",
          "type": "uint256"
        }
      ],
      "stateMutability": "view",
      "type": "function"
    },
    {
      "inputs": [
        {
          "internalType": "uint256",
          "name": "proposalId",
          "type": "uint256"
        }
      ],
      "name": "proposalEta",
      "outputs": [
        {
          "internalType": "uint256",
          "name": "",
          "type": "uint256"
        }
      ],
      "stateMutability": "view",
      "type": "function"
    },
    {
      "inputs": [
        {
          "internalType": "uint256",
          "name": "proposalId",
          "type": "uint256"
        }
      ],
      "name": "proposalSnapshot",
      "outputs": [
        {
          "internalType": "uint256",
          "name": "",
          "type": "uint256"
        }
      ],
      "stateMutability": "view",
      "type": "function"
    },
    {
      "inputs": [],
      "name": "proposalThreshold",
      "outputs": [
        {
          "internalType": "uint256",
          "name": "",
          "type": "uint256"
        }
      ],
      "stateMutability": "view",
      "type": "function"
    },
    {
      "inputs": [
        {
          "internalType": "uint256",
          "name": "proposalId",
          "type": "uint256"
        }
      ],
      "name": "proposalVotes",
      "outputs": [
        {
          "internalType": "uint256",
          "name": "againstVotes",
          "type": "uint256"
        },
        {
          "internalType": "uint256",
          "name": "forVotes",
          "type": "uint256"
        },
        {
          "internalType": "uint256",
          "name": "abstainVotes",
          "type": "uint256"
        }
      ],
      "stateMutability": "view",
      "type": "function"
    },
    {
      "inputs": [
        {
          "internalType": "address[]",
          "name": "targets",
          "type": "address[]"
        },
        {
          "internalType": "uint256[]",
          "name": "values",
          "type": "uint256[]"
        },
        {
          "internalType": "bytes[]",
          "name": "calldatas",
          "type": "bytes[]"
        },
        {
          "internalType": "string",
          "name": "description",
          "type": "string"
        }
      ],
      "name": "propose",
      "outputs": [
        {
          "internalType": "uint256",
          "name": "",
          "type": "uint256"
        }
      ],
      "stateMutability": "nonpayable",
      "type": "function"
    },
    {
      "inputs": [
        {
          "internalType": "address[]",
          "name": "targets",
          "type": "address[]"
        },
        {
          "internalType": "uint256[]",
          "name": "values",
          "type": "uint256[]"
        },
        {
          "internalType": "bytes[]",
          "name": "calldatas",
          "type": "bytes[]"
        },
        {
          "internalType": "bytes32",
          "name": "descriptionHash",
          "type": "bytes32"
        }
      ],
      "name": "queue",
      "outputs": [
        {
          "internalType": "uint256",
          "name": "",
          "type": "uint256"
        }
      ],
      "stateMutability": "nonpayable",
      "type": "function"
    },
    {
      "inputs": [
        {
          "internalType": "uint256",
          "name": "blockNumber",
          "type": "uint256"
        }
      ],
      "name": "quorum",
      "outputs": [
        {
          "internalType": "uint256",
          "name": "",
          "type": "uint256"
        }
      ],
      "stateMutability": "view",
      "type": "function"
    },
    {
      "inputs": [],
      "name": "quorumDenominator",
      "outputs": [
        {
          "internalType": "uint256",
          "name": "",
          "type": "uint256"
        }
      ],
      "stateMutability": "view",
      "type": "function"
    },
    {
      "inputs": [],
      "name": "quorumNumerator",
      "outputs": [
        {
          "internalType": "uint256",
          "name": "",
          "type": "uint256"
        }
      ],
      "stateMutability": "view",
      "type": "function"
    },
    {
      "inputs": [
        {
          "internalType": "address",
          "name": "target",
          "type": "address"
        },
        {
          "internalType": "uint256",
          "name": "value",
          "type": "uint256"
        },
        {
          "internalType": "bytes",
          "name": "data",
          "type": "bytes"
        }
      ],
      "name": "relay",
      "outputs": [],
      "stateMutability": "nonpayable",
      "type": "function"
    },
    {
      "inputs": [
        {
          "internalType": "uint256",
          "name": "newProposalThreshold",
          "type": "uint256"
        }
      ],
      "name": "setProposalThreshold",
      "outputs": [],
      "stateMutability": "nonpayable",
      "type": "function"
    },
    {
      "inputs": [
        {
          "internalType": "uint256",
          "name": "newVotingDelay",
          "type": "uint256"
        }
      ],
      "name": "setVotingDelay",
      "outputs": [],
      "stateMutability": "nonpayable",
      "type": "function"
    },
    {
      "inputs": [
        {
          "internalType": "uint256",
          "name": "newVotingPeriod",
          "type": "uint256"
        }
      ],
      "name": "setVotingPeriod",
      "outputs": [],
      "stateMutability": "nonpayable",
      "type": "function"
    },
    {
      "inputs": [
        {
          "internalType": "uint256",
          "name": "proposalId",
          "type": "uint256"
        }
      ],
      "name": "state",
      "outputs": [
        {
          "internalType": "enum IGovernor.ProposalState",
          "name": "",
          "type": "uint8"
        }
      ],
      "stateMutability": "view",
      "type": "function"
    },
    {
      "inputs": [
        {
          "internalType": "bytes4",
          "name": "interfaceId",
          "type": "bytes4"
        }
      ],
      "name": "supportsInterface",
      "outputs": [
        {
          "internalType": "bool",
          "name": "",
          "type": "bool"
        }
      ],
      "stateMutability": "view",
      "type": "function"
    },
    {
      "inputs": [],
      "name": "timelock",
      "outputs": [
        {
          "internalType": "address",
          "name": "",
          "type": "address"
        }
      ],
      "stateMutability": "view",
      "type": "function"
    },
    {
      "inputs": [],
      "name": "token",
      "outputs": [
        {
          "internalType": "contract IVotes",
          "name": "",
          "type": "address"
        }
      ],
      "stateMutability": "view",
      "type": "function"
    },
    {
      "inputs": [
        {
          "internalType": "uint256",
          "name": "newQuorumNumerator",
          "type": "uint256"
        }
      ],
      "name": "updateQuorumNumerator",
      "outputs": [],
      "stateMutability": "nonpayable",
      "type": "function"
    },
    {
      "inputs": [
        {
          "internalType": "contract TimelockController",
          "name": "newTimelock",
          "type": "address"
        }
      ],
      "name": "updateTimelock",
      "outputs": [],
      "stateMutability": "nonpayable",
      "type": "function"
    },
    {
      "inputs": [],
      "name": "version",
      "outputs": [
        {
          "internalType": "string",
          "name": "",
          "type": "string"
        }
      ],
      "stateMutability": "view",
      "type": "function"
    },
    {
      "inputs": [],
      "name": "votingDelay",
      "outputs": [
        {
          "internalType": "uint256",
          "name": "",
          "type": "uint256"
        }
      ],
      "stateMutability": "view",
      "type": "function"
    },
    {
      "inputs": [],
      "name": "votingPeriod",
      "outputs": [
        {
          "internalType": "uint256",
          "name": "",
          "type": "uint256"
        }
      ],
      "stateMutability": "view",
      "type": "function"
    },
    {
      "stateMutability": "payable",
      "type": "receive"
    }
  ],
  "bytecode": "0x6101606040523480156200001257600080fd5b5060405162005dcd38038062005dcd8339818101604052810190620000389190620005b9565b80603383600161b2fa670de0b6b3a76400006040518060400160405280601081526020017f476f7665726e6f72436f6e7472616374000000000000000000000000000000008152508062000091620001fb60201b60201c565b60008280519060200120905060008280519060200120905060007f8b73c3c69bb8fe3d512ecc4cf759cc79239f7b179b0ffacaa9a75d522b39400f90508260e081815250508161010081815250504660a08181525050620000fa8184846200023860201b60201c565b608081815250503073ffffffffffffffffffffffffffffffffffffffff1660c08173ffffffffffffffffffffffffffffffffffffffff1660601b81525050806101208181525050505050505080600090805190602001906200015e929190620004db565b505062000171836200027460201b60201c565b6200018282620002bb60201b60201c565b62000193816200034860201b60201c565b5050508073ffffffffffffffffffffffffffffffffffffffff166101408173ffffffffffffffffffffffffffffffffffffffff1660601b8152505050620001e0816200038f60201b60201c565b50620001f2816200043160201b60201c565b50505062000968565b60606040518060400160405280600181526020017f3100000000000000000000000000000000000000000000000000000000000000815250905090565b6000838383463060405160200162000255959493929190620006a8565b6040516020818303038152906040528051906020012090509392505050565b7fc565b045403dc03c2eea82b81a0465edad9e2e7fc4d97e11421c209da93d7a9360025482604051620002a992919062000749565b60405180910390a18060028190555050565b6000811162000301576040517f08c379a0000000000000000000000000000000000000000000000000000000008152600401620002f89062000727565b60405180910390fd5b7f7e3f7f0708a84de9203036abaa450dccc85ad5ff52f78c170f3edb55cf5e8828600354826040516200033692919062000749565b60405180910390a18060038190555050565b7fccb45da8d5717e6c4544694297c4ba5cf151d455c9bb0ed4fc7a38411bc05461600454826040516200037d92919062000749565b60405180910390a18060048190555050565b6200039f620004d260201b60201c565b811115620003e4576040517f08c379a0000000000000000000000000000000000000000000000000000000008152600401620003db9062000705565b60405180910390fd5b60006006549050816006819055507f0553476bf02ef2726e8ce5ced78d63e26e602e4a2257b1f559418e24b463399781836040516200042592919062000749565b60405180910390a15050565b7f08f74ea46ef7894f65eabfb5e6e695de773a000b47c529ab559178069b226401600760009054906101000a900473ffffffffffffffffffffffffffffffffffffffff1682604051620004869291906200067b565b60405180910390a180600760006101000a81548173ffffffffffffffffffffffffffffffffffffffff021916908373ffffffffffffffffffffffffffffffffffffffff16021790555050565b60006064905090565b828054620004e9906200080b565b90600052602060002090601f0160209004810192826200050d576000855562000559565b82601f106200052857805160ff191683800117855562000559565b8280016001018555821562000559579182015b82811115620005585782518255916020019190600101906200053b565b5b5090506200056891906200056c565b5090565b5b80821115620005875760008160009055506001016200056d565b5090565b6000815190506200059c8162000934565b92915050565b600081519050620005b3816200094e565b92915050565b60008060408385031215620005cd57600080fd5b6000620005dd858286016200058b565b9250506020620005f085828601620005a2565b9150509250929050565b620006058162000787565b82525050565b6200061681620007af565b82525050565b60006200062b60438362000776565b9150620006388262000870565b606082019050919050565b60006200065260278362000776565b91506200065f82620008e5565b604082019050919050565b620006758162000801565b82525050565b6000604082019050620006926000830185620005fa565b620006a16020830184620005fa565b9392505050565b600060a082019050620006bf60008301886200060b565b620006ce60208301876200060b565b620006dd60408301866200060b565b620006ec60608301856200066a565b620006fb6080830184620005fa565b9695505050505050565b6000602082019050818103600083015262000720816200061c565b9050919050565b60006020820190508181036000830152620007428162000643565b9050919050565b60006040820190506200076060008301856200066a565b6200076f60208301846200066a565b9392505050565b600082825260208201905092915050565b60006200079482620007e1565b9050919050565b6000620007a882620007e1565b9050919050565b6000819050919050565b6000620007c68262000787565b9050919050565b6000620007da826200079b565b9050919050565b600073ffffffffffffffffffffffffffffffffffffffff82169050919050565b6000819050919050565b600060028204905060018216806200082457607f821691505b602082108114156200083b576200083a62000841565b5b50919050565b7f4e487b7100000000000000000000000000000000000000000000000000000000600052602260045260246000fd5b7f476f7665726e6f72566f74657351756f72756d4672616374696f6e3a2071756f60008201527f72756d4e756d657261746f72206f7665722071756f72756d44656e6f6d696e6160208201527f746f720000000000000000000000000000000000000000000000000000000000604082015250565b7f476f7665726e6f7253657474696e67733a20766f74696e6720706572696f642060008201527f746f6f206c6f7700000000000000000000000000000000000000000000000000602082015250565b6200093f81620007b9565b81146200094b57600080fd5b50565b6200095981620007cd565b81146200096557600080fd5b50565b60805160a05160c05160601c60e05161010051610120516101405160601c6153f6620009d7600039600081816117010152818161218c01526122960152600061251e015260006125600152600061253f01526000612474015260006124ca015260006124f301526153f66000f3fe6080604052600436106101f25760003560e01c80637d5e81e21161010d578063c59057e4116100a0578063ea0217cf1161006f578063ea0217cf146107da578063eb9019d414610803578063ece40cc114610840578063f8ce560a14610869578063fc0c546a146108a657610238565b8063c59057e41461071c578063d33219b414610759578063dd4e2ba514610784578063deaaa7cc146107af57610238565b8063ab58fb8e116100dc578063ab58fb8e1461064e578063b58131b01461068b578063c01f9e37146106b6578063c28bc2fa146106f357610238565b80637d5e81e21461059257806397c3d334146105cf578063a7713a70146105fa578063a890c9101461062557610238565b80633bccf4fd1161018557806354fd4d501161015457806354fd4d50146104c457806356781388146104ef57806370b0f6601461052c5780637b3c71d31461055557610238565b80633bccf4fd146103ce5780633e4f49e61461040b5780634385963214610448578063544ffc9c1461048557610238565b8063160cbed7116101c1578063160cbed7146102f95780632656227d146103365780632d63f693146103665780633932abb1146103a357610238565b806301ffc9a71461023d57806302a251a31461027a57806306f3f9e6146102a557806306fdde03146102ce57610238565b36610238573073ffffffffffffffffffffffffffffffffffffffff166102166108d1565b73ffffffffffffffffffffffffffffffffffffffff161461023657600080fd5b005b600080fd5b34801561024957600080fd5b50610264600480360381019061025f9190613761565b6108e0565b60405161027191906141a5565b60405180910390f35b34801561028657600080fd5b5061028f6108f2565b60405161029c9190614562565b60405180910390f35b3480156102b157600080fd5b506102cc60048036038101906102c791906137b3565b610901565b005b3480156102da57600080fd5b506102e3610989565b6040516102f091906142e0565b60405180910390f35b34801561030557600080fd5b50610320600480360381019061031b91906135a1565b610a1b565b60405161032d9190614562565b60405180910390f35b610350600480360381019061034b91906135a1565b610d3f565b60405161035d9190614562565b60405180910390f35b34801561037257600080fd5b5061038d600480360381019061038891906137b3565b610f0a565b60405161039a9190614562565b60405180910390f35b3480156103af57600080fd5b506103b8610f78565b6040516103c59190614562565b60405180910390f35b3480156103da57600080fd5b506103f560048036038101906103f091906138e9565b610f87565b6040516104029190614562565b60405180910390f35b34801561041757600080fd5b50610432600480360381019061042d91906137b3565b611011565b60405161043f91906142c5565b60405180910390f35b34801561045457600080fd5b5061046f600480360381019061046a9190613805565b611023565b60405161047c91906141a5565b60405180910390f35b34801561049157600080fd5b506104ac60048036038101906104a791906137b3565b61108e565b6040516104bb93929190614656565b60405180910390f35b3480156104d057600080fd5b506104d96110c6565b6040516104e691906142e0565b60405180910390f35b3480156104fb57600080fd5b5061051660048036038101906105119190613841565b611103565b6040516105239190614562565b60405180910390f35b34801561053857600080fd5b50610553600480360381019061054e91906137b3565b611134565b005b34801561056157600080fd5b5061057c6004803603810190610577919061387d565b6111bc565b6040516105899190614562565b60405180910390f35b34801561059e57600080fd5b506105b960048036038101906105b4919061364c565b611224565b6040516105c69190614562565b60405180910390f35b3480156105db57600080fd5b506105e461123c565b6040516105f19190614562565b60405180910390f35b34801561060657600080fd5b5061060f611245565b60405161061c9190614562565b60405180910390f35b34801561063157600080fd5b5061064c6004803603810190610647919061378a565b61124f565b005b34801561065a57600080fd5b50610675600480360381019061067091906137b3565b6112d7565b6040516106829190614562565b60405180910390f35b34801561069757600080fd5b506106a06113b3565b6040516106ad9190614562565b60405180910390f35b3480156106c257600080fd5b506106dd60048036038101906106d891906137b3565b6113c2565b6040516106ea9190614562565b60405180910390f35b3480156106ff57600080fd5b5061071a60048036038101906107159190613535565b611430565b005b34801561072857600080fd5b50610743600480360381019061073e91906135a1565b611502565b6040516107509190614562565b60405180910390f35b34801561076557600080fd5b5061076e61153e565b60405161077b9190614000565b60405180910390f35b34801561079057600080fd5b50610799611568565b6040516107a691906142e0565b60405180910390f35b3480156107bb57600080fd5b506107c46115a5565b6040516107d191906141c0565b60405180910390f35b3480156107e657600080fd5b5061080160048036038101906107fc91906137b3565b6115c9565b005b34801561080f57600080fd5b5061082a600480360381019061082591906134f9565b611651565b6040516108379190614562565b60405180910390f35b34801561084c57600080fd5b50610867600480360381019061086291906137b3565b611665565b005b34801561087557600080fd5b50610890600480360381019061088b91906137b3565b6116ed565b60405161089d9190614562565b60405180910390f35b3480156108b257600080fd5b506108bb6116ff565b6040516108c891906142aa565b60405180910390f35b60006108db611723565b905090565b60006108eb8261174d565b9050919050565b60006108fc6117c7565b905090565b6109096108d1565b73ffffffffffffffffffffffffffffffffffffffff166109276117d1565b73ffffffffffffffffffffffffffffffffffffffff161461097d576040517f08c379a000000000000000000000000000000000000000000000000000000000815260040161097490614322565b60405180910390fd5b610986816117d9565b50565b60606000805461099890614bfe565b80601f01602080910402602001604051908101604052809291908181526020018280546109c490614bfe565b8015610a115780601f106109e657610100808354040283529160200191610a11565b820191906000526020600020905b8154815290600101906020018083116109f457829003601f168201915b5050505050905090565b600080610a2a86868686611502565b905060046007811115610a66577f4e487b7100000000000000000000000000000000000000000000000000000000600052602160045260246000fd5b610a6f82611011565b6007811115610aa7577f4e487b7100000000000000000000000000000000000000000000000000000000600052602160045260246000fd5b14610ae7576040517f08c379a0000000000000000000000000000000000000000000000000000000008152600401610ade906144c2565b60405180910390fd5b6000600760009054906101000a900473ffffffffffffffffffffffffffffffffffffffff1673ffffffffffffffffffffffffffffffffffffffff1663f27a0c926040518163ffffffff1660e01b815260040160206040518083038186803b158015610b5157600080fd5b505afa158015610b65573d6000803e3d6000fd5b505050506040513d601f19601f82011682018060405250810190610b8991906137dc565b9050600760009054906101000a900473ffffffffffffffffffffffffffffffffffffffff1673ffffffffffffffffffffffffffffffffffffffff1663b1c5f4278888886000896040518663ffffffff1660e01b8152600401610bef9594939291906140c7565b60206040518083038186803b158015610c0757600080fd5b505afa158015610c1b573d6000803e3d6000fd5b505050506040513d601f19601f82011682018060405250810190610c3f9190613738565b6008600084815260200190815260200160002081905550600760009054906101000a900473ffffffffffffffffffffffffffffffffffffffff1673ffffffffffffffffffffffffffffffffffffffff16638f2a0bb0888888600089876040518763ffffffff1660e01b8152600401610cbc9695949392919061412f565b600060405180830381600087803b158015610cd657600080fd5b505af1158015610cea573d6000803e3d6000fd5b505050507f9a2e42fd6722813d69113e7d0079d3d940171428df7373df9c7f7617cfda2892828242610d1c9190614927565b604051610d2a92919061462d565b60405180910390a18192505050949350505050565b600080610d4e86868686611502565b90506000610d5b82611011565b905060046007811115610d97577f4e487b7100000000000000000000000000000000000000000000000000000000600052602160045260246000fd5b816007811115610dd0577f4e487b7100000000000000000000000000000000000000000000000000000000600052602160045260246000fd5b1480610e4c575060056007811115610e11577f4e487b7100000000000000000000000000000000000000000000000000000000600052602160045260246000fd5b816007811115610e4a577f4e487b7100000000000000000000000000000000000000000000000000000000600052602160045260246000fd5b145b610e8b576040517f08c379a0000000000000000000000000000000000000000000000000000000008152600401610e82906144c2565b60405180910390fd5b600180600084815260200190815260200160002060020160006101000a81548160ff0219169083151502179055507f712ae1383f79ac853f8d882153778e0260ef8f03b504e2866e0593e04d2b291f82604051610ee89190614562565b60405180910390a1610efd828888888861186e565b8192505050949350505050565b6000610f67600160008481526020019081526020016000206000016040518060200160405290816000820160009054906101000a900467ffffffffffffffff1667ffffffffffffffff1667ffffffffffffffff1681525050611882565b67ffffffffffffffff169050919050565b6000610f82611890565b905090565b600080610fe8610fe07f150214d74d59b7d1e90c73fc22ef3d991dd0a76b046543d4d80ab92d2a50328f8989604051602001610fc59392919061422e565b6040516020818303038152906040528051906020012061189a565b8686866118b4565b9050611005878288604051806020016040528060008152506118df565b91505095945050505050565b600061101c82611a7f565b9050919050565b60006005600084815260200190815260200160002060030160008373ffffffffffffffffffffffffffffffffffffffff1673ffffffffffffffffffffffffffffffffffffffff16815260200190815260200160002060009054906101000a900460ff16905092915050565b600080600080600560008681526020019081526020016000209050806000015481600101548260020154935093509350509193909250565b60606040518060400160405280600181526020017f3100000000000000000000000000000000000000000000000000000000000000815250905090565b60008061110e6117d1565b905061112b848285604051806020016040528060008152506118df565b91505092915050565b61113c6108d1565b73ffffffffffffffffffffffffffffffffffffffff1661115a6117d1565b73ffffffffffffffffffffffffffffffffffffffff16146111b0576040517f08c379a00000000000000000000000000000000000000000000000000000000081526004016111a790614322565b60405180910390fd5b6111b981611cbd565b50565b6000806111c76117d1565b905061121986828787878080601f016020809104026020016040519081016040528093929190818152602001838380828437600081840152601f19601f820116905080830192505050505050506118df565b915050949350505050565b600061123285858585611d02565b9050949350505050565b60006064905090565b6000600654905090565b6112576108d1565b73ffffffffffffffffffffffffffffffffffffffff166112756117d1565b73ffffffffffffffffffffffffffffffffffffffff16146112cb576040517f08c379a00000000000000000000000000000000000000000000000000000000081526004016112c290614322565b60405180910390fd5b6112d481612028565b50565b600080600760009054906101000a900473ffffffffffffffffffffffffffffffffffffffff1673ffffffffffffffffffffffffffffffffffffffff1663d45c443560086000868152602001908152602001600020546040518263ffffffff1660e01b815260040161134891906141c0565b60206040518083038186803b15801561136057600080fd5b505afa158015611374573d6000803e3d6000fd5b505050506040513d601f19601f8201168201806040525081019061139891906137dc565b9050600181146113a857806113ab565b60005b915050919050565b60006113bd6120c7565b905090565b600061141f600160008481526020019081526020016000206001016040518060200160405290816000820160009054906101000a900467ffffffffffffffff1667ffffffffffffffff1667ffffffffffffffff1681525050611882565b67ffffffffffffffff169050919050565b6114386108d1565b73ffffffffffffffffffffffffffffffffffffffff166114566117d1565b73ffffffffffffffffffffffffffffffffffffffff16146114ac576040517f08c379a00000000000000000000000000000000000000000000000000000000081526004016114a390614322565b60405180910390fd5b6114fb8483838080601f016020809104026020016040519081016040528093929190818152602001838380828437600081840152601f19601f82011690508083019250505050505050856120d1565b5050505050565b60008484848460405160200161151b949392919061406d565b6040516020818303038152906040528051906020012060001c9050949350505050565b6000600760009054906101000a900473ffffffffffffffffffffffffffffffffffffffff16905090565b60606040518060400160405280602081526020017f737570706f72743d627261766f2671756f72756d3d666f722c6162737461696e815250905090565b7f150214d74d59b7d1e90c73fc22ef3d991dd0a76b046543d4d80ab92d2a50328f81565b6115d16108d1565b73ffffffffffffffffffffffffffffffffffffffff166115ef6117d1565b73ffffffffffffffffffffffffffffffffffffffff1614611645576040517f08c379a000000000000000000000000000000000000000000000000000000000815260040161163c90614322565b60405180910390fd5b61164e81612100565b50565b600061165d8383612188565b905092915050565b61166d6108d1565b73ffffffffffffffffffffffffffffffffffffffff1661168b6117d1565b73ffffffffffffffffffffffffffffffffffffffff16146116e1576040517f08c379a00000000000000000000000000000000000000000000000000000000081526004016116d890614322565b60405180910390fd5b6116ea8161223d565b50565b60006116f882612282565b9050919050565b7f000000000000000000000000000000000000000000000000000000000000000081565b6000600760009054906101000a900473ffffffffffffffffffffffffffffffffffffffff16905090565b60007f6e665ced000000000000000000000000000000000000000000000000000000007bffffffffffffffffffffffffffffffffffffffffffffffffffffffff1916827bffffffffffffffffffffffffffffffffffffffffffffffffffffffff191614806117c057506117bf82612358565b5b9050919050565b6000600354905090565b600033905090565b6117e161123c565b811115611823576040517f08c379a000000000000000000000000000000000000000000000000000000000815260040161181a90614342565b60405180910390fd5b60006006549050816006819055507f0553476bf02ef2726e8ce5ced78d63e26e602e4a2257b1f559418e24b4633997818360405161186292919061462d565b60405180910390a15050565b61187b85858585856123d2565b5050505050565b600081600001519050919050565b6000600254905090565b60006118ad6118a7612470565b8361258a565b9050919050565b60008060006118c5878787876125bd565b915091506118d2816126ca565b8192505050949350505050565b60008060016000878152602001908152602001600020905060016007811115611931577f4e487b7100000000000000000000000000000000000000000000000000000000600052602160045260246000fd5b61193a87611011565b6007811115611972577f4e487b7100000000000000000000000000000000000000000000000000000000600052602160045260246000fd5b146119b2576040517f08c379a00000000000000000000000000000000000000000000000000000000081526004016119a990614442565b60405180910390fd5b6000611a1086611a01846000016040518060200160405290816000820160009054906101000a900467ffffffffffffffff1667ffffffffffffffff1667ffffffffffffffff1681525050611882565b67ffffffffffffffff16611651565b9050611a1e87878784612a1b565b8573ffffffffffffffffffffffffffffffffffffffff167fb8e138887d0aa13bab447e82de9d5c1777041ecd21ca36ba824ff1e6c07ddda488878488604051611a6a949392919061468d565b60405180910390a28092505050949350505050565b600080611a8b83612c93565b905060046007811115611ac7577f4e487b7100000000000000000000000000000000000000000000000000000000600052602160045260246000fd5b816007811115611b00577f4e487b7100000000000000000000000000000000000000000000000000000000600052602160045260246000fd5b14611b0e5780915050611cb8565b6000600860008581526020019081526020016000205490506000801b811415611b3b578192505050611cb8565b600760009054906101000a900473ffffffffffffffffffffffffffffffffffffffff1673ffffffffffffffffffffffffffffffffffffffff16632ab0f529826040518263ffffffff1660e01b8152600401611b9691906141c0565b60206040518083038186803b158015611bae57600080fd5b505afa158015611bc2573d6000803e3d6000fd5b505050506040513d601f19601f82011682018060405250810190611be6919061370f565b15611bf657600792505050611cb8565b600760009054906101000a900473ffffffffffffffffffffffffffffffffffffffff1673ffffffffffffffffffffffffffffffffffffffff1663584b153e826040518263ffffffff1660e01b8152600401611c5191906141c0565b60206040518083038186803b158015611c6957600080fd5b505afa158015611c7d573d6000803e3d6000fd5b505050506040513d601f19601f82011682018060405250810190611ca1919061370f565b15611cb157600592505050611cb8565b6002925050505b919050565b7fc565b045403dc03c2eea82b81a0465edad9e2e7fc4d97e11421c209da93d7a9360025482604051611cf092919061462d565b60405180910390a18060028190555050565b6000611d0c6113b3565b611d2233600143611d1d9190614a46565b611651565b1015611d63576040517f08c379a0000000000000000000000000000000000000000000000000000000008152600401611d5a90614362565b60405180910390fd5b6000611d788686868680519060200120611502565b90508451865114611dbe576040517f08c379a0000000000000000000000000000000000000000000000000000000008152600401611db5906143a2565b60405180910390fd5b8351865114611e02576040517f08c379a0000000000000000000000000000000000000000000000000000000008152600401611df9906143a2565b60405180910390fd5b6000865111611e46576040517f08c379a0000000000000000000000000000000000000000000000000000000008152600401611e3d90614462565b60405180910390fd5b6000600160008381526020019081526020016000209050611ea6816000016040518060200160405290816000820160009054906101000a900467ffffffffffffffff1667ffffffffffffffff1667ffffffffffffffff1681525050612da8565b611ee5576040517f08c379a0000000000000000000000000000000000000000000000000000000008152600401611edc90614522565b60405180910390fd5b6000611ef7611ef2610f78565b612dc2565b611f0043612dc2565b611f0a919061497d565b90506000611f1e611f196108f2565b612dc2565b82611f29919061497d565b9050611f418284600001612e1990919063ffffffff16565b611f578184600101612e1990919063ffffffff16565b7f7d84a6263ae0d98d3329bd7b46bb4e8d6f98cd35a7adb45c274c8b7fd5ebd5e084611f816117d1565b8b8b8d5167ffffffffffffffff811115611fc4577f4e487b7100000000000000000000000000000000000000000000000000000000600052604160045260246000fd5b604051908082528060200260200182016040528015611ff757816020015b6060815260200190600190039081611fe25790505b508c88888e6040516120119998979695949392919061457d565b60405180910390a183945050505050949350505050565b7f08f74ea46ef7894f65eabfb5e6e695de773a000b47c529ab559178069b226401600760009054906101000a900473ffffffffffffffffffffffffffffffffffffffff168260405161207b92919061401b565b60405180910390a180600760006101000a81548173ffffffffffffffffffffffffffffffffffffffff021916908373ffffffffffffffffffffffffffffffffffffffff16021790555050565b6000600454905090565b60606120f784848460405180606001604052806029815260200161539860299139612e48565b90509392505050565b60008111612143576040517f08c379a000000000000000000000000000000000000000000000000000000000815260040161213a906143c2565b60405180910390fd5b7f7e3f7f0708a84de9203036abaa450dccc85ad5ff52f78c170f3edb55cf5e88286003548260405161217692919061462d565b60405180910390a18060038190555050565b60007f000000000000000000000000000000000000000000000000000000000000000073ffffffffffffffffffffffffffffffffffffffff16633a46b1a884846040518363ffffffff1660e01b81526004016121e5929190614044565b60206040518083038186803b1580156121fd57600080fd5b505afa158015612211573d6000803e3d6000fd5b505050506040513d601f19601f8201168201806040525081019061223591906137dc565b905092915050565b7fccb45da8d5717e6c4544694297c4ba5cf151d455c9bb0ed4fc7a38411bc054616004548260405161227092919061462d565b60405180910390a18060048190555050565b600061228c61123c565b612294611245565b7f000000000000000000000000000000000000000000000000000000000000000073ffffffffffffffffffffffffffffffffffffffff16638e539e8c856040518263ffffffff1660e01b81526004016122ed9190614562565b60206040518083038186803b15801561230557600080fd5b505afa158015612319573d6000803e3d6000fd5b505050506040513d601f19601f8201168201806040525081019061233d91906137dc565b61234791906149ec565b61235191906149bb565b9050919050565b60007fbf26d897000000000000000000000000000000000000000000000000000000007bffffffffffffffffffffffffffffffffffffffffffffffffffffffff1916827bffffffffffffffffffffffffffffffffffffffffffffffffffffffff191614806123cb57506123ca82612f5c565b5b9050919050565b600760009054906101000a900473ffffffffffffffffffffffffffffffffffffffff1673ffffffffffffffffffffffffffffffffffffffff1663e38335e5348686866000876040518763ffffffff1660e01b81526004016124379594939291906140c7565b6000604051808303818588803b15801561245057600080fd5b505af1158015612464573d6000803e3d6000fd5b50505050505050505050565b60007f000000000000000000000000000000000000000000000000000000000000000073ffffffffffffffffffffffffffffffffffffffff163073ffffffffffffffffffffffffffffffffffffffff161480156124ec57507f000000000000000000000000000000000000000000000000000000000000000046145b15612519577f00000000000000000000000000000000000000000000000000000000000000009050612587565b6125847f00000000000000000000000000000000000000000000000000000000000000007f00000000000000000000000000000000000000000000000000000000000000007f0000000000000000000000000000000000000000000000000000000000000000612fc6565b90505b90565b6000828260405160200161259f929190613fc9565b60405160208183030381529060405280519060200120905092915050565b6000807f7fffffffffffffffffffffffffffffff5d576e7357a4501ddfe92f46681b20a08360001c11156125f85760006003915091506126c1565b601b8560ff16141580156126105750601c8560ff1614155b156126225760006004915091506126c1565b6000600187878787604051600081526020016040526040516126479493929190614265565b6020604051602081039080840390855afa158015612669573d6000803e3d6000fd5b505050602060405103519050600073ffffffffffffffffffffffffffffffffffffffff168173ffffffffffffffffffffffffffffffffffffffff1614156126b8576000600192509250506126c1565b80600092509250505b94509492505050565b60006004811115612704577f4e487b7100000000000000000000000000000000000000000000000000000000600052602160045260246000fd5b81600481111561273d577f4e487b7100000000000000000000000000000000000000000000000000000000600052602160045260246000fd5b141561274857612a18565b60016004811115612782577f4e487b7100000000000000000000000000000000000000000000000000000000600052602160045260246000fd5b8160048111156127bb577f4e487b7100000000000000000000000000000000000000000000000000000000600052602160045260246000fd5b14156127fc576040517f08c379a00000000000000000000000000000000000000000000000000000000081526004016127f390614302565b60405180910390fd5b60026004811115612836577f4e487b7100000000000000000000000000000000000000000000000000000000600052602160045260246000fd5b81600481111561286f577f4e487b7100000000000000000000000000000000000000000000000000000000600052602160045260246000fd5b14156128b0576040517f08c379a00000000000000000000000000000000000000000000000000000000081526004016128a790614382565b60405180910390fd5b600360048111156128ea577f4e487b7100000000000000000000000000000000000000000000000000000000600052602160045260246000fd5b816004811115612923577f4e487b7100000000000000000000000000000000000000000000000000000000600052602160045260246000fd5b1415612964576040517f08c379a000000000000000000000000000000000000000000000000000000000815260040161295b906143e2565b60405180910390fd5b60048081111561299d577f4e487b7100000000000000000000000000000000000000000000000000000000600052602160045260246000fd5b8160048111156129d6577f4e487b7100000000000000000000000000000000000000000000000000000000600052602160045260246000fd5b1415612a17576040517f08c379a0000000000000000000000000000000000000000000000000000000008152600401612a0e90614482565b60405180910390fd5b5b50565b60006005600086815260200190815260200160002090508060030160008573ffffffffffffffffffffffffffffffffffffffff1673ffffffffffffffffffffffffffffffffffffffff16815260200190815260200160002060009054906101000a900460ff1615612ac1576040517f08c379a0000000000000000000000000000000000000000000000000000000008152600401612ab890614402565b60405180910390fd5b60018160030160008673ffffffffffffffffffffffffffffffffffffffff1673ffffffffffffffffffffffffffffffffffffffff16815260200190815260200160002060006101000a81548160ff02191690831515021790555060006002811115612b55577f4e487b7100000000000000000000000000000000000000000000000000000000600052602160045260246000fd5b60ff168360ff161415612b825781816000016000828254612b769190614927565b92505081905550612c8c565b60016002811115612bbc577f4e487b7100000000000000000000000000000000000000000000000000000000600052602160045260246000fd5b60ff168360ff161415612be95781816001016000828254612bdd9190614927565b92505081905550612c8b565b600280811115612c22577f4e487b7100000000000000000000000000000000000000000000000000000000600052602160045260246000fd5b60ff168360ff161415612c4f5781816002016000828254612c439190614927565b92505081905550612c8a565b6040517f08c379a0000000000000000000000000000000000000000000000000000000008152600401612c8190614502565b60405180910390fd5b5b5b5050505050565b6000806001600084815260200190815260200160002090508060020160009054906101000a900460ff1615612ccc576007915050612da3565b8060020160019054906101000a900460ff1615612ced576002915050612da3565b6000612cf884610f0a565b90506000811415612d3e576040517f08c379a0000000000000000000000000000000000000000000000000000000008152600401612d35906144e2565b60405180910390fd5b438110612d5057600092505050612da3565b6000612d5b856113c2565b9050438110612d705760019350505050612da3565b612d7985613000565b8015612d8a5750612d8985613047565b5b15612d9b5760049350505050612da3565b600393505050505b919050565b600080826000015167ffffffffffffffff16149050919050565b600067ffffffffffffffff8016821115612e11576040517f08c379a0000000000000000000000000000000000000000000000000000000008152600401612e08906144a2565b60405180910390fd5b819050919050565b808260000160006101000a81548167ffffffffffffffff021916908367ffffffffffffffff1602179055505050565b606082471015612e8d576040517f08c379a0000000000000000000000000000000000000000000000000000000008152600401612e8490614422565b60405180910390fd5b612e9685613072565b612ed5576040517f08c379a0000000000000000000000000000000000000000000000000000000008152600401612ecc90614542565b60405180910390fd5b6000808673ffffffffffffffffffffffffffffffffffffffff168587604051612efe9190613fb2565b60006040518083038185875af1925050503d8060008114612f3b576040519150601f19603f3d011682016040523d82523d6000602084013e612f40565b606091505b5091509150612f50828286613095565b92505050949350505050565b60007f01ffc9a7000000000000000000000000000000000000000000000000000000007bffffffffffffffffffffffffffffffffffffffffffffffffffffffff1916827bffffffffffffffffffffffffffffffffffffffffffffffffffffffff1916149050919050565b60008383834630604051602001612fe19594939291906141db565b6040516020818303038152906040528051906020012090509392505050565b6000806005600084815260200190815260200160002090508060020154816001015461302c9190614927565b61303d61303885610f0a565b6116ed565b1115915050919050565b6000806005600084815260200190815260200160002090508060000154816001015411915050919050565b6000808273ffffffffffffffffffffffffffffffffffffffff163b119050919050565b606083156130a5578290506130f5565b6000835111156130b85782518084602001fd5b816040517f08c379a00000000000000000000000000000000000000000000000000000000081526004016130ec91906142e0565b60405180910390fd5b9392505050565b600061310f61310a846146fe565b6146d9565b9050808382526020820190508285602086028201111561312e57600080fd5b60005b8581101561315e578161314488826132d6565b845260208401935060208301925050600181019050613131565b5050509392505050565b600061317b6131768461472a565b6146d9565b9050808382526020820190508285602086028201111561319a57600080fd5b60005b858110156131e457813567ffffffffffffffff8111156131bc57600080fd5b8086016131c98982613407565b8552602085019450602084019350505060018101905061319d565b5050509392505050565b60006132016131fc84614756565b6146d9565b9050808382526020820190508285602086028201111561322057600080fd5b60005b85811015613250578161323688826134ba565b845260208401935060208301925050600181019050613223565b5050509392505050565b600061326d61326884614782565b6146d9565b90508281526020810184848401111561328557600080fd5b613290848285614bbc565b509392505050565b60006132ab6132a6846147b3565b6146d9565b9050828152602081018484840111156132c357600080fd5b6132ce848285614bbc565b509392505050565b6000813590506132e5816152f6565b92915050565b600082601f8301126132fc57600080fd5b813561330c8482602086016130fc565b91505092915050565b600082601f83011261332657600080fd5b8135613336848260208601613168565b91505092915050565b600082601f83011261335057600080fd5b81356133608482602086016131ee565b91505092915050565b6000815190506133788161530d565b92915050565b60008135905061338d81615324565b92915050565b6000815190506133a281615324565b92915050565b6000813590506133b78161533b565b92915050565b60008083601f8401126133cf57600080fd5b8235905067ffffffffffffffff8111156133e857600080fd5b60208301915083600182028301111561340057600080fd5b9250929050565b600082601f83011261341857600080fd5b813561342884826020860161325a565b91505092915050565b60008135905061344081615352565b92915050565b60008083601f84011261345857600080fd5b8235905067ffffffffffffffff81111561347157600080fd5b60208301915083600182028301111561348957600080fd5b9250929050565b600082601f8301126134a157600080fd5b81356134b1848260208601613298565b91505092915050565b6000813590506134c981615369565b92915050565b6000815190506134de81615369565b92915050565b6000813590506134f381615380565b92915050565b6000806040838503121561350c57600080fd5b600061351a858286016132d6565b925050602061352b858286016134ba565b9150509250929050565b6000806000806060858703121561354b57600080fd5b6000613559878288016132d6565b945050602061356a878288016134ba565b935050604085013567ffffffffffffffff81111561358757600080fd5b613593878288016133bd565b925092505092959194509250565b600080600080608085870312156135b757600080fd5b600085013567ffffffffffffffff8111156135d157600080fd5b6135dd878288016132eb565b945050602085013567ffffffffffffffff8111156135fa57600080fd5b6136068782880161333f565b935050604085013567ffffffffffffffff81111561362357600080fd5b61362f87828801613315565b92505060606136408782880161337e565b91505092959194509250565b6000806000806080858703121561366257600080fd5b600085013567ffffffffffffffff81111561367c57600080fd5b613688878288016132eb565b945050602085013567ffffffffffffffff8111156136a557600080fd5b6136b18782880161333f565b935050604085013567ffffffffffffffff8111156136ce57600080fd5b6136da87828801613315565b925050606085013567ffffffffffffffff8111156136f757600080fd5b61370387828801613490565b91505092959194509250565b60006020828403121561372157600080fd5b600061372f84828501613369565b91505092915050565b60006020828403121561374a57600080fd5b600061375884828501613393565b91505092915050565b60006020828403121561377357600080fd5b6000613781848285016133a8565b91505092915050565b60006020828403121561379c57600080fd5b60006137aa84828501613431565b91505092915050565b6000602082840312156137c557600080fd5b60006137d3848285016134ba565b91505092915050565b6000602082840312156137ee57600080fd5b60006137fc848285016134cf565b91505092915050565b6000806040838503121561381857600080fd5b6000613826858286016134ba565b9250506020613837858286016132d6565b9150509250929050565b6000806040838503121561385457600080fd5b6000613862858286016134ba565b9250506020613873858286016134e4565b9150509250929050565b6000806000806060858703121561389357600080fd5b60006138a1878288016134ba565b94505060206138b2878288016134e4565b935050604085013567ffffffffffffffff8111156138cf57600080fd5b6138db87828801613446565b925092505092959194509250565b600080600080600060a0868803121561390157600080fd5b600061390f888289016134ba565b9550506020613920888289016134e4565b9450506040613931888289016134e4565b93505060606139428882890161337e565b92505060806139538882890161337e565b9150509295509295909350565b600061396c83836139b8565b60208301905092915050565b60006139848383613bb1565b905092915050565b60006139988383613c48565b905092915050565b60006139ac8383613f76565b60208301905092915050565b6139c181614a7a565b82525050565b6139d081614a7a565b82525050565b60006139e182614824565b6139eb818561489a565b93506139f6836147e4565b8060005b83811015613a27578151613a0e8882613960565b9750613a1983614866565b9250506001810190506139fa565b5085935050505092915050565b6000613a3f8261482f565b613a4981856148ab565b935083602082028501613a5b856147f4565b8060005b85811015613a975784840389528151613a788582613978565b9450613a8383614873565b925060208a01995050600181019050613a5f565b50829750879550505050505092915050565b6000613ab48261483a565b613abe81856148bc565b935083602082028501613ad085614804565b8060005b85811015613b0c5784840389528151613aed858261398c565b9450613af883614880565b925060208a01995050600181019050613ad4565b50829750879550505050505092915050565b6000613b2982614845565b613b3381856148cd565b9350613b3e83614814565b8060005b83811015613b6f578151613b5688826139a0565b9750613b618361488d565b925050600181019050613b42565b5085935050505092915050565b613b8581614a9e565b82525050565b613b9481614aaa565b82525050565b613bab613ba682614aaa565b614c61565b82525050565b6000613bbc82614850565b613bc681856148de565b9350613bd6818560208601614bcb565b613bdf81614d56565b840191505092915050565b6000613bf582614850565b613bff81856148ef565b9350613c0f818560208601614bcb565b80840191505092915050565b613c2481614b5a565b82525050565b613c3381614b7e565b82525050565b613c4281614b90565b82525050565b6000613c538261485b565b613c5d81856148fa565b9350613c6d818560208601614bcb565b613c7681614d56565b840191505092915050565b6000613c8c8261485b565b613c96818561490b565b9350613ca6818560208601614bcb565b613caf81614d56565b840191505092915050565b6000613cc760188361490b565b9150613cd282614d74565b602082019050919050565b6000613cea60188361490b565b9150613cf582614d9d565b602082019050919050565b6000613d0d60438361490b565b9150613d1882614dc6565b606082019050919050565b6000613d3060438361490b565b9150613d3b82614e3b565b606082019050919050565b6000613d53601f8361490b565b9150613d5e82614eb0565b602082019050919050565b6000613d7660028361491c565b9150613d8182614ed9565b600282019050919050565b6000613d9960218361490b565b9150613da482614f02565b604082019050919050565b6000613dbc60278361490b565b9150613dc782614f51565b604082019050919050565b6000613ddf60228361490b565b9150613dea82614fa0565b604082019050919050565b6000613e0260278361490b565b9150613e0d82614fef565b604082019050919050565b6000613e2560268361490b565b9150613e308261503e565b604082019050919050565b6000613e4860238361490b565b9150613e538261508d565b604082019050919050565b6000613e6b60188361490b565b9150613e76826150dc565b602082019050919050565b6000613e8e60228361490b565b9150613e9982615105565b604082019050919050565b6000613eb160268361490b565b9150613ebc82615154565b604082019050919050565b6000613ed460218361490b565b9150613edf826151a3565b604082019050919050565b6000613ef7601d8361490b565b9150613f02826151f2565b602082019050919050565b6000613f1a60358361490b565b9150613f258261521b565b604082019050919050565b6000613f3d60218361490b565b9150613f488261526a565b604082019050919050565b6000613f60601d8361490b565b9150613f6b826152b9565b602082019050919050565b613f7f81614b2f565b82525050565b613f8e81614b2f565b82525050565b613f9d81614baa565b82525050565b613fac81614b4d565b82525050565b6000613fbe8284613bea565b915081905092915050565b6000613fd482613d69565b9150613fe08285613b9a565b602082019150613ff08284613b9a565b6020820191508190509392505050565b600060208201905061401560008301846139c7565b92915050565b600060408201905061403060008301856139c7565b61403d60208301846139c7565b9392505050565b600060408201905061405960008301856139c7565b6140666020830184613f85565b9392505050565b6000608082019050818103600083015261408781876139d6565b9050818103602083015261409b8186613b1e565b905081810360408301526140af8185613a34565b90506140be6060830184613b8b565b95945050505050565b600060a08201905081810360008301526140e181886139d6565b905081810360208301526140f58187613b1e565b905081810360408301526141098186613a34565b90506141186060830185613c39565b6141256080830184613b8b565b9695505050505050565b600060c082019050818103600083015261414981896139d6565b9050818103602083015261415d8188613b1e565b905081810360408301526141718187613a34565b90506141806060830186613c39565b61418d6080830185613b8b565b61419a60a0830184613f85565b979650505050505050565b60006020820190506141ba6000830184613b7c565b92915050565b60006020820190506141d56000830184613b8b565b92915050565b600060a0820190506141f06000830188613b8b565b6141fd6020830187613b8b565b61420a6040830186613b8b565b6142176060830185613f85565b61422460808301846139c7565b9695505050505050565b60006060820190506142436000830186613b8b565b6142506020830185613f85565b61425d6040830184613fa3565b949350505050565b600060808201905061427a6000830187613b8b565b6142876020830186613fa3565b6142946040830185613b8b565b6142a16060830184613b8b565b95945050505050565b60006020820190506142bf6000830184613c1b565b92915050565b60006020820190506142da6000830184613c2a565b92915050565b600060208201905081810360008301526142fa8184613c81565b905092915050565b6000602082019050818103600083015261431b81613cba565b9050919050565b6000602082019050818103600083015261433b81613cdd565b9050919050565b6000602082019050818103600083015261435b81613d00565b9050919050565b6000602082019050818103600083015261437b81613d23565b9050919050565b6000602082019050818103600083015261439b81613d46565b9050919050565b600060208201905081810360008301526143bb81613d8c565b9050919050565b600060208201905081810360008301526143db81613daf565b9050919050565b600060208201905081810360008301526143fb81613dd2565b9050919050565b6000602082019050818103600083015261441b81613df5565b9050919050565b6000602082019050818103600083015261443b81613e18565b9050919050565b6000602082019050818103600083015261445b81613e3b565b9050919050565b6000602082019050818103600083015261447b81613e5e565b9050919050565b6000602082019050818103600083015261449b81613e81565b9050919050565b600060208201905081810360008301526144bb81613ea4565b9050919050565b600060208201905081810360008301526144db81613ec7565b9050919050565b600060208201905081810360008301526144fb81613eea565b9050919050565b6000602082019050818103600083015261451b81613f0d565b9050919050565b6000602082019050818103600083015261453b81613f30565b9050919050565b6000602082019050818103600083015261455b81613f53565b9050919050565b60006020820190506145776000830184613f85565b92915050565b600061012082019050614593600083018c613f85565b6145a0602083018b6139c7565b81810360408301526145b2818a6139d6565b905081810360608301526145c68189613b1e565b905081810360808301526145da8188613aa9565b905081810360a08301526145ee8187613a34565b90506145fd60c0830186613f94565b61460a60e0830185613f94565b81810361010083015261461d8184613c81565b90509a9950505050505050505050565b60006040820190506146426000830185613f85565b61464f6020830184613f85565b9392505050565b600060608201905061466b6000830186613f85565b6146786020830185613f85565b6146856040830184613f85565b949350505050565b60006080820190506146a26000830187613f85565b6146af6020830186613fa3565b6146bc6040830185613f85565b81810360608301526146ce8184613c81565b905095945050505050565b60006146e36146f4565b90506146ef8282614c30565b919050565b6000604051905090565b600067ffffffffffffffff82111561471957614718614d27565b5b602082029050602081019050919050565b600067ffffffffffffffff82111561474557614744614d27565b5b602082029050602081019050919050565b600067ffffffffffffffff82111561477157614770614d27565b5b602082029050602081019050919050565b600067ffffffffffffffff82111561479d5761479c614d27565b5b6147a682614d56565b9050602081019050919050565b600067ffffffffffffffff8211156147ce576147cd614d27565b5b6147d782614d56565b9050602081019050919050565b6000819050602082019050919050565b6000819050602082019050919050565b6000819050602082019050919050565b6000819050602082019050919050565b600081519050919050565b600081519050919050565b600081519050919050565b600081519050919050565b600081519050919050565b600081519050919050565b6000602082019050919050565b6000602082019050919050565b6000602082019050919050565b6000602082019050919050565b600082825260208201905092915050565b600082825260208201905092915050565b600082825260208201905092915050565b600082825260208201905092915050565b600082825260208201905092915050565b600081905092915050565b600082825260208201905092915050565b600082825260208201905092915050565b600081905092915050565b600061493282614b2f565b915061493d83614b2f565b9250827fffffffffffffffffffffffffffffffffffffffffffffffffffffffffffffffff0382111561497257614971614c6b565b5b828201905092915050565b600061498882614b39565b915061499383614b39565b92508267ffffffffffffffff038211156149b0576149af614c6b565b5b828201905092915050565b60006149c682614b2f565b91506149d183614b2f565b9250826149e1576149e0614c9a565b5b828204905092915050565b60006149f782614b2f565b9150614a0283614b2f565b9250817fffffffffffffffffffffffffffffffffffffffffffffffffffffffffffffffff0483118215151615614a3b57614a3a614c6b565b5b828202905092915050565b6000614a5182614b2f565b9150614a5c83614b2f565b925082821015614a6f57614a6e614c6b565b5b828203905092915050565b6000614a8582614b0f565b9050919050565b6000614a9782614b0f565b9050919050565b60008115159050919050565b6000819050919050565b60007fffffffff0000000000000000000000000000000000000000000000000000000082169050919050565b6000614aeb82614a8c565b9050919050565b6000819050614b00826152e2565b919050565b6000819050919050565b600073ffffffffffffffffffffffffffffffffffffffff82169050919050565b6000819050919050565b600067ffffffffffffffff82169050919050565b600060ff82169050919050565b6000614b6582614b6c565b9050919050565b6000614b7782614b0f565b9050919050565b6000614b8982614af2565b9050919050565b6000614ba3614b9e83614b05565b614d67565b9050919050565b6000614bb582614b39565b9050919050565b82818337600083830152505050565b60005b83811015614be9578082015181840152602081019050614bce565b83811115614bf8576000848401525b50505050565b60006002820490506001821680614c1657607f821691505b60208210811415614c2a57614c29614cf8565b5b50919050565b614c3982614d56565b810181811067ffffffffffffffff82111715614c5857614c57614d27565b5b80604052505050565b6000819050919050565b7f4e487b7100000000000000000000000000000000000000000000000000000000600052601160045260246000fd5b7f4e487b7100000000000000000000000000000000000000000000000000000000600052601260045260246000fd5b7f4e487b7100000000000000000000000000000000000000000000000000000000600052602160045260246000fd5b7f4e487b7100000000000000000000000000000000000000000000000000000000600052602260045260246000fd5b7f4e487b7100000000000000000000000000000000000000000000000000000000600052604160045260246000fd5b6000601f19601f8301169050919050565b60008160001b9050919050565b7f45434453413a20696e76616c6964207369676e61747572650000000000000000600082015250565b7f476f7665726e6f723a206f6e6c79476f7665726e616e63650000000000000000600082015250565b7f476f7665726e6f72566f74657351756f72756d4672616374696f6e3a2071756f60008201527f72756d4e756d657261746f72206f7665722071756f72756d44656e6f6d696e6160208201527f746f720000000000000000000000000000000000000000000000000000000000604082015250565b7f476f7665726e6f72436f6d7061746962696c697479427261766f3a2070726f7060008201527f6f73657220766f7465732062656c6f772070726f706f73616c2074687265736860208201527f6f6c640000000000000000000000000000000000000000000000000000000000604082015250565b7f45434453413a20696e76616c6964207369676e6174757265206c656e67746800600082015250565b7f1901000000000000000000000000000000000000000000000000000000000000600082015250565b7f476f7665726e6f723a20696e76616c69642070726f706f73616c206c656e677460008201527f6800000000000000000000000000000000000000000000000000000000000000602082015250565b7f476f7665726e6f7253657474696e67733a20766f74696e6720706572696f642060008201527f746f6f206c6f7700000000000000000000000000000000000000000000000000602082015250565b7f45434453413a20696e76616c6964207369676e6174757265202773272076616c60008201527f7565000000000000000000000000000000000000000000000000000000000000602082015250565b7f476f7665726e6f72566f74696e6753696d706c653a20766f746520616c72656160008201527f6479206361737400000000000000000000000000000000000000000000000000602082015250565b7f416464726573733a20696e73756666696369656e742062616c616e636520666f60008201527f722063616c6c0000000000000000000000000000000000000000000000000000602082015250565b7f476f7665726e6f723a20766f7465206e6f742063757272656e746c792061637460008201527f6976650000000000000000000000000000000000000000000000000000000000602082015250565b7f476f7665726e6f723a20656d7074792070726f706f73616c0000000000000000600082015250565b7f45434453413a20696e76616c6964207369676e6174757265202776272076616c60008201527f7565000000000000000000000000000000000000000000000000000000000000602082015250565b7f53616665436173743a2076616c756520646f65736e27742066697420696e203660008201527f3420626974730000000000000000000000000000000000000000000000000000602082015250565b7f476f7665726e6f723a2070726f706f73616c206e6f742073756363657373667560008201527f6c00000000000000000000000000000000000000000000000000000000000000602082015250565b7f476f7665726e6f723a20756e6b6e6f776e2070726f706f73616c206964000000600082015250565b7f476f7665726e6f72566f74696e6753696d706c653a20696e76616c696420766160008201527f6c756520666f7220656e756d20566f7465547970650000000000000000000000602082015250565b7f476f7665726e6f723a2070726f706f73616c20616c726561647920657869737460008201527f7300000000000000000000000000000000000000000000000000000000000000602082015250565b7f416464726573733a2063616c6c20746f206e6f6e2d636f6e7472616374000000600082015250565b600881106152f3576152f2614cc9565b5b50565b6152ff81614a7a565b811461530a57600080fd5b50565b61531681614a9e565b811461532157600080fd5b50565b61532d81614aaa565b811461533857600080fd5b50565b61534481614ab4565b811461534f57600080fd5b50565b61535b81614ae0565b811461536657600080fd5b50565b61537281614b2f565b811461537d57600080fd5b50565b61538981614b4d565b811461539457600080fd5b5056fe416464726573733a206c6f772d6c6576656c2063616c6c20776974682076616c7565206661696c6564a264697066735822122015ee8733760125d7553f28171b4289ba09177a6ed54de1fa619827f66963527764736f6c63430008040033",
  "linkReferences": {},
  "deployedLinkReferences": {}
}