{
  "_format": "hh-sol-artifact-1",
  "contractName": "Treasury",
  "sourceName": "contracts/diamond/facets/Treasury.sol",
  "abi": [
    {
      "inputs": [
        {
          "internalType": "uint256",
          "name": "_newBudget",
          "type": "uint256"
        }
      ],
      "name": "setBudget",
      "outputs": [],
      "stateMutability": "nonpayable",
      "type": "function"
    },
    {
      "inputs": [
        {
          "internalType": "address",
          "name": "_to",
          "type": "address"
        },
        {
          "internalType": "uint256",
          "name": "_amount",
          "type": "uint256"
        }
      ],
      "name": "transfer",
      "outputs": [],
      "stateMutability": "nonpayable",
      "type": "function"
    }
  ],
  "bytecode": "0x608060405234801561001057600080fd5b50610670806100206000396000f3fe608060405234801561001057600080fd5b50600436106100365760003560e01c8063a9059cbb1461003b578063bc8523fc14610057575b600080fd5b610055600480360381019061005091906103db565b610073565b005b610071600480360381019061006c9190610440565b6101fe565b005b600061007d61035a565b905080600b0160009054906101000a900473ffffffffffffffffffffffffffffffffffffffff1673ffffffffffffffffffffffffffffffffffffffff163373ffffffffffffffffffffffffffffffffffffffff16146100db57600080fd5b600073ffffffffffffffffffffffffffffffffffffffff168373ffffffffffffffffffffffffffffffffffffffff16141561011557600080fd5b806001015482111561012657600080fd5b8181600101600082825461013a919061054a565b9250508190555060008160030160009054906101000a900473ffffffffffffffffffffffffffffffffffffffff1690508073ffffffffffffffffffffffffffffffffffffffff1663a9059cbb85856040518363ffffffff1660e01b81526004016101a59291906104cb565b602060405180830381600087803b1580156101bf57600080fd5b505af11580156101d3573d6000803e3d6000fd5b505050506040513d601f19601f820116820180604052508101906101f79190610417565b5050505050565b600061020861035a565b905060008160030160009054906101000a900473ffffffffffffffffffffffffffffffffffffffff16905081600b0160009054906101000a900473ffffffffffffffffffffffffffffffffffffffff1673ffffffffffffffffffffffffffffffffffffffff163373ffffffffffffffffffffffffffffffffffffffff161461028f57600080fd5b8073ffffffffffffffffffffffffffffffffffffffff166370a08231306040518263ffffffff1660e01b81526004016102c891906104b0565b60206040518083038186803b1580156102e057600080fd5b505afa1580156102f4573d6000803e3d6000fd5b505050506040513d601f19601f820116820180604052508101906103189190610469565b83111561032457600080fd5b816002015442101561033557600080fd5b8282600101819055506276a7004261034d91906104f4565b8260020181905550505050565b6000807fc8fcad8db84d3cc18b4c41d551ea0ee66dd599cde068d998e57d5e09332c131c90508091505090565b600081359050610396816105f5565b92915050565b6000815190506103ab8161060c565b92915050565b6000813590506103c081610623565b92915050565b6000815190506103d581610623565b92915050565b600080604083850312156103ee57600080fd5b60006103fc85828601610387565b925050602061040d858286016103b1565b9150509250929050565b60006020828403121561042957600080fd5b60006104378482850161039c565b91505092915050565b60006020828403121561045257600080fd5b6000610460848285016103b1565b91505092915050565b60006020828403121561047b57600080fd5b6000610489848285016103c6565b91505092915050565b61049b8161057e565b82525050565b6104aa816105bc565b82525050565b60006020820190506104c56000830184610492565b92915050565b60006040820190506104e06000830185610492565b6104ed60208301846104a1565b9392505050565b60006104ff826105bc565b915061050a836105bc565b9250827fffffffffffffffffffffffffffffffffffffffffffffffffffffffffffffffff0382111561053f5761053e6105c6565b5b828201905092915050565b6000610555826105bc565b9150610560836105bc565b925082821015610573576105726105c6565b5b828203905092915050565b60006105898261059c565b9050919050565b60008115159050919050565b600073ffffffffffffffffffffffffffffffffffffffff82169050919050565b6000819050919050565b7f4e487b7100000000000000000000000000000000000000000000000000000000600052601160045260246000fd5b6105fe8161057e565b811461060957600080fd5b50565b61061581610590565b811461062057600080fd5b50565b61062c816105bc565b811461063757600080fd5b5056fea2646970667358221220dae05c512330be30e8c8c0df0b26f9d2fa6dd4c1665c82a45d0556b67f9487e764736f6c63430008040033",
  "linkReferences": {},
  "deployedLinkReferences": {}
}