{
  "_format": "hh-sol-artifact-1",
  "contractName": "Factory",
  "sourceName": "contracts/diamond/facets/Factory.sol",
  "abi": [
    {
      "anonymous": false,
      "inputs": [
        {
          "indexed": true,
          "internalType": "address",
          "name": "token",
          "type": "address"
        },
        {
          "indexed": true,
          "internalType": "address",
          "name": "exchange",
          "type": "address"
        }
      ],
      "name": "NewExchange",
      "type": "event"
    },
    {
      "inputs": [
        {
          "internalType": "address",
          "name": "token",
          "type": "address"
        }
      ],
      "name": "createExchange",
      "outputs": [
        {
          "internalType": "address",
          "name": "",
          "type": "address"
        }
      ],
      "stateMutability": "nonpayable",
      "type": "function"
    },
    {
      "inputs": [
        {
          "internalType": "address",
          "name": "token",
          "type": "address"
        }
      ],
      "name": "getExchange",
      "outputs": [
        {
          "internalType": "address",
          "name": "",
          "type": "address"
        }
      ],
      "stateMutability": "view",
      "type": "function"
    },
    {
      "inputs": [
        {
          "internalType": "address",
          "name": "exchange",
          "type": "address"
        }
      ],
      "name": "getToken",
      "outputs": [
        {
          "internalType": "address",
          "name": "",
          "type": "address"
        }
      ],
      "stateMutability": "view",
      "type": "function"
    },
    {
      "inputs": [
        {
          "internalType": "uint256",
          "name": "tokenid",
          "type": "uint256"
        }
      ],
      "name": "getTokenWithId",
      "outputs": [
        {
          "internalType": "address",
          "name": "",
          "type": "address"
        }
      ],
      "stateMutability": "view",
      "type": "function"
    }
  ],
  "bytecode": "0x608060405234801561001057600080fd5b50614992806100206000396000f3fe608060405234801561001057600080fd5b506004361061004c5760003560e01c806306f2bf62146100515780631648f38e1461008157806359770438146100b1578063aa65a6c0146100e1575b600080fd5b61006b600480360381019061006691906105fe565b610111565b604051610078919061065f565b60405180910390f35b61009b600480360381019061009691906105fe565b610188565b6040516100a8919061065f565b60405180910390f35b6100cb60048036038101906100c691906105fe565b6104d8565b6040516100d8919061065f565b60405180910390f35b6100fb60048036038101906100f69190610627565b61054f565b604051610108919061065f565b60405180910390f35b60008061011c61059a565b90508060040160008473ffffffffffffffffffffffffffffffffffffffff1673ffffffffffffffffffffffffffffffffffffffff16815260200190815260200160002060009054906101000a900473ffffffffffffffffffffffffffffffffffffffff16915050919050565b60008061019361059a565b9050600073ffffffffffffffffffffffffffffffffffffffff168373ffffffffffffffffffffffffffffffffffffffff1614156101cf57600080fd5b600073ffffffffffffffffffffffffffffffffffffffff168160040160008573ffffffffffffffffffffffffffffffffffffffff1673ffffffffffffffffffffffffffffffffffffffff16815260200190815260200160002060009054906101000a900473ffffffffffffffffffffffffffffffffffffffff1673ffffffffffffffffffffffffffffffffffffffff161461026957600080fd5b6000604051610277906105c7565b604051809103906000f080158015610293573d6000803e3d6000fd5b5090508073ffffffffffffffffffffffffffffffffffffffff166366d38203856040518263ffffffff1660e01b81526004016102cf919061065f565b600060405180830381600087803b1580156102e957600080fd5b505af11580156102fd573d6000803e3d6000fd5b50505050808260040160008673ffffffffffffffffffffffffffffffffffffffff1673ffffffffffffffffffffffffffffffffffffffff16815260200190815260200160002060006101000a81548173ffffffffffffffffffffffffffffffffffffffff021916908373ffffffffffffffffffffffffffffffffffffffff160217905550838260050160008373ffffffffffffffffffffffffffffffffffffffff1673ffffffffffffffffffffffffffffffffffffffff16815260200190815260200160002060006101000a81548173ffffffffffffffffffffffffffffffffffffffff021916908373ffffffffffffffffffffffffffffffffffffffff160217905550600060018360000154610414919061067a565b90508083600001819055508483600601600083815260200190815260200160002060006101000a81548173ffffffffffffffffffffffffffffffffffffffff021916908373ffffffffffffffffffffffffffffffffffffffff1602179055508173ffffffffffffffffffffffffffffffffffffffff168573ffffffffffffffffffffffffffffffffffffffff167f9d42cb017eb05bd8944ab536a8b35bc68085931dd5f4356489801453923953f960405160405180910390a3819350505050919050565b6000806104e361059a565b90508060050160008473ffffffffffffffffffffffffffffffffffffffff1673ffffffffffffffffffffffffffffffffffffffff16815260200190815260200160002060009054906101000a900473ffffffffffffffffffffffffffffffffffffffff16915050919050565b60008061055a61059a565b905080600601600084815260200190815260200160002060009054906101000a900473ffffffffffffffffffffffffffffffffffffffff16915050919050565b6000807fc8fcad8db84d3cc18b4c41d551ea0ee66dd599cde068d998e57d5e09332c131c90508091505090565b6141f38061076a83390190565b6000813590506105e38161073b565b92915050565b6000813590506105f881610752565b92915050565b60006020828403121561061057600080fd5b600061061e848285016105d4565b91505092915050565b60006020828403121561063957600080fd5b6000610647848285016105e9565b91505092915050565b610659816106d0565b82525050565b60006020820190506106746000830184610650565b92915050565b600061068582610702565b915061069083610702565b9250827fffffffffffffffffffffffffffffffffffffffffffffffffffffffffffffffff038211156106c5576106c461070c565b5b828201905092915050565b60006106db826106e2565b9050919050565b600073ffffffffffffffffffffffffffffffffffffffff82169050919050565b6000819050919050565b7f4e487b7100000000000000000000000000000000000000000000000000000000600052601160045260246000fd5b610744816106d0565b811461074f57600080fd5b50565b61075b81610702565b811461076657600080fd5b5056fe608060405234801561001057600080fd5b506141d3806100206000396000f3fe6080604052600436106102135760003560e01c8063981a132711610118578063dd62ed3e116100a0578063f39b5b9b1161006f578063f39b5b9b146108ae578063f3c0efe9146108de578063f552d91b1461091b578063f88bf15a14610958578063fc0c546a1461099657610214565b8063dd62ed3e146107ba578063ddf7e1a7146107f7578063ea650c7d14610834578063ec384a3e1461087157610214565b8063b040d545116100e7578063b040d5451461069b578063b1cb43bf146106d8578063c45a015514610715578063cd7724c314610740578063d4e4841d1461077d57610214565b8063981a1327146105c65780639d76ea5814610603578063a9059cbb1461062e578063ad65d76d1461066b57610214565b8063422f10431161019b57806370a082311161016a57806370a08231146104a75780637237e031146104e457806395b68fe71461052157806395d89b411461055e57806395e3c50b1461058957610214565b8063422f1043146103e157806359e948621461041157806366d382031461044e5780636b1d4db71461047757610214565b806318160ddd116101e257806318160ddd146102fa57806323b872dd146103255780632640f62c146103625780632b68b9c61461039f578063313ce567146103b657610214565b8063013efd8b1461022557806306fdde0314610262578063095ea7b31461028d5780630b573638146102ca57610214565b5b6102223460014233336109c1565b50005b34801561023157600080fd5b5061024c60048036038101906102479190613b2e565b610bc9565b6040516102599190613e61565b60405180910390f35b34801561026e57600080fd5b50610277610be1565b6040516102849190613e3f565b60405180910390f35b34801561029957600080fd5b506102b460048036038101906102af91906139ec565b610c6f565b6040516102c19190613e24565b60405180910390f35b6102e460048036038101906102df9190613adf565b610d61565b6040516102f19190613e61565b60405180910390f35b34801561030657600080fd5b5061030f610deb565b60405161031c9190613e61565b60405180910390f35b34801561033157600080fd5b5061034c6004803603810190610347919061399d565b610df1565b6040516103599190613e24565b60405180910390f35b34801561036e57600080fd5b5061038960048036038101906103849190613a51565b61102b565b6040516103969190613e61565b60405180910390f35b3480156103ab57600080fd5b506103b46110fb565b005b3480156103c257600080fd5b506103cb611190565b6040516103d89190613e61565b60405180910390f35b6103fb60048036038101906103f69190613b2e565b611196565b6040516104089190613e61565b60405180910390f35b34801561041d57600080fd5b5061043860048036038101906104339190613a51565b611862565b6040516104459190613e61565b60405180910390f35b34801561045a57600080fd5b506104756004803603810190610470919061390f565b611938565b005b610491600480360381019061048c9190613aa3565b611b4b565b60405161049e9190613e61565b60405180910390f35b3480156104b357600080fd5b506104ce60048036038101906104c9919061390f565b611b62565b6040516104db9190613e61565b60405180910390f35b3480156104f057600080fd5b5061050b60048036038101906105069190613b7d565b611bab565b6040516105189190613e61565b60405180910390f35b34801561052d57600080fd5b5061054860048036038101906105439190613a51565b611c36565b6040516105559190613e61565b60405180910390f35b34801561056a57600080fd5b50610573611d0c565b6040516105809190613e3f565b60405180910390f35b34801561059557600080fd5b506105b060048036038101906105ab9190613b2e565b611d9a565b6040516105bd9190613e61565b60405180910390f35b3480156105d257600080fd5b506105ed60048036038101906105e89190613cba565b611db2565b6040516105fa9190613e61565b60405180910390f35b34801561060f57600080fd5b50610618611e08565b6040516106259190613da9565b60405180910390f35b34801561063a57600080fd5b50610655600480360381019061065091906139ec565b611e32565b6040516106629190613e24565b60405180910390f35b61068560048036038101906106809190613adf565b611f9b565b6040516106929190613e61565b60405180910390f35b3480156106a757600080fd5b506106c260048036038101906106bd9190613c43565b612025565b6040516106cf9190613e61565b60405180910390f35b3480156106e457600080fd5b506106ff60048036038101906106fa9190613c43565b6120f2565b60405161070c9190613e61565b60405180910390f35b34801561072157600080fd5b5061072a61210e565b6040516107379190613da9565b60405180910390f35b34801561074c57600080fd5b5061076760048036038101906107629190613a51565b612134565b6040516107749190613e61565b60405180910390f35b34801561078957600080fd5b506107a4600480360381019061079f9190613b7d565b612204565b6040516107b19190613e61565b60405180910390f35b3480156107c657600080fd5b506107e160048036038101906107dc9190613961565b61228f565b6040516107ee9190613e61565b60405180910390f35b34801561080357600080fd5b5061081e60048036038101906108199190613c43565b612316565b60405161082b9190613e61565b60405180910390f35b34801561084057600080fd5b5061085b60048036038101906108569190613c43565b6123e3565b6040516108689190613e61565b60405180910390f35b34801561087d57600080fd5b5061089860048036038101906108939190613cba565b6123ff565b6040516108a59190613e61565b60405180910390f35b6108c860048036038101906108c39190613aa3565b612455565b6040516108d59190613e61565b60405180910390f35b3480156108ea57600080fd5b5061090560048036038101906109009190613cba565b61246c565b6040516109129190613e61565b60405180910390f35b34801561092757600080fd5b50610942600480360381019061093d9190613cba565b61253a565b60405161094f9190613e61565b60405180910390f35b34801561096457600080fd5b5061097f600480360381019061097a9190613be0565b612608565b60405161098d929190613e7c565b60405180910390f35b3480156109a257600080fd5b506109ab612960565b6040516109b89190613da9565b60405180910390f35b60004284101580156109d35750600086115b80156109df5750600085115b6109e857600080fd5b6000600460009054906101000a900473ffffffffffffffffffffffffffffffffffffffff1673ffffffffffffffffffffffffffffffffffffffff166370a08231306040518263ffffffff1660e01b8152600401610a459190613da9565b60206040518083038186803b158015610a5d57600080fd5b505afa158015610a71573d6000803e3d6000fd5b505050506040513d601f19601f82011682018060405250810190610a959190613a7a565b90506000610aaf888947610aa99190613fd9565b84612986565b905086811015610abe57600080fd5b600460009054906101000a900473ffffffffffffffffffffffffffffffffffffffff1673ffffffffffffffffffffffffffffffffffffffff1663a9059cbb85836040518363ffffffff1660e01b8152600401610b1b929190613dfb565b602060405180830381600087803b158015610b3557600080fd5b505af1158015610b49573d6000803e3d6000fd5b505050506040513d601f19601f82011682018060405250810190610b6d9190613a28565b610b7657600080fd5b80888673ffffffffffffffffffffffffffffffffffffffff167fcd60aa75dea3072fbc07ae6d7d856b5dc5f4eee88854f5b4abf7b680ef8bc50f60405160405180910390a4809250505095945050505050565b6000610bd884848433336129f7565b90509392505050565b60008054610bee90614088565b80601f0160208091040260200160405190810160405280929190818152602001828054610c1a90614088565b8015610c675780601f10610c3c57610100808354040283529160200191610c67565b820191906000526020600020905b815481529060010190602001808311610c4a57829003601f168201915b505050505081565b600081600760003373ffffffffffffffffffffffffffffffffffffffff1673ffffffffffffffffffffffffffffffffffffffff16815260200190815260200160002060008573ffffffffffffffffffffffffffffffffffffffff1673ffffffffffffffffffffffffffffffffffffffff168152602001908152602001600020819055508273ffffffffffffffffffffffffffffffffffffffff163373ffffffffffffffffffffffffffffffffffffffff167f8c5be1e5ebec7d5bd14f71427d1e84f3dd0314c0f7b2291e5b200ac8c7c3b92584604051610d4f9190613e61565b60405180910390a36001905092915050565b60003073ffffffffffffffffffffffffffffffffffffffff168273ffffffffffffffffffffffffffffffffffffffff1614158015610dcc5750600073ffffffffffffffffffffffffffffffffffffffff168273ffffffffffffffffffffffffffffffffffffffff1614155b610dd557600080fd5b610de28434853386612c31565b90509392505050565b60035481565b600081600760008673ffffffffffffffffffffffffffffffffffffffff1673ffffffffffffffffffffffffffffffffffffffff16815260200190815260200160002060008573ffffffffffffffffffffffffffffffffffffffff1673ffffffffffffffffffffffffffffffffffffffff168152602001908152602001600020541015610e7c57600080fd5b81600660008673ffffffffffffffffffffffffffffffffffffffff1673ffffffffffffffffffffffffffffffffffffffff1681526020019081526020016000206000828254610ecb9190613fd9565b9250508190555081600660008573ffffffffffffffffffffffffffffffffffffffff1673ffffffffffffffffffffffffffffffffffffffff1681526020019081526020016000206000828254610f219190613ef8565b9250508190555081600760008673ffffffffffffffffffffffffffffffffffffffff1673ffffffffffffffffffffffffffffffffffffffff16815260200190815260200160002060003373ffffffffffffffffffffffffffffffffffffffff1673ffffffffffffffffffffffffffffffffffffffff1681526020019081526020016000206000828254610fb49190613fd9565b925050819055508273ffffffffffffffffffffffffffffffffffffffff168473ffffffffffffffffffffffffffffffffffffffff167fddf252ad1be2c89b69c2b068fc378daa952ba7f163c4a11628f55a4df523b3ef846040516110189190613e61565b60405180910390a3600190509392505050565b600080821161103957600080fd5b6000600460009054906101000a900473ffffffffffffffffffffffffffffffffffffffff1673ffffffffffffffffffffffffffffffffffffffff166370a08231306040518263ffffffff1660e01b81526004016110969190613da9565b60206040518083038186803b1580156110ae57600080fd5b505afa1580156110c2573d6000803e3d6000fd5b505050506040513d601f19601f820116820180604052508101906110e69190613a7a565b90506110f3838247612e8e565b915050919050565b600560009054906101000a900473ffffffffffffffffffffffffffffffffffffffff1673ffffffffffffffffffffffffffffffffffffffff163373ffffffffffffffffffffffffffffffffffffffff161461115557600080fd5b600560009054906101000a900473ffffffffffffffffffffffffffffffffffffffff1673ffffffffffffffffffffffffffffffffffffffff16ff5b60025481565b600042821180156111a75750600083115b80156111b35750600034115b6111bc57600080fd5b6000600354905060008111156114cd57600085116111d957600080fd5b600034476111e79190613fd9565b90506000600460009054906101000a900473ffffffffffffffffffffffffffffffffffffffff1673ffffffffffffffffffffffffffffffffffffffff166370a08231306040518263ffffffff1660e01b81526004016112469190613da9565b60206040518083038186803b15801561125e57600080fd5b505afa158015611272573d6000803e3d6000fd5b505050506040513d601f19601f820116820180604052508101906112969190613a7a565b9050600060018383346112a99190613f7f565b6112b39190613f4e565b6112bd9190613ef8565b905060008385346112ce9190613f7f565b6112d89190613f4e565b90508188101580156112ea5750888110155b6112f357600080fd5b80600660003373ffffffffffffffffffffffffffffffffffffffff1673ffffffffffffffffffffffffffffffffffffffff16815260200190815260200160002060008282546113429190613ef8565b9250508190555080856113559190613ef8565b600381905550600460009054906101000a900473ffffffffffffffffffffffffffffffffffffffff1673ffffffffffffffffffffffffffffffffffffffff166323b872dd3330856040518463ffffffff1660e01b81526004016113ba93929190613dc4565b602060405180830381600087803b1580156113d457600080fd5b505af11580156113e8573d6000803e3d6000fd5b505050506040513d601f19601f8201168201806040525081019061140c9190613a28565b61141557600080fd5b81343373ffffffffffffffffffffffffffffffffffffffff167f06239653922ac7bea6aa2b19dc486b9361821d37712eb796adfd38d81de278ca60405160405180910390a43373ffffffffffffffffffffffffffffffffffffffff16600073ffffffffffffffffffffffffffffffffffffffff167fddf252ad1be2c89b69c2b068fc378daa952ba7f163c4a11628f55a4df523b3ef836040516114b89190613e61565b60405180910390a3809550505050505061185b565b600073ffffffffffffffffffffffffffffffffffffffff16600560009054906101000a900473ffffffffffffffffffffffffffffffffffffffff1673ffffffffffffffffffffffffffffffffffffffff161415801561157b5750600073ffffffffffffffffffffffffffffffffffffffff16600460009054906101000a900473ffffffffffffffffffffffffffffffffffffffff1673ffffffffffffffffffffffffffffffffffffffff1614155b801561158b5750633b9aca003410155b61159457600080fd5b3073ffffffffffffffffffffffffffffffffffffffff16600560009054906101000a900473ffffffffffffffffffffffffffffffffffffffff1673ffffffffffffffffffffffffffffffffffffffff166306f2bf62600460009054906101000a900473ffffffffffffffffffffffffffffffffffffffff166040518263ffffffff1660e01b81526004016116289190613da9565b602060405180830381600087803b15801561164257600080fd5b505af1158015611656573d6000803e3d6000fd5b505050506040513d601f19601f8201168201806040525081019061167a9190613938565b73ffffffffffffffffffffffffffffffffffffffff161461169a57600080fd5b600084905060004790508060038190555080600660003373ffffffffffffffffffffffffffffffffffffffff1673ffffffffffffffffffffffffffffffffffffffff16815260200190815260200160002081905550600460009054906101000a900473ffffffffffffffffffffffffffffffffffffffff1673ffffffffffffffffffffffffffffffffffffffff166323b872dd3330856040518463ffffffff1660e01b815260040161174e93929190613dc4565b602060405180830381600087803b15801561176857600080fd5b505af115801561177c573d6000803e3d6000fd5b505050506040513d601f19601f820116820180604052508101906117a09190613a28565b6117a957600080fd5b81343373ffffffffffffffffffffffffffffffffffffffff167f06239653922ac7bea6aa2b19dc486b9361821d37712eb796adfd38d81de278ca60405160405180910390a43373ffffffffffffffffffffffffffffffffffffffff16600073ffffffffffffffffffffffffffffffffffffffff167fddf252ad1be2c89b69c2b068fc378daa952ba7f163c4a11628f55a4df523b3ef8360405161184c9190613e61565b60405180910390a38093505050505b9392505050565b600080821161187057600080fd5b6000600460009054906101000a900473ffffffffffffffffffffffffffffffffffffffff1673ffffffffffffffffffffffffffffffffffffffff166370a08231306040518263ffffffff1660e01b81526004016118cd9190613da9565b60206040518083038186803b1580156118e557600080fd5b505afa1580156118f9573d6000803e3d6000fd5b505050506040513d601f19601f8201168201806040525081019061191d9190613a7a565b9050600061192c844784612e8e565b90508092505050919050565b600073ffffffffffffffffffffffffffffffffffffffff16600560009054906101000a900473ffffffffffffffffffffffffffffffffffffffff1673ffffffffffffffffffffffffffffffffffffffff161480156119e45750600073ffffffffffffffffffffffffffffffffffffffff16600460009054906101000a900473ffffffffffffffffffffffffffffffffffffffff1673ffffffffffffffffffffffffffffffffffffffff16145b8015611a1d5750600073ffffffffffffffffffffffffffffffffffffffff168173ffffffffffffffffffffffffffffffffffffffff1614155b611a2657600080fd5b33600560006101000a81548173ffffffffffffffffffffffffffffffffffffffff021916908373ffffffffffffffffffffffffffffffffffffffff16021790555080600460006101000a81548173ffffffffffffffffffffffffffffffffffffffff021916908373ffffffffffffffffffffffffffffffffffffffff1602179055506040518060400160405280600c81526020017f436172616d656c6f53776170000000000000000000000000000000000000000081525060009080519060200190611af3929190613803565b506040518060400160405280600481526020017f434153570000000000000000000000000000000000000000000000000000000081525060019080519060200190611b3f929190613803565b50601260028190555050565b6000611b5a8334843333612c31565b905092915050565b6000600660008373ffffffffffffffffffffffffffffffffffffffff1673ffffffffffffffffffffffffffffffffffffffff168152602001908152602001600020549050919050565b60003073ffffffffffffffffffffffffffffffffffffffff168273ffffffffffffffffffffffffffffffffffffffff1614158015611c165750600073ffffffffffffffffffffffffffffffffffffffff168273ffffffffffffffffffffffffffffffffffffffff1614155b611c1f57600080fd5b611c2c8585853386612f05565b9050949350505050565b6000808211611c4457600080fd5b6000600460009054906101000a900473ffffffffffffffffffffffffffffffffffffffff1673ffffffffffffffffffffffffffffffffffffffff166370a08231306040518263ffffffff1660e01b8152600401611ca19190613da9565b60206040518083038186803b158015611cb957600080fd5b505afa158015611ccd573d6000803e3d6000fd5b505050506040513d601f19601f82011682018060405250810190611cf19190613a7a565b90506000611d00848347612986565b90508092505050919050565b60018054611d1990614088565b80601f0160208091040260200160405190810160405280929190818152602001828054611d4590614088565b8015611d925780601f10611d6757610100808354040283529160200191611d92565b820191906000526020600020905b815481529060010190602001808311611d7557829003601f168201915b505050505081565b6000611da98484843333612f05565b90509392505050565b60003073ffffffffffffffffffffffffffffffffffffffff168373ffffffffffffffffffffffffffffffffffffffff161415611ded57600080fd5b611dfc8787878733888861314b565b90509695505050505050565b6000600460009054906101000a900473ffffffffffffffffffffffffffffffffffffffff16905090565b600081600660003373ffffffffffffffffffffffffffffffffffffffff1673ffffffffffffffffffffffffffffffffffffffff168152602001908152602001600020541015611e8057600080fd5b81600660003373ffffffffffffffffffffffffffffffffffffffff1673ffffffffffffffffffffffffffffffffffffffff1681526020019081526020016000206000828254611ecf9190613fd9565b9250508190555081600660008573ffffffffffffffffffffffffffffffffffffffff1673ffffffffffffffffffffffffffffffffffffffff1681526020019081526020016000206000828254611f259190613ef8565b925050819055508273ffffffffffffffffffffffffffffffffffffffff163373ffffffffffffffffffffffffffffffffffffffff167fddf252ad1be2c89b69c2b068fc378daa952ba7f163c4a11628f55a4df523b3ef84604051611f899190613e61565b60405180910390a36001905092915050565b60003073ffffffffffffffffffffffffffffffffffffffff168273ffffffffffffffffffffffffffffffffffffffff16141580156120065750600073ffffffffffffffffffffffffffffffffffffffff168273ffffffffffffffffffffffffffffffffffffffff1614155b61200f57600080fd5b61201c34858533866109c1565b90509392505050565b600080600560009054906101000a900473ffffffffffffffffffffffffffffffffffffffff1673ffffffffffffffffffffffffffffffffffffffff166306f2bf62846040518263ffffffff1660e01b81526004016120839190613da9565b602060405180830381600087803b15801561209d57600080fd5b505af11580156120b1573d6000803e3d6000fd5b505050506040513d601f19601f820116820180604052508101906120d59190613938565b90506120e68787878733338761314b565b91505095945050505050565b6000612103868686863333886134ef565b905095945050505050565b600560009054906101000a900473ffffffffffffffffffffffffffffffffffffffff1681565b600080821161214257600080fd5b6000600460009054906101000a900473ffffffffffffffffffffffffffffffffffffffff1673ffffffffffffffffffffffffffffffffffffffff166370a08231306040518263ffffffff1660e01b815260040161219f9190613da9565b60206040518083038186803b1580156121b757600080fd5b505afa1580156121cb573d6000803e3d6000fd5b505050506040513d601f19601f820116820180604052508101906121ef9190613a7a565b90506121fc834783612986565b915050919050565b60003073ffffffffffffffffffffffffffffffffffffffff168273ffffffffffffffffffffffffffffffffffffffff161415801561226f5750600073ffffffffffffffffffffffffffffffffffffffff168273ffffffffffffffffffffffffffffffffffffffff1614155b61227857600080fd5b61228585858533866129f7565b9050949350505050565b6000600760008473ffffffffffffffffffffffffffffffffffffffff1673ffffffffffffffffffffffffffffffffffffffff16815260200190815260200160002060008373ffffffffffffffffffffffffffffffffffffffff1673ffffffffffffffffffffffffffffffffffffffff16815260200190815260200160002054905092915050565b600080600560009054906101000a900473ffffffffffffffffffffffffffffffffffffffff1673ffffffffffffffffffffffffffffffffffffffff166306f2bf62846040518263ffffffff1660e01b81526004016123749190613da9565b602060405180830381600087803b15801561238e57600080fd5b505af11580156123a2573d6000803e3d6000fd5b505050506040513d601f19601f820116820180604052508101906123c69190613938565b90506123d7878787873333876134ef565b91505095945050505050565b60006123f48686868633338861314b565b905095945050505050565b60003073ffffffffffffffffffffffffffffffffffffffff168373ffffffffffffffffffffffffffffffffffffffff16141561243a57600080fd5b612449878787873388886134ef565b90509695505050505050565b600061246434848433336109c1565b905092915050565b600080600560009054906101000a900473ffffffffffffffffffffffffffffffffffffffff1673ffffffffffffffffffffffffffffffffffffffff166306f2bf62846040518263ffffffff1660e01b81526004016124ca9190613da9565b602060405180830381600087803b1580156124e457600080fd5b505af11580156124f8573d6000803e3d6000fd5b505050506040513d601f19601f8201168201806040525081019061251c9190613938565b905061252d8888888833898761314b565b9150509695505050505050565b600080600560009054906101000a900473ffffffffffffffffffffffffffffffffffffffff1673ffffffffffffffffffffffffffffffffffffffff166306f2bf62846040518263ffffffff1660e01b81526004016125989190613da9565b602060405180830381600087803b1580156125b257600080fd5b505af11580156125c6573d6000803e3d6000fd5b505050506040513d601f19601f820116820180604052508101906125ea9190613938565b90506125fb888888883389876134ef565b9150509695505050505050565b60008060008611801561261a57504283115b80156126265750600085115b80156126325750600084115b61263b57600080fd5b600060035490506000811161264f57600080fd5b6000600460009054906101000a900473ffffffffffffffffffffffffffffffffffffffff1673ffffffffffffffffffffffffffffffffffffffff166370a08231306040518263ffffffff1660e01b81526004016126ac9190613da9565b60206040518083038186803b1580156126c457600080fd5b505afa1580156126d8573d6000803e3d6000fd5b505050506040513d601f19601f820116820180604052508101906126fc9190613a7a565b9050600082478a61270d9190613f7f565b6127179190613f4e565b9050600083838b6127289190613f7f565b6127329190613f4e565b90508882101580156127445750878110155b61274d57600080fd5b89600660003373ffffffffffffffffffffffffffffffffffffffff1673ffffffffffffffffffffffffffffffffffffffff168152602001908152602001600020600082825461279c9190613fd9565b925050819055503373ffffffffffffffffffffffffffffffffffffffff166108fc839081150290604051600060405180830381858888f193505050501580156127e9573d6000803e3d6000fd5b50600460009054906101000a900473ffffffffffffffffffffffffffffffffffffffff1673ffffffffffffffffffffffffffffffffffffffff1663a9059cbb33836040518363ffffffff1660e01b8152600401612847929190613dfb565b602060405180830381600087803b15801561286157600080fd5b505af1158015612875573d6000803e3d6000fd5b505050506040513d601f19601f820116820180604052508101906128999190613a28565b6128a257600080fd5b80823373ffffffffffffffffffffffffffffffffffffffff167f0fbf06c058b90cb038a618f8c2acbf6145f8b3570fd1fa56abb8f0f3f05b36e860405160405180910390a4600073ffffffffffffffffffffffffffffffffffffffff163373ffffffffffffffffffffffffffffffffffffffff167fddf252ad1be2c89b69c2b068fc378daa952ba7f163c4a11628f55a4df523b3ef8c6040516129459190613e61565b60405180910390a38181955095505050505094509492505050565b600460009054906101000a900473ffffffffffffffffffffffffffffffffffffffff1681565b600080831180156129975750600082115b6129a057600080fd5b60006103e5856129b09190613f7f565b9050600083826129c09190613f7f565b90506000826103e8876129d39190613f7f565b6129dd9190613ef8565b905080826129eb9190613f4e565b93505050509392505050565b6000428410158015612a095750600086115b612a1257600080fd5b6000600460009054906101000a900473ffffffffffffffffffffffffffffffffffffffff1673ffffffffffffffffffffffffffffffffffffffff166370a08231306040518263ffffffff1660e01b8152600401612a6f9190613da9565b60206040518083038186803b158015612a8757600080fd5b505afa158015612a9b573d6000803e3d6000fd5b505050506040513d601f19601f82011682018060405250810190612abf9190613a7a565b90506000612ace888347612e8e565b905080871015612add57600080fd5b8373ffffffffffffffffffffffffffffffffffffffff166108fc899081150290604051600060405180830381858888f19350505050158015612b23573d6000803e3d6000fd5b50600460009054906101000a900473ffffffffffffffffffffffffffffffffffffffff1673ffffffffffffffffffffffffffffffffffffffff166323b872dd8630846040518463ffffffff1660e01b8152600401612b8393929190613dc4565b602060405180830381600087803b158015612b9d57600080fd5b505af1158015612bb1573d6000803e3d6000fd5b505050506040513d601f19601f82011682018060405250810190612bd59190613a28565b612bde57600080fd5b87818673ffffffffffffffffffffffffffffffffffffffff167f7f4091b46c33e918a0f3aa42307641d17bb67029427a5369e54b35398423870560405160405180910390a4809250505095945050505050565b6000428410158015612c435750600086115b8015612c4f5750600085115b612c5857600080fd5b6000600460009054906101000a900473ffffffffffffffffffffffffffffffffffffffff1673ffffffffffffffffffffffffffffffffffffffff166370a08231306040518263ffffffff1660e01b8152600401612cb59190613da9565b60206040518083038186803b158015612ccd57600080fd5b505afa158015612ce1573d6000803e3d6000fd5b505050506040513d601f19601f82011682018060405250810190612d059190613a7a565b90506000612d1f888847612d199190613fd9565b84612e8e565b905060008188612d2f9190613fd9565b90506000811115612d82578573ffffffffffffffffffffffffffffffffffffffff166108fc829081150290604051600060405180830381858888f19350505050158015612d80573d6000803e3d6000fd5b505b600460009054906101000a900473ffffffffffffffffffffffffffffffffffffffff1673ffffffffffffffffffffffffffffffffffffffff1663a9059cbb868b6040518363ffffffff1660e01b8152600401612ddf929190613dfb565b602060405180830381600087803b158015612df957600080fd5b505af1158015612e0d573d6000803e3d6000fd5b505050506040513d601f19601f82011682018060405250810190612e319190613a28565b612e3a57600080fd5b88828773ffffffffffffffffffffffffffffffffffffffff167fcd60aa75dea3072fbc07ae6d7d856b5dc5f4eee88854f5b4abf7b680ef8bc50f60405160405180910390a481935050505095945050505050565b60008083118015612e9f5750600082115b612ea857600080fd5b60006103e88585612eb99190613f7f565b612ec39190613f7f565b905060006103d18685612ed69190613fd9565b612ee09190613f7f565b905060018183612ef09190613f4e565b612efa9190613ef8565b925050509392505050565b6000428410158015612f175750600086115b8015612f235750600085115b612f2c57600080fd5b6000600460009054906101000a900473ffffffffffffffffffffffffffffffffffffffff1673ffffffffffffffffffffffffffffffffffffffff166370a08231306040518263ffffffff1660e01b8152600401612f899190613da9565b60206040518083038186803b158015612fa157600080fd5b505afa158015612fb5573d6000803e3d6000fd5b505050506040513d601f19601f82011682018060405250810190612fd99190613a7a565b90506000612fe8888347612986565b905086811015612ff757600080fd5b8373ffffffffffffffffffffffffffffffffffffffff166108fc829081150290604051600060405180830381858888f1935050505015801561303d573d6000803e3d6000fd5b50600460009054906101000a900473ffffffffffffffffffffffffffffffffffffffff1673ffffffffffffffffffffffffffffffffffffffff166323b872dd86308b6040518463ffffffff1660e01b815260040161309d93929190613dc4565b602060405180830381600087803b1580156130b757600080fd5b505af11580156130cb573d6000803e3d6000fd5b505050506040513d601f19601f820116820180604052508101906130ef9190613a28565b6130f857600080fd5b80888673ffffffffffffffffffffffffffffffffffffffff167f7f4091b46c33e918a0f3aa42307641d17bb67029427a5369e54b35398423870560405160405180910390a4809250505095945050505050565b600042851015801561315d5750600088115b80156131695750600086115b61317257600080fd5b3073ffffffffffffffffffffffffffffffffffffffff168273ffffffffffffffffffffffffffffffffffffffff16141580156131db5750600073ffffffffffffffffffffffffffffffffffffffff168273ffffffffffffffffffffffffffffffffffffffff1614155b6131e457600080fd5b60008273ffffffffffffffffffffffffffffffffffffffff166359e948628a6040518263ffffffff1660e01b815260040161321f9190613e61565b602060405180830381600087803b15801561323957600080fd5b505af115801561324d573d6000803e3d6000fd5b505050506040513d601f19601f820116820180604052508101906132719190613a7a565b90506000600460009054906101000a900473ffffffffffffffffffffffffffffffffffffffff1673ffffffffffffffffffffffffffffffffffffffff166370a08231306040518263ffffffff1660e01b81526004016132d09190613da9565b60206040518083038186803b1580156132e857600080fd5b505afa1580156132fc573d6000803e3d6000fd5b505050506040513d601f19601f820116820180604052508101906133209190613a7a565b9050600061332f838347612e8e565b9050808a101580156133415750828910155b61334a57600080fd5b600460009054906101000a900473ffffffffffffffffffffffffffffffffffffffff1673ffffffffffffffffffffffffffffffffffffffff166323b872dd8830846040518463ffffffff1660e01b81526004016133a993929190613dc4565b602060405180830381600087803b1580156133c357600080fd5b505af11580156133d7573d6000803e3d6000fd5b505050506040513d601f19601f820116820180604052508101906133fb9190613a28565b61340457600080fd5b60008573ffffffffffffffffffffffffffffffffffffffff16630b573638858e8c8b6040518563ffffffff1660e01b815260040161344493929190613ea5565b6020604051808303818588803b15801561345d57600080fd5b505af1158015613471573d6000803e3d6000fd5b50505050506040513d601f19601f820116820180604052508101906134969190613a7a565b905083828973ffffffffffffffffffffffffffffffffffffffff167f7f4091b46c33e918a0f3aa42307641d17bb67029427a5369e54b35398423870560405160405180910390a481945050505050979650505050505050565b60004285101580156135015750600088115b801561350d5750600087115b80156135195750600086115b61352257600080fd5b3073ffffffffffffffffffffffffffffffffffffffff168273ffffffffffffffffffffffffffffffffffffffff161415801561358b5750600073ffffffffffffffffffffffffffffffffffffffff168273ffffffffffffffffffffffffffffffffffffffff1614155b61359457600080fd5b6000600460009054906101000a900473ffffffffffffffffffffffffffffffffffffffff1673ffffffffffffffffffffffffffffffffffffffff166370a08231306040518263ffffffff1660e01b81526004016135f19190613da9565b60206040518083038186803b15801561360957600080fd5b505afa15801561361d573d6000803e3d6000fd5b505050506040513d601f19601f820116820180604052508101906136419190613a7a565b905060006136508a8347612986565b90508781101561365f57600080fd5b600460009054906101000a900473ffffffffffffffffffffffffffffffffffffffff1673ffffffffffffffffffffffffffffffffffffffff166323b872dd87308d6040518463ffffffff1660e01b81526004016136be93929190613dc4565b602060405180830381600087803b1580156136d857600080fd5b505af11580156136ec573d6000803e3d6000fd5b505050506040513d601f19601f820116820180604052508101906137109190613a28565b61371957600080fd5b60008473ffffffffffffffffffffffffffffffffffffffff1663ad65d76d838c8b8a6040518563ffffffff1660e01b815260040161375993929190613ea5565b6020604051808303818588803b15801561377257600080fd5b505af1158015613786573d6000803e3d6000fd5b50505050506040513d601f19601f820116820180604052508101906137ab9190613a7a565b9050818b8873ffffffffffffffffffffffffffffffffffffffff167f7f4091b46c33e918a0f3aa42307641d17bb67029427a5369e54b35398423870560405160405180910390a48a9350505050979650505050505050565b82805461380f90614088565b90600052602060002090601f0160209004810192826138315760008555613878565b82601f1061384a57805160ff1916838001178555613878565b82800160010185558215613878579182015b8281111561387757825182559160200191906001019061385c565b5b5090506138859190613889565b5090565b5b808211156138a257600081600090555060010161388a565b5090565b6000813590506138b581614158565b92915050565b6000815190506138ca81614158565b92915050565b6000815190506138df8161416f565b92915050565b6000813590506138f481614186565b92915050565b60008151905061390981614186565b92915050565b60006020828403121561392157600080fd5b600061392f848285016138a6565b91505092915050565b60006020828403121561394a57600080fd5b6000613958848285016138bb565b91505092915050565b6000806040838503121561397457600080fd5b6000613982858286016138a6565b9250506020613993858286016138a6565b9150509250929050565b6000806000606084860312156139b257600080fd5b60006139c0868287016138a6565b93505060206139d1868287016138a6565b92505060406139e2868287016138e5565b9150509250925092565b600080604083850312156139ff57600080fd5b6000613a0d858286016138a6565b9250506020613a1e858286016138e5565b9150509250929050565b600060208284031215613a3a57600080fd5b6000613a48848285016138d0565b91505092915050565b600060208284031215613a6357600080fd5b6000613a71848285016138e5565b91505092915050565b600060208284031215613a8c57600080fd5b6000613a9a848285016138fa565b91505092915050565b60008060408385031215613ab657600080fd5b6000613ac4858286016138e5565b9250506020613ad5858286016138e5565b9150509250929050565b600080600060608486031215613af457600080fd5b6000613b02868287016138e5565b9350506020613b13868287016138e5565b9250506040613b24868287016138a6565b9150509250925092565b600080600060608486031215613b4357600080fd5b6000613b51868287016138e5565b9350506020613b62868287016138e5565b9250506040613b73868287016138e5565b9150509250925092565b60008060008060808587031215613b9357600080fd5b6000613ba1878288016138e5565b9450506020613bb2878288016138e5565b9350506040613bc3878288016138e5565b9250506060613bd4878288016138a6565b91505092959194509250565b60008060008060808587031215613bf657600080fd5b6000613c04878288016138e5565b9450506020613c15878288016138e5565b9350506040613c26878288016138e5565b9250506060613c37878288016138e5565b91505092959194509250565b600080600080600060a08688031215613c5b57600080fd5b6000613c69888289016138e5565b9550506020613c7a888289016138e5565b9450506040613c8b888289016138e5565b9350506060613c9c888289016138e5565b9250506080613cad888289016138a6565b9150509295509295909350565b60008060008060008060c08789031215613cd357600080fd5b6000613ce189828a016138e5565b9650506020613cf289828a016138e5565b9550506040613d0389828a016138e5565b9450506060613d1489828a016138e5565b9350506080613d2589828a016138a6565b92505060a0613d3689828a016138a6565b9150509295509295509295565b613d4c8161400d565b82525050565b613d5b8161401f565b82525050565b6000613d6c82613edc565b613d768185613ee7565b9350613d86818560208601614055565b613d8f81614147565b840191505092915050565b613da38161404b565b82525050565b6000602082019050613dbe6000830184613d43565b92915050565b6000606082019050613dd96000830186613d43565b613de66020830185613d43565b613df36040830184613d9a565b949350505050565b6000604082019050613e106000830185613d43565b613e1d6020830184613d9a565b9392505050565b6000602082019050613e396000830184613d52565b92915050565b60006020820190508181036000830152613e598184613d61565b905092915050565b6000602082019050613e766000830184613d9a565b92915050565b6000604082019050613e916000830185613d9a565b613e9e6020830184613d9a565b9392505050565b6000606082019050613eba6000830186613d9a565b613ec76020830185613d9a565b613ed46040830184613d43565b949350505050565b600081519050919050565b600082825260208201905092915050565b6000613f038261404b565b9150613f0e8361404b565b9250827fffffffffffffffffffffffffffffffffffffffffffffffffffffffffffffffff03821115613f4357613f426140ba565b5b828201905092915050565b6000613f598261404b565b9150613f648361404b565b925082613f7457613f736140e9565b5b828204905092915050565b6000613f8a8261404b565b9150613f958361404b565b9250817fffffffffffffffffffffffffffffffffffffffffffffffffffffffffffffffff0483118215151615613fce57613fcd6140ba565b5b828202905092915050565b6000613fe48261404b565b9150613fef8361404b565b925082821015614002576140016140ba565b5b828203905092915050565b60006140188261402b565b9050919050565b60008115159050919050565b600073ffffffffffffffffffffffffffffffffffffffff82169050919050565b6000819050919050565b60005b83811015614073578082015181840152602081019050614058565b83811115614082576000848401525b50505050565b600060028204905060018216806140a057607f821691505b602082108114156140b4576140b3614118565b5b50919050565b7f4e487b7100000000000000000000000000000000000000000000000000000000600052601160045260246000fd5b7f4e487b7100000000000000000000000000000000000000000000000000000000600052601260045260246000fd5b7f4e487b7100000000000000000000000000000000000000000000000000000000600052602260045260246000fd5b6000601f19601f8301169050919050565b6141618161400d565b811461416c57600080fd5b50565b6141788161401f565b811461418357600080fd5b50565b61418f8161404b565b811461419a57600080fd5b5056fea26469706673582212200b18d23797a3423df1e7100da7dc4ab8a16e4489436154c6620ded4da6f9de1564736f6c63430008040033a2646970667358221220b5e0670431f955199f48dffcb1a7bf443236296bd2cc5b6c3651e59a27ae7f8a64736f6c63430008040033",
  "linkReferences": {},
  "deployedLinkReferences": {}
}